{
  "_format": "hh-sol-artifact-1",
  "contractName": "PromissoryNote",
  "sourceName": "@arcadexyz/v2-contracts/contracts/PromissoryNote.sol",
  "abi": [
    {
      "inputs": [
        {
          "internalType": "string",
          "name": "name",
          "type": "string"
        },
        {
          "internalType": "string",
          "name": "symbol",
          "type": "string"
        }
      ],
      "stateMutability": "nonpayable",
      "type": "constructor"
    },
    {
      "inputs": [
        {
          "internalType": "uint256",
          "name": "deadline",
          "type": "uint256"
        }
      ],
      "name": "ERC721P_DeadlineExpired",
      "type": "error"
    },
    {
      "inputs": [
        {
          "internalType": "address",
          "name": "signer",
          "type": "address"
        }
      ],
      "name": "ERC721P_InvalidSignature",
      "type": "error"
    },
    {
      "inputs": [
        {
          "internalType": "address",
          "name": "owner",
          "type": "address"
        }
      ],
      "name": "ERC721P_NotTokenOwner",
      "type": "error"
    },
    {
      "inputs": [],
      "name": "PN_AlreadyInitialized",
      "type": "error"
    },
    {
      "inputs": [
        {
          "internalType": "address",
          "name": "caller",
          "type": "address"
        }
      ],
      "name": "PN_BurningRole",
      "type": "error"
    },
    {
      "inputs": [],
      "name": "PN_CannotInitialize",
      "type": "error"
    },
    {
      "inputs": [],
      "name": "PN_ContractPaused",
      "type": "error"
    },
    {
      "inputs": [
        {
          "internalType": "address",
          "name": "caller",
          "type": "address"
        }
      ],
      "name": "PN_MintingRole",
      "type": "error"
    },
    {
      "anonymous": false,
      "inputs": [
        {
          "indexed": true,
          "internalType": "address",
          "name": "owner",
          "type": "address"
        },
        {
          "indexed": true,
          "internalType": "address",
          "name": "approved",
          "type": "address"
        },
        {
          "indexed": true,
          "internalType": "uint256",
          "name": "tokenId",
          "type": "uint256"
        }
      ],
      "name": "Approval",
      "type": "event"
    },
    {
      "anonymous": false,
      "inputs": [
        {
          "indexed": true,
          "internalType": "address",
          "name": "owner",
          "type": "address"
        },
        {
          "indexed": true,
          "internalType": "address",
          "name": "operator",
          "type": "address"
        },
        {
          "indexed": false,
          "internalType": "bool",
          "name": "approved",
          "type": "bool"
        }
      ],
      "name": "ApprovalForAll",
      "type": "event"
    },
    {
      "anonymous": false,
      "inputs": [
        {
          "indexed": false,
          "internalType": "address",
          "name": "account",
          "type": "address"
        }
      ],
      "name": "Paused",
      "type": "event"
    },
    {
      "anonymous": false,
      "inputs": [
        {
          "indexed": true,
          "internalType": "bytes32",
          "name": "role",
          "type": "bytes32"
        },
        {
          "indexed": true,
          "internalType": "bytes32",
          "name": "previousAdminRole",
          "type": "bytes32"
        },
        {
          "indexed": true,
          "internalType": "bytes32",
          "name": "newAdminRole",
          "type": "bytes32"
        }
      ],
      "name": "RoleAdminChanged",
      "type": "event"
    },
    {
      "anonymous": false,
      "inputs": [
        {
          "indexed": true,
          "internalType": "bytes32",
          "name": "role",
          "type": "bytes32"
        },
        {
          "indexed": true,
          "internalType": "address",
          "name": "account",
          "type": "address"
        },
        {
          "indexed": true,
          "internalType": "address",
          "name": "sender",
          "type": "address"
        }
      ],
      "name": "RoleGranted",
      "type": "event"
    },
    {
      "anonymous": false,
      "inputs": [
        {
          "indexed": true,
          "internalType": "bytes32",
          "name": "role",
          "type": "bytes32"
        },
        {
          "indexed": true,
          "internalType": "address",
          "name": "account",
          "type": "address"
        },
        {
          "indexed": true,
          "internalType": "address",
          "name": "sender",
          "type": "address"
        }
      ],
      "name": "RoleRevoked",
      "type": "event"
    },
    {
      "anonymous": false,
      "inputs": [
        {
          "indexed": true,
          "internalType": "address",
          "name": "from",
          "type": "address"
        },
        {
          "indexed": true,
          "internalType": "address",
          "name": "to",
          "type": "address"
        },
        {
          "indexed": true,
          "internalType": "uint256",
          "name": "tokenId",
          "type": "uint256"
        }
      ],
      "name": "Transfer",
      "type": "event"
    },
    {
      "anonymous": false,
      "inputs": [
        {
          "indexed": false,
          "internalType": "address",
          "name": "account",
          "type": "address"
        }
      ],
      "name": "Unpaused",
      "type": "event"
    },
    {
      "inputs": [],
      "name": "ADMIN_ROLE",
      "outputs": [
        {
          "internalType": "bytes32",
          "name": "",
          "type": "bytes32"
        }
      ],
      "stateMutability": "view",
      "type": "function"
    },
    {
      "inputs": [],
      "name": "DEFAULT_ADMIN_ROLE",
      "outputs": [
        {
          "internalType": "bytes32",
          "name": "",
          "type": "bytes32"
        }
      ],
      "stateMutability": "view",
      "type": "function"
    },
    {
      "inputs": [],
      "name": "DOMAIN_SEPARATOR",
      "outputs": [
        {
          "internalType": "bytes32",
          "name": "",
          "type": "bytes32"
        }
      ],
      "stateMutability": "view",
      "type": "function"
    },
    {
      "inputs": [
        {
          "internalType": "address",
          "name": "to",
          "type": "address"
        },
        {
          "internalType": "uint256",
          "name": "tokenId",
          "type": "uint256"
        }
      ],
      "name": "approve",
      "outputs": [],
      "stateMutability": "nonpayable",
      "type": "function"
    },
    {
      "inputs": [
        {
          "internalType": "address",
          "name": "owner",
          "type": "address"
        }
      ],
      "name": "balanceOf",
      "outputs": [
        {
          "internalType": "uint256",
          "name": "",
          "type": "uint256"
        }
      ],
      "stateMutability": "view",
      "type": "function"
    },
    {
      "inputs": [
        {
          "internalType": "uint256",
          "name": "tokenId",
          "type": "uint256"
        }
      ],
      "name": "burn",
      "outputs": [],
      "stateMutability": "nonpayable",
      "type": "function"
    },
    {
      "inputs": [
        {
          "internalType": "uint256",
          "name": "tokenId",
          "type": "uint256"
        }
      ],
      "name": "getApproved",
      "outputs": [
        {
          "internalType": "address",
          "name": "",
          "type": "address"
        }
      ],
      "stateMutability": "view",
      "type": "function"
    },
    {
      "inputs": [
        {
          "internalType": "bytes32",
          "name": "role",
          "type": "bytes32"
        }
      ],
      "name": "getRoleAdmin",
      "outputs": [
        {
          "internalType": "bytes32",
          "name": "",
          "type": "bytes32"
        }
      ],
      "stateMutability": "view",
      "type": "function"
    },
    {
      "inputs": [
        {
          "internalType": "bytes32",
          "name": "role",
          "type": "bytes32"
        },
        {
          "internalType": "uint256",
          "name": "index",
          "type": "uint256"
        }
      ],
      "name": "getRoleMember",
      "outputs": [
        {
          "internalType": "address",
          "name": "",
          "type": "address"
        }
      ],
      "stateMutability": "view",
      "type": "function"
    },
    {
      "inputs": [
        {
          "internalType": "bytes32",
          "name": "role",
          "type": "bytes32"
        }
      ],
      "name": "getRoleMemberCount",
      "outputs": [
        {
          "internalType": "uint256",
          "name": "",
          "type": "uint256"
        }
      ],
      "stateMutability": "view",
      "type": "function"
    },
    {
      "inputs": [
        {
          "internalType": "bytes32",
          "name": "role",
          "type": "bytes32"
        },
        {
          "internalType": "address",
          "name": "account",
          "type": "address"
        }
      ],
      "name": "grantRole",
      "outputs": [],
      "stateMutability": "nonpayable",
      "type": "function"
    },
    {
      "inputs": [
        {
          "internalType": "bytes32",
          "name": "role",
          "type": "bytes32"
        },
        {
          "internalType": "address",
          "name": "account",
          "type": "address"
        }
      ],
      "name": "hasRole",
      "outputs": [
        {
          "internalType": "bool",
          "name": "",
          "type": "bool"
        }
      ],
      "stateMutability": "view",
      "type": "function"
    },
    {
      "inputs": [
        {
          "internalType": "address",
          "name": "loanCore",
          "type": "address"
        }
      ],
      "name": "initialize",
      "outputs": [],
      "stateMutability": "nonpayable",
      "type": "function"
    },
    {
      "inputs": [
        {
          "internalType": "address",
          "name": "owner",
          "type": "address"
        },
        {
          "internalType": "address",
          "name": "operator",
          "type": "address"
        }
      ],
      "name": "isApprovedForAll",
      "outputs": [
        {
          "internalType": "bool",
          "name": "",
          "type": "bool"
        }
      ],
      "stateMutability": "view",
      "type": "function"
    },
    {
      "inputs": [
        {
          "internalType": "address",
          "name": "to",
          "type": "address"
        },
        {
          "internalType": "uint256",
          "name": "loanId",
          "type": "uint256"
        }
      ],
      "name": "mint",
      "outputs": [
        {
          "internalType": "uint256",
          "name": "",
          "type": "uint256"
        }
      ],
      "stateMutability": "nonpayable",
      "type": "function"
    },
    {
      "inputs": [],
      "name": "name",
      "outputs": [
        {
          "internalType": "string",
          "name": "",
          "type": "string"
        }
      ],
      "stateMutability": "view",
      "type": "function"
    },
    {
      "inputs": [
        {
          "internalType": "address",
          "name": "owner",
          "type": "address"
        }
      ],
      "name": "nonces",
      "outputs": [
        {
          "internalType": "uint256",
          "name": "",
          "type": "uint256"
        }
      ],
      "stateMutability": "view",
      "type": "function"
    },
    {
      "inputs": [],
      "name": "owner",
      "outputs": [
        {
          "internalType": "address",
          "name": "",
          "type": "address"
        }
      ],
      "stateMutability": "view",
      "type": "function"
    },
    {
      "inputs": [
        {
          "internalType": "uint256",
          "name": "tokenId",
          "type": "uint256"
        }
      ],
      "name": "ownerOf",
      "outputs": [
        {
          "internalType": "address",
          "name": "",
          "type": "address"
        }
      ],
      "stateMutability": "view",
      "type": "function"
    },
    {
      "inputs": [],
      "name": "paused",
      "outputs": [
        {
          "internalType": "bool",
          "name": "",
          "type": "bool"
        }
      ],
      "stateMutability": "view",
      "type": "function"
    },
    {
      "inputs": [
        {
          "internalType": "address",
          "name": "owner",
          "type": "address"
        },
        {
          "internalType": "address",
          "name": "spender",
          "type": "address"
        },
        {
          "internalType": "uint256",
          "name": "tokenId",
          "type": "uint256"
        },
        {
          "internalType": "uint256",
          "name": "deadline",
          "type": "uint256"
        },
        {
          "internalType": "uint8",
          "name": "v",
          "type": "uint8"
        },
        {
          "internalType": "bytes32",
          "name": "r",
          "type": "bytes32"
        },
        {
          "internalType": "bytes32",
          "name": "s",
          "type": "bytes32"
        }
      ],
      "name": "permit",
      "outputs": [],
      "stateMutability": "nonpayable",
      "type": "function"
    },
    {
      "inputs": [
        {
          "internalType": "bytes32",
          "name": "role",
          "type": "bytes32"
        },
        {
          "internalType": "address",
          "name": "account",
          "type": "address"
        }
      ],
      "name": "renounceRole",
      "outputs": [],
      "stateMutability": "nonpayable",
      "type": "function"
    },
    {
      "inputs": [
        {
          "internalType": "bytes32",
          "name": "role",
          "type": "bytes32"
        },
        {
          "internalType": "address",
          "name": "account",
          "type": "address"
        }
      ],
      "name": "revokeRole",
      "outputs": [],
      "stateMutability": "nonpayable",
      "type": "function"
    },
    {
      "inputs": [
        {
          "internalType": "address",
          "name": "from",
          "type": "address"
        },
        {
          "internalType": "address",
          "name": "to",
          "type": "address"
        },
        {
          "internalType": "uint256",
          "name": "tokenId",
          "type": "uint256"
        }
      ],
      "name": "safeTransferFrom",
      "outputs": [],
      "stateMutability": "nonpayable",
      "type": "function"
    },
    {
      "inputs": [
        {
          "internalType": "address",
          "name": "from",
          "type": "address"
        },
        {
          "internalType": "address",
          "name": "to",
          "type": "address"
        },
        {
          "internalType": "uint256",
          "name": "tokenId",
          "type": "uint256"
        },
        {
          "internalType": "bytes",
          "name": "_data",
          "type": "bytes"
        }
      ],
      "name": "safeTransferFrom",
      "outputs": [],
      "stateMutability": "nonpayable",
      "type": "function"
    },
    {
      "inputs": [
        {
          "internalType": "address",
          "name": "operator",
          "type": "address"
        },
        {
          "internalType": "bool",
          "name": "approved",
          "type": "bool"
        }
      ],
      "name": "setApprovalForAll",
      "outputs": [],
      "stateMutability": "nonpayable",
      "type": "function"
    },
    {
      "inputs": [
        {
          "internalType": "bool",
          "name": "paused",
          "type": "bool"
        }
      ],
      "name": "setPaused",
      "outputs": [],
      "stateMutability": "nonpayable",
      "type": "function"
    },
    {
      "inputs": [
        {
          "internalType": "bytes4",
          "name": "interfaceId",
          "type": "bytes4"
        }
      ],
      "name": "supportsInterface",
      "outputs": [
        {
          "internalType": "bool",
          "name": "",
          "type": "bool"
        }
      ],
      "stateMutability": "view",
      "type": "function"
    },
    {
      "inputs": [],
      "name": "symbol",
      "outputs": [
        {
          "internalType": "string",
          "name": "",
          "type": "string"
        }
      ],
      "stateMutability": "view",
      "type": "function"
    },
    {
      "inputs": [
        {
          "internalType": "uint256",
          "name": "index",
          "type": "uint256"
        }
      ],
      "name": "tokenByIndex",
      "outputs": [
        {
          "internalType": "uint256",
          "name": "",
          "type": "uint256"
        }
      ],
      "stateMutability": "view",
      "type": "function"
    },
    {
      "inputs": [
        {
          "internalType": "address",
          "name": "owner",
          "type": "address"
        },
        {
          "internalType": "uint256",
          "name": "index",
          "type": "uint256"
        }
      ],
      "name": "tokenOfOwnerByIndex",
      "outputs": [
        {
          "internalType": "uint256",
          "name": "",
          "type": "uint256"
        }
      ],
      "stateMutability": "view",
      "type": "function"
    },
    {
      "inputs": [
        {
          "internalType": "uint256",
          "name": "tokenId",
          "type": "uint256"
        }
      ],
      "name": "tokenURI",
      "outputs": [
        {
          "internalType": "string",
          "name": "",
          "type": "string"
        }
      ],
      "stateMutability": "view",
      "type": "function"
    },
    {
      "inputs": [],
      "name": "totalSupply",
      "outputs": [
        {
          "internalType": "uint256",
          "name": "",
          "type": "uint256"
        }
      ],
      "stateMutability": "view",
      "type": "function"
    },
    {
      "inputs": [
        {
          "internalType": "address",
          "name": "from",
          "type": "address"
        },
        {
          "internalType": "address",
          "name": "to",
          "type": "address"
        },
        {
          "internalType": "uint256",
          "name": "tokenId",
          "type": "uint256"
        }
      ],
      "name": "transferFrom",
      "outputs": [],
      "stateMutability": "nonpayable",
      "type": "function"
    }
  ],
  "bytecode": "0x6101406040527f48d39b37a35214940203bbbd4f383519797769b13d936f387d89430afef27688610120523480156200003757600080fd5b5060405162003eea38038062003eea8339810160408190526200005a9162000228565b6040805180820190915260018152603160f81b6020820152829081908184600262000086838262000321565b50600362000095828262000321565b5050600c805460ff1916905550815160209283012081519183019190912060c082815260e08290524660a0818152604080517f8b73c3c69bb8fe3d512ecc4cf759cc79239f7b179b0ffacaa9a75d522b39400f81890181905281830197909752606081019590955260808086019390935230858301528051808603909201825293909201909252805190840120905261010052620001409150600f90620014986200015a821b17901c565b5050600e80546001600160a01b03191633179055620003ed565b80546001019055565b634e487b7160e01b600052604160045260246000fd5b600082601f8301126200018b57600080fd5b81516001600160401b0380821115620001a857620001a862000163565b604051601f8301601f19908116603f01168101908282118183101715620001d357620001d362000163565b81604052838152602092508683858801011115620001f057600080fd5b600091505b83821015620002145785820183015181830184015290820190620001f5565b600093810190920192909252949350505050565b600080604083850312156200023c57600080fd5b82516001600160401b03808211156200025457600080fd5b620002628683870162000179565b935060208501519150808211156200027957600080fd5b50620002888582860162000179565b9150509250929050565b600181811c90821680620002a757607f821691505b602082108103620002c857634e487b7160e01b600052602260045260246000fd5b50919050565b601f8211156200031c57600081815260208120601f850160051c81016020861015620002f75750805b601f850160051c820191505b81811015620003185782815560010162000303565b5050505b505050565b81516001600160401b038111156200033d576200033d62000163565b62000355816200034e845462000292565b84620002ce565b602080601f8311600181146200038d5760008415620003745750858301515b600019600386901b1c1916600185901b17855562000318565b600085815260208120601f198616915b82811015620003be578886015182559484019460019091019084016200039d565b5085821015620003dd5787850151600019600388901b60f8161c191681555b5050505050600190811b01905550565b60805160a05160c05160e0516101005161012051613aad6200043d600039600061132b01526000611c8b01526000611cda01526000611cb501526000611c3a01526000611c620152613aad6000f3fe608060405234801561001057600080fd5b50600436106102265760003560e01c80636352211e1161012a578063a217fddf116100bd578063c87b56dd1161008c578063d505accf11610071578063d505accf146104ee578063d547741f14610501578063e985e9c51461051457600080fd5b8063c87b56dd146104c8578063ca15c873146104db57600080fd5b8063a217fddf14610487578063a22cb4651461048f578063b88d4fde146104a2578063c4d66de8146104b557600080fd5b80638da5cb5b116100f95780638da5cb5b146104085780639010d07c1461042857806391d148541461043b57806395d89b411461047f57600080fd5b80636352211e146103a857806370a08231146103bb57806375b238fc146103ce5780637ecebe00146103f557600080fd5b80632f2ff15d116101bd57806340c10f191161018c57806342966c681161017157806342966c68146103775780634f6ccce71461038a5780635c975abb1461039d57600080fd5b806340c10f191461035157806342842e0e1461036457600080fd5b80632f2ff15d146103105780632f745c59146103235780633644e5151461033657806336568abe1461033e57600080fd5b806316c38b3c116101f957806316c38b3c146102b557806318160ddd146102c857806323b872dd146102da578063248a9ca3146102ed57600080fd5b806301ffc9a71461022b57806306fdde0314610253578063081812fc14610268578063095ea7b3146102a0575b600080fd5b61023e6102393660046133b6565b61055d565b60405190151581526020015b60405180910390f35b61025b61056e565b60405161024a9190613441565b61027b610276366004613454565b610600565b60405173ffffffffffffffffffffffffffffffffffffffff909116815260200161024a565b6102b36102ae366004613496565b6106df565b005b6102b36102c33660046134d0565b61086b565b600a545b60405190815260200161024a565b6102b36102e83660046134eb565b6108b0565b6102cc6102fb366004613454565b60009081526020819052604090206001015490565b6102b361031e366004613527565b610951565b6102cc610331366004613496565b610973565b6102cc610a42565b6102b361034c366004613527565b610a51565b6102cc61035f366004613496565b610a73565b6102b36103723660046134eb565b610ae7565b6102b3610385366004613454565b610b02565b6102cc610398366004613454565b610b70565b600c5460ff1661023e565b61027b6103b6366004613454565b610c2e565b6102cc6103c9366004613553565b610ce0565b6102cc7fa49807205ce4d355092ef5a8a18f56e8913cf4a201fbe287825b095693c2177581565b6102cc610403366004613553565b610dae565b600e5461027b9073ffffffffffffffffffffffffffffffffffffffff1681565b61027b61043636600461356e565b610dd9565b61023e610449366004613527565b60009182526020828152604080842073ffffffffffffffffffffffffffffffffffffffff93909316845291905290205460ff1690565b61025b610df8565b6102cc600081565b6102b361049d366004613590565b610e07565b6102b36104b03660046135e9565b610f1d565b6102b36104c3366004613553565b610fc5565b61025b6104d6366004613454565b611132565b6102cc6104e9366004613454565b61124e565b6102b36104fc3660046136e3565b611265565b6102b361050f366004613527565b61148e565b61023e610522366004613756565b73ffffffffffffffffffffffffffffffffffffffff918216600090815260076020908152604080832093909416825291909152205460ff1690565b6000610568826114a1565b92915050565b60606002805461057d90613780565b80601f01602080910402602001604051908101604052809291908181526020018280546105a990613780565b80156105f65780601f106105cb576101008083540402835291602001916105f6565b820191906000526020600020905b8154815290600101906020018083116105d957829003601f168201915b5050505050905090565b60008181526004602052604081205473ffffffffffffffffffffffffffffffffffffffff166106b6576040517f08c379a000000000000000000000000000000000000000000000000000000000815260206004820152602c60248201527f4552433732313a20617070726f76656420717565727920666f72206e6f6e657860448201527f697374656e7420746f6b656e000000000000000000000000000000000000000060648201526084015b60405180910390fd5b5060009081526006602052604090205473ffffffffffffffffffffffffffffffffffffffff1690565b60006106ea82610c2e565b90508073ffffffffffffffffffffffffffffffffffffffff168373ffffffffffffffffffffffffffffffffffffffff16036107a7576040517f08c379a000000000000000000000000000000000000000000000000000000000815260206004820152602160248201527f4552433732313a20617070726f76616c20746f2063757272656e74206f776e6560448201527f720000000000000000000000000000000000000000000000000000000000000060648201526084016106ad565b3373ffffffffffffffffffffffffffffffffffffffff821614806107d057506107d08133610522565b61085c576040517f08c379a000000000000000000000000000000000000000000000000000000000815260206004820152603860248201527f4552433732313a20617070726f76652063616c6c6572206973206e6f74206f7760448201527f6e6572206e6f7220617070726f76656420666f7220616c6c000000000000000060648201526084016106ad565b61086683836114f7565b505050565b7fa49807205ce4d355092ef5a8a18f56e8913cf4a201fbe287825b095693c217756108968133611597565b81156108a8576108a4611667565b5050565b6108a4611751565b6108ba338261180c565b610946576040517f08c379a000000000000000000000000000000000000000000000000000000000815260206004820152603160248201527f4552433732313a207472616e736665722063616c6c6572206973206e6f74206f60448201527f776e6572206e6f7220617070726f76656400000000000000000000000000000060648201526084016106ad565b61086683838361197c565b61095b8282611bee565b60008281526001602052604090206108669082611c14565b600061097e83610ce0565b8210610a0c576040517f08c379a000000000000000000000000000000000000000000000000000000000815260206004820152602b60248201527f455243373231456e756d657261626c653a206f776e657220696e646578206f7560448201527f74206f6620626f756e647300000000000000000000000000000000000000000060648201526084016106ad565b5073ffffffffffffffffffffffffffffffffffffffff919091166000908152600860209081526040808320938352929052205490565b6000610a4c611c36565b905090565b610a5b8282611d28565b60008281526001602052604090206108669082611dd7565b6000610a9f7fa49807205ce4d355092ef5a8a18f56e8913cf4a201fbe287825b095693c2177533610449565b610ad7576040517fde9717bc0000000000000000000000000000000000000000000000000000000081523360048201526024016106ad565b610ae18383611df9565b50919050565b61086683838360405180602001604052806000815250610f1d565b610b2c7fa49807205ce4d355092ef5a8a18f56e8913cf4a201fbe287825b095693c2177533610449565b610b64576040517fbfc55edc0000000000000000000000000000000000000000000000000000000081523360048201526024016106ad565b610b6d81611fc7565b50565b6000610b7b600a5490565b8210610c09576040517f08c379a000000000000000000000000000000000000000000000000000000000815260206004820152602c60248201527f455243373231456e756d657261626c653a20676c6f62616c20696e646578206f60448201527f7574206f6620626f756e6473000000000000000000000000000000000000000060648201526084016106ad565b600a8281548110610c1c57610c1c6137cd565b90600052602060002001549050919050565b60008181526004602052604081205473ffffffffffffffffffffffffffffffffffffffff1680610568576040517f08c379a000000000000000000000000000000000000000000000000000000000815260206004820152602960248201527f4552433732313a206f776e657220717565727920666f72206e6f6e657869737460448201527f656e7420746f6b656e000000000000000000000000000000000000000000000060648201526084016106ad565b600073ffffffffffffffffffffffffffffffffffffffff8216610d85576040517f08c379a000000000000000000000000000000000000000000000000000000000815260206004820152602a60248201527f4552433732313a2062616c616e636520717565727920666f7220746865207a6560448201527f726f20616464726573730000000000000000000000000000000000000000000060648201526084016106ad565b5073ffffffffffffffffffffffffffffffffffffffff1660009081526005602052604090205490565b73ffffffffffffffffffffffffffffffffffffffff81166000908152600d6020526040812054610568565b6000828152600160205260408120610df190836120a0565b9392505050565b60606003805461057d90613780565b3373ffffffffffffffffffffffffffffffffffffffff831603610e86576040517f08c379a000000000000000000000000000000000000000000000000000000000815260206004820152601960248201527f4552433732313a20617070726f766520746f2063616c6c65720000000000000060448201526064016106ad565b33600081815260076020908152604080832073ffffffffffffffffffffffffffffffffffffffff87168085529083529281902080547fffffffffffffffffffffffffffffffffffffffffffffffffffffffffffffff001686151590811790915590519081529192917f17307eab39ab6107e8899845ad3d59bd9653f200f220920489ca2b5937696c31910160405180910390a35050565b610f27338361180c565b610fb3576040517f08c379a000000000000000000000000000000000000000000000000000000000815260206004820152603160248201527f4552433732313a207472616e736665722063616c6c6572206973206e6f74206f60448201527f776e6572206e6f7220617070726f76656400000000000000000000000000000060648201526084016106ad565b610fbf848484846120ac565b50505050565b600e5474010000000000000000000000000000000000000000900460ff161561101a576040517f8707bbd800000000000000000000000000000000000000000000000000000000815260040160405180910390fd5b600e5473ffffffffffffffffffffffffffffffffffffffff163373ffffffffffffffffffffffffffffffffffffffff1614611081576040517f1afde41400000000000000000000000000000000000000000000000000000000815260040160405180910390fd5b6110ab7fa49807205ce4d355092ef5a8a18f56e8913cf4a201fbe287825b095693c217758261214f565b6110d57fa49807205ce4d355092ef5a8a18f56e8913cf4a201fbe287825b095693c2177580612159565b600e80547fffffffffffffffffffffff0000000000000000000000000000000000000000001673ffffffffffffffffffffffffffffffffffffffff9092169190911774010000000000000000000000000000000000000000179055565b60008181526004602052604090205460609073ffffffffffffffffffffffffffffffffffffffff166111e6576040517f08c379a000000000000000000000000000000000000000000000000000000000815260206004820152602f60248201527f4552433732314d657461646174613a2055524920717565727920666f72206e6f60448201527f6e6578697374656e7420746f6b656e000000000000000000000000000000000060648201526084016106ad565b60006111fd60408051602081019091526000815290565b9050600081511161121d5760405180602001604052806000815250610df1565b80611227846121a4565b6040516020016112389291906137fc565b6040516020818303038152906040529392505050565b6000818152600160205260408120610568906122d9565b834211156112a2576040517f37c28188000000000000000000000000000000000000000000000000000000008152600481018590526024016106ad565b6112ab85610c2e565b73ffffffffffffffffffffffffffffffffffffffff168773ffffffffffffffffffffffffffffffffffffffff1614611327576040517f285d879e00000000000000000000000000000000000000000000000000000000815273ffffffffffffffffffffffffffffffffffffffff881660048201526024016106ad565b60007f00000000000000000000000000000000000000000000000000000000000000008888886113818c73ffffffffffffffffffffffffffffffffffffffff166000908152600d6020526040902080546001810190915590565b60408051602081019690965273ffffffffffffffffffffffffffffffffffffffff94851690860152929091166060840152608083015260a082015260c0810186905260e00160405160208183030381529060405280519060200120905060006113e9826122e3565b905060006113f98287878761234c565b90508973ffffffffffffffffffffffffffffffffffffffff168173ffffffffffffffffffffffffffffffffffffffff1614611478576040517f5722542f00000000000000000000000000000000000000000000000000000000815273ffffffffffffffffffffffffffffffffffffffff821660048201526024016106ad565b61148289896114f7565b50505050505050505050565b610a5b8282612374565b80546001019055565b60007fffffffff0000000000000000000000000000000000000000000000000000000082167f780e9d6300000000000000000000000000000000000000000000000000000000148061056857506105688261239a565b600081815260066020526040902080547fffffffffffffffffffffffff00000000000000000000000000000000000000001673ffffffffffffffffffffffffffffffffffffffff8416908117909155819061155182610c2e565b73ffffffffffffffffffffffffffffffffffffffff167f8c5be1e5ebec7d5bd14f71427d1e84f3dd0314c0f7b2291e5b200ac8c7c3b92560405160405180910390a45050565b60008281526020818152604080832073ffffffffffffffffffffffffffffffffffffffff8516845290915290205460ff166108a4576115ed8173ffffffffffffffffffffffffffffffffffffffff16601461243c565b6115f883602061243c565b60405160200161160992919061382b565b604080517fffffffffffffffffffffffffffffffffffffffffffffffffffffffffffffffe0818403018152908290527f08c379a00000000000000000000000000000000000000000000000000000000082526106ad91600401613441565b600c5460ff16156116d4576040517f08c379a000000000000000000000000000000000000000000000000000000000815260206004820152601060248201527f5061757361626c653a207061757365640000000000000000000000000000000060448201526064016106ad565b600c80547fffffffffffffffffffffffffffffffffffffffffffffffffffffffffffffff001660011790557f62e78cea01bee320cd4e420270b5ea74000d11b0c9f74754ebdbfc544b05a2586117273390565b60405173ffffffffffffffffffffffffffffffffffffffff909116815260200160405180910390a1565b600c5460ff166117bd576040517f08c379a000000000000000000000000000000000000000000000000000000000815260206004820152601460248201527f5061757361626c653a206e6f742070617573656400000000000000000000000060448201526064016106ad565b600c80547fffffffffffffffffffffffffffffffffffffffffffffffffffffffffffffff001690557f5db9ee0a495bf2e6ff9c91a7834c1ba4fdd244a5e8aa4e537bd38aeae4b073aa33611727565b60008181526004602052604081205473ffffffffffffffffffffffffffffffffffffffff166118bd576040517f08c379a000000000000000000000000000000000000000000000000000000000815260206004820152602c60248201527f4552433732313a206f70657261746f7220717565727920666f72206e6f6e657860448201527f697374656e7420746f6b656e000000000000000000000000000000000000000060648201526084016106ad565b60006118c883610c2e565b90508073ffffffffffffffffffffffffffffffffffffffff168473ffffffffffffffffffffffffffffffffffffffff16148061193757508373ffffffffffffffffffffffffffffffffffffffff1661191f84610600565b73ffffffffffffffffffffffffffffffffffffffff16145b80611974575073ffffffffffffffffffffffffffffffffffffffff80821660009081526007602090815260408083209388168352929052205460ff165b949350505050565b8273ffffffffffffffffffffffffffffffffffffffff1661199c82610c2e565b73ffffffffffffffffffffffffffffffffffffffff1614611a3f576040517f08c379a000000000000000000000000000000000000000000000000000000000815260206004820152602960248201527f4552433732313a207472616e73666572206f6620746f6b656e2074686174206960448201527f73206e6f74206f776e000000000000000000000000000000000000000000000060648201526084016106ad565b73ffffffffffffffffffffffffffffffffffffffff8216611ae1576040517f08c379a0000000000000000000000000000000000000000000000000000000008152602060048201526024808201527f4552433732313a207472616e7366657220746f20746865207a65726f2061646460448201527f726573730000000000000000000000000000000000000000000000000000000060648201526084016106ad565b611aec83838361267f565b611af76000826114f7565b73ffffffffffffffffffffffffffffffffffffffff83166000908152600560205260408120805460019290611b2d9084906138db565b909155505073ffffffffffffffffffffffffffffffffffffffff82166000908152600560205260408120805460019290611b689084906138ee565b909155505060008181526004602052604080822080547fffffffffffffffffffffffff00000000000000000000000000000000000000001673ffffffffffffffffffffffffffffffffffffffff86811691821790925591518493918716917fddf252ad1be2c89b69c2b068fc378daa952ba7f163c4a11628f55a4df523b3ef91a4505050565b600082815260208190526040902060010154611c0a8133611597565b61086683836126c7565b6000610df18373ffffffffffffffffffffffffffffffffffffffff84166127b7565b60007f00000000000000000000000000000000000000000000000000000000000000004603611c8457507f000000000000000000000000000000000000000000000000000000000000000090565b50604080517f00000000000000000000000000000000000000000000000000000000000000006020808301919091527f0000000000000000000000000000000000000000000000000000000000000000828401527f000000000000000000000000000000000000000000000000000000000000000060608301524660808301523060a0808401919091528351808403909101815260c0909201909252805191012090565b73ffffffffffffffffffffffffffffffffffffffff81163314611dcd576040517f08c379a000000000000000000000000000000000000000000000000000000000815260206004820152602f60248201527f416363657373436f6e74726f6c3a2063616e206f6e6c792072656e6f756e636560448201527f20726f6c657320666f722073656c66000000000000000000000000000000000060648201526084016106ad565b6108a48282612806565b6000610df18373ffffffffffffffffffffffffffffffffffffffff84166128bd565b73ffffffffffffffffffffffffffffffffffffffff8216611e76576040517f08c379a000000000000000000000000000000000000000000000000000000000815260206004820181905260248201527f4552433732313a206d696e7420746f20746865207a65726f206164647265737360448201526064016106ad565b60008181526004602052604090205473ffffffffffffffffffffffffffffffffffffffff1615611f02576040517f08c379a000000000000000000000000000000000000000000000000000000000815260206004820152601c60248201527f4552433732313a20746f6b656e20616c7265616479206d696e7465640000000060448201526064016106ad565b611f0e6000838361267f565b73ffffffffffffffffffffffffffffffffffffffff82166000908152600560205260408120805460019290611f449084906138ee565b909155505060008181526004602052604080822080547fffffffffffffffffffffffff00000000000000000000000000000000000000001673ffffffffffffffffffffffffffffffffffffffff861690811790915590518392907fddf252ad1be2c89b69c2b068fc378daa952ba7f163c4a11628f55a4df523b3ef908290a45050565b6000611fd282610c2e565b9050611fe08160008461267f565b611feb6000836114f7565b73ffffffffffffffffffffffffffffffffffffffff811660009081526005602052604081208054600192906120219084906138db565b909155505060008281526004602052604080822080547fffffffffffffffffffffffff00000000000000000000000000000000000000001690555183919073ffffffffffffffffffffffffffffffffffffffff8416907fddf252ad1be2c89b69c2b068fc378daa952ba7f163c4a11628f55a4df523b3ef908390a45050565b6000610df183836129b0565b6120b784848461197c565b6120c3848484846129da565b610fbf576040517f08c379a000000000000000000000000000000000000000000000000000000000815260206004820152603260248201527f4552433732313a207472616e7366657220746f206e6f6e20455243373231526560448201527f63656976657220696d706c656d656e746572000000000000000000000000000060648201526084016106ad565b61095b8282612bca565b600082815260208190526040808220600101805490849055905190918391839186917fbd79b86ffe0ab8e8776151514217cd7cacd52c909f66475c3af44e129f0b00ff9190a4505050565b6060816000036121e757505060408051808201909152600181527f3000000000000000000000000000000000000000000000000000000000000000602082015290565b8160005b811561221157806121fb81613901565b915061220a9050600a83613968565b91506121eb565b60008167ffffffffffffffff81111561222c5761222c6135ba565b6040519080825280601f01601f191660200182016040528015612256576020820181803683370190505b5090505b84156119745761226b6001836138db565b9150612278600a8661397c565b6122839060306138ee565b60f81b818381518110612298576122986137cd565b60200101907effffffffffffffffffffffffffffffffffffffffffffffffffffffffffffff1916908160001a9053506122d2600a86613968565b945061225a565b6000610568825490565b60006105686122f0611c36565b836040517f19010000000000000000000000000000000000000000000000000000000000006020820152602281018390526042810182905260009060620160405160208183030381529060405280519060200120905092915050565b600080600061235d87878787612bd4565b9150915061236a81612cec565b5095945050505050565b6000828152602081905260409020600101546123908133611597565b6108668383612806565b60007fffffffff0000000000000000000000000000000000000000000000000000000082167f80ac58cd00000000000000000000000000000000000000000000000000000000148061242d57507fffffffff0000000000000000000000000000000000000000000000000000000082167f5b5e139f00000000000000000000000000000000000000000000000000000000145b80610568575061056882612f40565b6060600061244b836002613990565b6124569060026138ee565b67ffffffffffffffff81111561246e5761246e6135ba565b6040519080825280601f01601f191660200182016040528015612498576020820181803683370190505b5090507f3000000000000000000000000000000000000000000000000000000000000000816000815181106124cf576124cf6137cd565b60200101907effffffffffffffffffffffffffffffffffffffffffffffffffffffffffffff1916908160001a9053507f780000000000000000000000000000000000000000000000000000000000000081600181518110612532576125326137cd565b60200101907effffffffffffffffffffffffffffffffffffffffffffffffffffffffffffff1916908160001a905350600061256e846002613990565b6125799060016138ee565b90505b6001811115612616577f303132333435363738396162636465660000000000000000000000000000000085600f16601081106125ba576125ba6137cd565b1a60f81b8282815181106125d0576125d06137cd565b60200101907effffffffffffffffffffffffffffffffffffffffffffffffffffffffffffff1916908160001a90535060049490941c9361260f816139a7565b905061257c565b508315610df1576040517f08c379a000000000000000000000000000000000000000000000000000000000815260206004820181905260248201527f537472696e67733a20686578206c656e67746820696e73756666696369656e7460448201526064016106ad565b600c5460ff16156126bc576040517ff396fbc600000000000000000000000000000000000000000000000000000000815260040160405180910390fd5b610866838383612f96565b60008281526020818152604080832073ffffffffffffffffffffffffffffffffffffffff8516845290915290205460ff166108a45760008281526020818152604080832073ffffffffffffffffffffffffffffffffffffffff85168452909152902080547fffffffffffffffffffffffffffffffffffffffffffffffffffffffffffffff001660011790556127593390565b73ffffffffffffffffffffffffffffffffffffffff168173ffffffffffffffffffffffffffffffffffffffff16837f2f8788117e7eff1d82e926ec794901d17c78024a50270940304540a733656f0d60405160405180910390a45050565b60008181526001830160205260408120546127fe57508154600181810184556000848152602080822090930184905584548482528286019093526040902091909155610568565b506000610568565b60008281526020818152604080832073ffffffffffffffffffffffffffffffffffffffff8516845290915290205460ff16156108a45760008281526020818152604080832073ffffffffffffffffffffffffffffffffffffffff8516808552925280832080547fffffffffffffffffffffffffffffffffffffffffffffffffffffffffffffff0016905551339285917ff6391f5c32d9c69d2a47ea670b442974b53935d1edc7fd64eb21e047a839171b9190a45050565b600081815260018301602052604081205480156129a65760006128e16001836138db565b85549091506000906128f5906001906138db565b905081811461295a576000866000018281548110612915576129156137cd565b9060005260206000200154905080876000018481548110612938576129386137cd565b6000918252602080832090910192909255918252600188019052604090208390555b855486908061296b5761296b6139dc565b600190038181906000526020600020016000905590558560010160008681526020019081526020016000206000905560019350505050610568565b6000915050610568565b60008260000182815481106129c7576129c76137cd565b9060005260206000200154905092915050565b600073ffffffffffffffffffffffffffffffffffffffff84163b15612bc2576040517f150b7a0200000000000000000000000000000000000000000000000000000000815273ffffffffffffffffffffffffffffffffffffffff85169063150b7a0290612a51903390899088908890600401613a0b565b6020604051808303816000875af1925050508015612aaa575060408051601f3d9081017fffffffffffffffffffffffffffffffffffffffffffffffffffffffffffffffe0168201909252612aa791810190613a54565b60015b612b77573d808015612ad8576040519150601f19603f3d011682016040523d82523d6000602084013e612add565b606091505b508051600003612b6f576040517f08c379a000000000000000000000000000000000000000000000000000000000815260206004820152603260248201527f4552433732313a207472616e7366657220746f206e6f6e20455243373231526560448201527f63656976657220696d706c656d656e746572000000000000000000000000000060648201526084016106ad565b805181602001fd5b7fffffffff00000000000000000000000000000000000000000000000000000000167f150b7a0200000000000000000000000000000000000000000000000000000000149050611974565b506001611974565b6108a482826126c7565b6000807f7fffffffffffffffffffffffffffffff5d576e7357a4501ddfe92f46681b20a0831115612c0b5750600090506003612ce3565b8460ff16601b14158015612c2357508460ff16601c14155b15612c345750600090506004612ce3565b6040805160008082526020820180845289905260ff881692820192909252606081018690526080810185905260019060a0016020604051602081039080840390855afa158015612c88573d6000803e3d6000fd5b50506040517fffffffffffffffffffffffffffffffffffffffffffffffffffffffffffffffe0015191505073ffffffffffffffffffffffffffffffffffffffff8116612cdc57600060019250925050612ce3565b9150600090505b94509492505050565b6000816004811115612d0057612d00613a71565b03612d085750565b6001816004811115612d1c57612d1c613a71565b03612d83576040517f08c379a000000000000000000000000000000000000000000000000000000000815260206004820152601860248201527f45434453413a20696e76616c6964207369676e6174757265000000000000000060448201526064016106ad565b6002816004811115612d9757612d97613a71565b03612dfe576040517f08c379a000000000000000000000000000000000000000000000000000000000815260206004820152601f60248201527f45434453413a20696e76616c6964207369676e6174757265206c656e6774680060448201526064016106ad565b6003816004811115612e1257612e12613a71565b03612e9f576040517f08c379a000000000000000000000000000000000000000000000000000000000815260206004820152602260248201527f45434453413a20696e76616c6964207369676e6174757265202773272076616c60448201527f756500000000000000000000000000000000000000000000000000000000000060648201526084016106ad565b6004816004811115612eb357612eb3613a71565b03610b6d576040517f08c379a000000000000000000000000000000000000000000000000000000000815260206004820152602260248201527f45434453413a20696e76616c6964207369676e6174757265202776272076616c60448201527f756500000000000000000000000000000000000000000000000000000000000060648201526084016106ad565b60007fffffffff0000000000000000000000000000000000000000000000000000000082167f5a05180f000000000000000000000000000000000000000000000000000000001480610568575061056882613034565b612fa18383836130cb565b600c5460ff1615610866576040517f08c379a000000000000000000000000000000000000000000000000000000000815260206004820152602b60248201527f4552433732315061757361626c653a20746f6b656e207472616e73666572207760448201527f68696c652070617573656400000000000000000000000000000000000000000060648201526084016106ad565b60007fffffffff0000000000000000000000000000000000000000000000000000000082167f7965db0b00000000000000000000000000000000000000000000000000000000148061056857507f01ffc9a7000000000000000000000000000000000000000000000000000000007fffffffff00000000000000000000000000000000000000000000000000000000831614610568565b73ffffffffffffffffffffffffffffffffffffffff83166131335761312e81600a80546000838152600b60205260408120829055600182018355919091527fc65a7bb8d6351c1cf70c95a316cc6a92839c986682d98bc35f958f4883f9d2a80155565b613170565b8173ffffffffffffffffffffffffffffffffffffffff168373ffffffffffffffffffffffffffffffffffffffff16146131705761317083826131d1565b73ffffffffffffffffffffffffffffffffffffffff82166131945761086681613288565b8273ffffffffffffffffffffffffffffffffffffffff168273ffffffffffffffffffffffffffffffffffffffff1614610866576108668282613337565b600060016131de84610ce0565b6131e891906138db565b6000838152600960205260409020549091508082146132485773ffffffffffffffffffffffffffffffffffffffff841660009081526008602090815260408083208584528252808320548484528184208190558352600990915290208190555b50600091825260096020908152604080842084905573ffffffffffffffffffffffffffffffffffffffff9094168352600881528383209183525290812055565b600a5460009061329a906001906138db565b6000838152600b6020526040812054600a80549394509092849081106132c2576132c26137cd565b9060005260206000200154905080600a83815481106132e3576132e36137cd565b6000918252602080832090910192909255828152600b9091526040808220849055858252812055600a80548061331b5761331b6139dc565b6001900381819060005260206000200160009055905550505050565b600061334283610ce0565b73ffffffffffffffffffffffffffffffffffffffff9093166000908152600860209081526040808320868452825280832085905593825260099052919091209190915550565b7fffffffff0000000000000000000000000000000000000000000000000000000081168114610b6d57600080fd5b6000602082840312156133c857600080fd5b8135610df181613388565b60005b838110156133ee5781810151838201526020016133d6565b50506000910152565b6000815180845261340f8160208601602086016133d3565b601f017fffffffffffffffffffffffffffffffffffffffffffffffffffffffffffffffe0169290920160200192915050565b602081526000610df160208301846133f7565b60006020828403121561346657600080fd5b5035919050565b803573ffffffffffffffffffffffffffffffffffffffff8116811461349157600080fd5b919050565b600080604083850312156134a957600080fd5b6134b28361346d565b946020939093013593505050565b8035801515811461349157600080fd5b6000602082840312156134e257600080fd5b610df1826134c0565b60008060006060848603121561350057600080fd5b6135098461346d565b92506135176020850161346d565b9150604084013590509250925092565b6000806040838503121561353a57600080fd5b8235915061354a6020840161346d565b90509250929050565b60006020828403121561356557600080fd5b610df18261346d565b6000806040838503121561358157600080fd5b50508035926020909101359150565b600080604083850312156135a357600080fd5b6135ac8361346d565b915061354a602084016134c0565b7f4e487b7100000000000000000000000000000000000000000000000000000000600052604160045260246000fd5b600080600080608085870312156135ff57600080fd5b6136088561346d565b93506136166020860161346d565b925060408501359150606085013567ffffffffffffffff8082111561363a57600080fd5b818701915087601f83011261364e57600080fd5b813581811115613660576136606135ba565b604051601f82017fffffffffffffffffffffffffffffffffffffffffffffffffffffffffffffffe0908116603f011681019083821181831017156136a6576136a66135ba565b816040528281528a60208487010111156136bf57600080fd5b82602086016020830137600060208483010152809550505050505092959194509250565b600080600080600080600060e0888a0312156136fe57600080fd5b6137078861346d565b96506137156020890161346d565b95506040880135945060608801359350608088013560ff8116811461373957600080fd5b9699959850939692959460a0840135945060c09093013592915050565b6000806040838503121561376957600080fd5b6137728361346d565b915061354a6020840161346d565b600181811c9082168061379457607f821691505b602082108103610ae1577f4e487b7100000000000000000000000000000000000000000000000000000000600052602260045260246000fd5b7f4e487b7100000000000000000000000000000000000000000000000000000000600052603260045260246000fd5b6000835161380e8184602088016133d3565b8351908301906138228183602088016133d3565b01949350505050565b7f416363657373436f6e74726f6c3a206163636f756e74200000000000000000008152600083516138638160178501602088016133d3565b7f206973206d697373696e6720726f6c652000000000000000000000000000000060179184019182015283516138a08160288401602088016133d3565b01602801949350505050565b7f4e487b7100000000000000000000000000000000000000000000000000000000600052601160045260246000fd5b81810381811115610568576105686138ac565b80820180821115610568576105686138ac565b60007fffffffffffffffffffffffffffffffffffffffffffffffffffffffffffffffff8203613932576139326138ac565b5060010190565b7f4e487b7100000000000000000000000000000000000000000000000000000000600052601260045260246000fd5b60008261397757613977613939565b500490565b60008261398b5761398b613939565b500690565b8082028115828204841417610568576105686138ac565b6000816139b6576139b66138ac565b507fffffffffffffffffffffffffffffffffffffffffffffffffffffffffffffffff0190565b7f4e487b7100000000000000000000000000000000000000000000000000000000600052603160045260246000fd5b600073ffffffffffffffffffffffffffffffffffffffff808716835280861660208401525083604083015260806060830152613a4a60808301846133f7565b9695505050505050565b600060208284031215613a6657600080fd5b8151610df181613388565b7f4e487b7100000000000000000000000000000000000000000000000000000000600052602160045260246000fdfea164736f6c6343000812000a",
  "linkReferences": {},
  "deployedLinkReferences": {}
}