{
  "_format": "hh-sol-artifact-1",
  "contractName": "MerkleRewards",
  "sourceName": "contracts/external/council/libraries/MerkleRewards.sol",
  "abi": [
    {
      "inputs": [
        {
          "internalType": "bytes32",
          "name": "_rewardsRoot",
          "type": "bytes32"
        },
        {
          "internalType": "contract IERC20",
          "name": "_token",
          "type": "address"
        },
        {
          "internalType": "contract ILockingVault",
          "name": "_lockingVault",
          "type": "address"
        }
      ],
      "stateMutability": "nonpayable",
      "type": "constructor"
    },
    {
      "inputs": [
        {
          "internalType": "uint256",
          "name": "amount",
          "type": "uint256"
        },
        {
          "internalType": "uint256",
          "name": "totalGrant",
          "type": "uint256"
        },
        {
          "internalType": "bytes32[]",
          "name": "merkleProof",
          "type": "bytes32[]"
        },
        {
          "internalType": "address",
          "name": "destination",
          "type": "address"
        }
      ],
      "name": "claim",
      "outputs": [],
      "stateMutability": "nonpayable",
      "type": "function"
    },
    {
      "inputs": [
        {
          "internalType": "uint256",
          "name": "amount",
          "type": "uint256"
        },
        {
          "internalType": "address",
          "name": "delegate",
          "type": "address"
        },
        {
          "internalType": "uint256",
          "name": "totalGrant",
          "type": "uint256"
        },
        {
          "internalType": "bytes32[]",
          "name": "merkleProof",
          "type": "bytes32[]"
        },
        {
          "internalType": "address",
          "name": "destination",
          "type": "address"
        }
      ],
      "name": "claimAndDelegate",
      "outputs": [],
      "stateMutability": "nonpayable",
      "type": "function"
    },
    {
      "inputs": [
        {
          "internalType": "address",
          "name": "",
          "type": "address"
        }
      ],
      "name": "claimed",
      "outputs": [
        {
          "internalType": "uint256",
          "name": "",
          "type": "uint256"
        }
      ],
      "stateMutability": "view",
      "type": "function"
    },
    {
      "inputs": [],
      "name": "lockingVault",
      "outputs": [
        {
          "internalType": "contract ILockingVault",
          "name": "",
          "type": "address"
        }
      ],
      "stateMutability": "view",
      "type": "function"
    },
    {
      "inputs": [],
      "name": "rewardsRoot",
      "outputs": [
        {
          "internalType": "bytes32",
          "name": "",
          "type": "bytes32"
        }
      ],
      "stateMutability": "view",
      "type": "function"
    },
    {
      "inputs": [],
      "name": "token",
      "outputs": [
        {
          "internalType": "contract IERC20",
          "name": "",
          "type": "address"
        }
      ],
      "stateMutability": "view",
      "type": "function"
    }
  ],
  "bytecode": "0x60a060405234801561001057600080fd5b5060405161099538038061099583398101604081905261002f916100ed565b60008390556001600160a01b038281166080819052600280546001600160a01b031916928416928317905560405163095ea7b360e01b81526004810192909252600019602483015284918491849163095ea7b3906044016020604051808303816000875af11580156100a5573d6000803e3d6000fd5b505050506040513d601f19601f820116820180604052508101906100c99190610130565b50505050505050610159565b6001600160a01b03811681146100ea57600080fd5b50565b60008060006060848603121561010257600080fd5b835192506020840151610114816100d5565b6040850151909250610125816100d5565b809150509250925092565b60006020828403121561014257600080fd5b8151801515811461015257600080fd5b9392505050565b60805161081a61017b6000396000818161012501526101d1015261081a6000f3fe608060405234801561001057600080fd5b50600436106100725760003560e01c8063c884ef8311610050578063c884ef83146100bb578063d2a04345146100db578063fc0c546a1461012057600080fd5b806309ed28f1146100775780630a33e8c21461008c578063217863b71461009f575b600080fd5b61008a61008536600461063b565b610147565b005b61008a61009a3660046106a3565b610246565b6100a860005481565b6040519081526020015b60405180910390f35b6100a86100c936600461071a565b60016020526000908152604090205481565b6002546100fb9073ffffffffffffffffffffffffffffffffffffffff1681565b60405173ffffffffffffffffffffffffffffffffffffffff90911681526020016100b2565b6100fb7f000000000000000000000000000000000000000000000000000000000000000081565b61018585858585808060200260200160405190810160405280939291908181526020018383602002808284376000920191909152506103a292505050565b6040517fa9059cbb00000000000000000000000000000000000000000000000000000000815273ffffffffffffffffffffffffffffffffffffffff8281166004830152602482018790527f0000000000000000000000000000000000000000000000000000000000000000169063a9059cbb906044016020604051808303816000875af115801561021a573d6000803e3d6000fd5b505050506040513d601f19601f8201168201806040525081019061023e919061073c565b505050505050565b73ffffffffffffffffffffffffffffffffffffffff85166102c8576040517f08c379a000000000000000000000000000000000000000000000000000000000815260206004820152601460248201527f5a65726f20616464722064656c65676174696f6e00000000000000000000000060448201526064015b60405180910390fd5b61030686858585808060200260200160405190810160405280939291908181526020018383602002808284376000920191909152506103a292505050565b6002546040517ff45346dc00000000000000000000000000000000000000000000000000000000815273ffffffffffffffffffffffffffffffffffffffff83811660048301526024820189905287811660448301529091169063f45346dc90606401600060405180830381600087803b15801561038257600080fd5b505af1158015610396573d6000803e3d6000fd5b50505050505050505050565b6040517fffffffffffffffffffffffffffffffffffffffff0000000000000000000000003360601b166020820152603481018390526000906054016040516020818303038152906040528051906020012090506104028260005483610517565b610468576040517f08c379a000000000000000000000000000000000000000000000000000000000815260206004820152600d60248201527f496e76616c69642050726f6f660000000000000000000000000000000000000060448201526064016102bf565b33600090815260016020526040902054839061048590869061078d565b11156104ed576040517f08c379a000000000000000000000000000000000000000000000000000000000815260206004820152601060248201527f436c61696d656420746f6f206d7563680000000000000000000000000000000060448201526064016102bf565b336000908152600160205260408120805486929061050c90849061078d565b909155505050505050565b600081815b85518110156105bb576000868281518110610539576105396107a6565b6020026020010151905080831161057b5760408051602081018590529081018290526060016040516020818303038152906040528051906020012092506105a8565b60408051602081018390529081018490526060016040516020818303038152906040528051906020012092505b50806105b3816107d5565b91505061051c565b509092149392505050565b60008083601f8401126105d857600080fd5b50813567ffffffffffffffff8111156105f057600080fd5b6020830191508360208260051b850101111561060b57600080fd5b9250929050565b803573ffffffffffffffffffffffffffffffffffffffff8116811461063657600080fd5b919050565b60008060008060006080868803121561065357600080fd5b8535945060208601359350604086013567ffffffffffffffff81111561067857600080fd5b610684888289016105c6565b9094509250610697905060608701610612565b90509295509295909350565b60008060008060008060a087890312156106bc57600080fd5b863595506106cc60208801610612565b945060408701359350606087013567ffffffffffffffff8111156106ef57600080fd5b6106fb89828a016105c6565b909450925061070e905060808801610612565b90509295509295509295565b60006020828403121561072c57600080fd5b61073582610612565b9392505050565b60006020828403121561074e57600080fd5b8151801515811461073557600080fd5b7f4e487b7100000000000000000000000000000000000000000000000000000000600052601160045260246000fd5b808201808211156107a0576107a061075e565b92915050565b7f4e487b7100000000000000000000000000000000000000000000000000000000600052603260045260246000fd5b60007fffffffffffffffffffffffffffffffffffffffffffffffffffffffffffffffff82036108065761080661075e565b506001019056fea164736f6c6343000812000a",
  "linkReferences": {},
  "deployedLinkReferences": {}
}