{
  "_format": "hh-sol-artifact-1",
  "contractName": "CoreVoting",
  "sourceName": "contracts/external/council/CoreVoting.sol",
  "abi": [
    {
      "inputs": [
        {
          "internalType": "address",
          "name": "_timelock",
          "type": "address"
        },
        {
          "internalType": "uint256",
          "name": "_baseQuorum",
          "type": "uint256"
        },
        {
          "internalType": "uint256",
          "name": "_minProposalPower",
          "type": "uint256"
        },
        {
          "internalType": "address",
          "name": "_gsc",
          "type": "address"
        },
        {
          "internalType": "address[]",
          "name": "votingVaults",
          "type": "address[]"
        }
      ],
      "stateMutability": "nonpayable",
      "type": "constructor"
    },
    {
      "anonymous": false,
      "inputs": [
        {
          "indexed": false,
          "internalType": "uint256",
          "name": "proposalId",
          "type": "uint256"
        },
        {
          "indexed": false,
          "internalType": "uint256",
          "name": "created",
          "type": "uint256"
        },
        {
          "indexed": false,
          "internalType": "uint256",
          "name": "execution",
          "type": "uint256"
        },
        {
          "indexed": false,
          "internalType": "uint256",
          "name": "expiration",
          "type": "uint256"
        }
      ],
      "name": "ProposalCreated",
      "type": "event"
    },
    {
      "anonymous": false,
      "inputs": [
        {
          "indexed": false,
          "internalType": "uint256",
          "name": "proposalId",
          "type": "uint256"
        }
      ],
      "name": "ProposalExecuted",
      "type": "event"
    },
    {
      "anonymous": false,
      "inputs": [
        {
          "indexed": true,
          "internalType": "address",
          "name": "voter",
          "type": "address"
        },
        {
          "indexed": true,
          "internalType": "uint256",
          "name": "proposalId",
          "type": "uint256"
        },
        {
          "components": [
            {
              "internalType": "uint128",
              "name": "votingPower",
              "type": "uint128"
            },
            {
              "internalType": "enum CoreVoting.Ballot",
              "name": "castBallot",
              "type": "uint8"
            }
          ],
          "indexed": false,
          "internalType": "struct CoreVoting.Vote",
          "name": "vote",
          "type": "tuple"
        }
      ],
      "name": "Voted",
      "type": "event"
    },
    {
      "inputs": [],
      "name": "DAY_IN_BLOCKS",
      "outputs": [
        {
          "internalType": "uint256",
          "name": "",
          "type": "uint256"
        }
      ],
      "stateMutability": "view",
      "type": "function"
    },
    {
      "inputs": [
        {
          "internalType": "address",
          "name": "",
          "type": "address"
        }
      ],
      "name": "approvedVaults",
      "outputs": [
        {
          "internalType": "bool",
          "name": "",
          "type": "bool"
        }
      ],
      "stateMutability": "view",
      "type": "function"
    },
    {
      "inputs": [
        {
          "internalType": "address",
          "name": "who",
          "type": "address"
        }
      ],
      "name": "authorize",
      "outputs": [],
      "stateMutability": "nonpayable",
      "type": "function"
    },
    {
      "inputs": [
        {
          "internalType": "address",
          "name": "",
          "type": "address"
        }
      ],
      "name": "authorized",
      "outputs": [
        {
          "internalType": "bool",
          "name": "",
          "type": "bool"
        }
      ],
      "stateMutability": "view",
      "type": "function"
    },
    {
      "inputs": [],
      "name": "baseQuorum",
      "outputs": [
        {
          "internalType": "uint256",
          "name": "",
          "type": "uint256"
        }
      ],
      "stateMutability": "view",
      "type": "function"
    },
    {
      "inputs": [
        {
          "internalType": "uint256",
          "name": "_extraVoteTime",
          "type": "uint256"
        }
      ],
      "name": "changeExtraVotingTime",
      "outputs": [],
      "stateMutability": "nonpayable",
      "type": "function"
    },
    {
      "inputs": [
        {
          "internalType": "address",
          "name": "vault",
          "type": "address"
        },
        {
          "internalType": "bool",
          "name": "isValid",
          "type": "bool"
        }
      ],
      "name": "changeVaultStatus",
      "outputs": [],
      "stateMutability": "nonpayable",
      "type": "function"
    },
    {
      "inputs": [
        {
          "internalType": "address",
          "name": "who",
          "type": "address"
        }
      ],
      "name": "deauthorize",
      "outputs": [],
      "stateMutability": "nonpayable",
      "type": "function"
    },
    {
      "inputs": [
        {
          "internalType": "uint256",
          "name": "proposalId",
          "type": "uint256"
        },
        {
          "internalType": "address[]",
          "name": "targets",
          "type": "address[]"
        },
        {
          "internalType": "bytes[]",
          "name": "calldatas",
          "type": "bytes[]"
        }
      ],
      "name": "execute",
      "outputs": [],
      "stateMutability": "nonpayable",
      "type": "function"
    },
    {
      "inputs": [],
      "name": "extraVoteTime",
      "outputs": [
        {
          "internalType": "uint256",
          "name": "",
          "type": "uint256"
        }
      ],
      "stateMutability": "view",
      "type": "function"
    },
    {
      "inputs": [
        {
          "internalType": "uint256",
          "name": "proposalId",
          "type": "uint256"
        }
      ],
      "name": "getProposalVotingPower",
      "outputs": [
        {
          "internalType": "uint128[3]",
          "name": "",
          "type": "uint128[3]"
        }
      ],
      "stateMutability": "view",
      "type": "function"
    },
    {
      "inputs": [
        {
          "internalType": "address",
          "name": "who",
          "type": "address"
        }
      ],
      "name": "isAuthorized",
      "outputs": [
        {
          "internalType": "bool",
          "name": "",
          "type": "bool"
        }
      ],
      "stateMutability": "view",
      "type": "function"
    },
    {
      "inputs": [],
      "name": "lockDuration",
      "outputs": [
        {
          "internalType": "uint256",
          "name": "",
          "type": "uint256"
        }
      ],
      "stateMutability": "view",
      "type": "function"
    },
    {
      "inputs": [],
      "name": "minProposalPower",
      "outputs": [
        {
          "internalType": "uint256",
          "name": "",
          "type": "uint256"
        }
      ],
      "stateMutability": "view",
      "type": "function"
    },
    {
      "inputs": [],
      "name": "owner",
      "outputs": [
        {
          "internalType": "address",
          "name": "",
          "type": "address"
        }
      ],
      "stateMutability": "view",
      "type": "function"
    },
    {
      "inputs": [
        {
          "internalType": "address[]",
          "name": "votingVaults",
          "type": "address[]"
        },
        {
          "internalType": "bytes[]",
          "name": "extraVaultData",
          "type": "bytes[]"
        },
        {
          "internalType": "address[]",
          "name": "targets",
          "type": "address[]"
        },
        {
          "internalType": "bytes[]",
          "name": "calldatas",
          "type": "bytes[]"
        },
        {
          "internalType": "uint256",
          "name": "lastCall",
          "type": "uint256"
        },
        {
          "internalType": "enum CoreVoting.Ballot",
          "name": "ballot",
          "type": "uint8"
        }
      ],
      "name": "proposal",
      "outputs": [],
      "stateMutability": "nonpayable",
      "type": "function"
    },
    {
      "inputs": [],
      "name": "proposalCount",
      "outputs": [
        {
          "internalType": "uint256",
          "name": "",
          "type": "uint256"
        }
      ],
      "stateMutability": "view",
      "type": "function"
    },
    {
      "inputs": [
        {
          "internalType": "uint256",
          "name": "",
          "type": "uint256"
        }
      ],
      "name": "proposals",
      "outputs": [
        {
          "internalType": "bytes32",
          "name": "proposalHash",
          "type": "bytes32"
        },
        {
          "internalType": "uint128",
          "name": "created",
          "type": "uint128"
        },
        {
          "internalType": "uint128",
          "name": "unlock",
          "type": "uint128"
        },
        {
          "internalType": "uint128",
          "name": "expiration",
          "type": "uint128"
        },
        {
          "internalType": "uint128",
          "name": "quorum",
          "type": "uint128"
        },
        {
          "internalType": "uint128",
          "name": "lastCall",
          "type": "uint128"
        }
      ],
      "stateMutability": "view",
      "type": "function"
    },
    {
      "inputs": [
        {
          "internalType": "address",
          "name": "target",
          "type": "address"
        },
        {
          "internalType": "bytes4",
          "name": "functionSelector",
          "type": "bytes4"
        }
      ],
      "name": "quorums",
      "outputs": [
        {
          "internalType": "uint256",
          "name": "",
          "type": "uint256"
        }
      ],
      "stateMutability": "view",
      "type": "function"
    },
    {
      "inputs": [
        {
          "internalType": "address",
          "name": "target",
          "type": "address"
        },
        {
          "internalType": "bytes4",
          "name": "selector",
          "type": "bytes4"
        },
        {
          "internalType": "uint256",
          "name": "quorum",
          "type": "uint256"
        }
      ],
      "name": "setCustomQuorum",
      "outputs": [],
      "stateMutability": "nonpayable",
      "type": "function"
    },
    {
      "inputs": [
        {
          "internalType": "uint256",
          "name": "quorum",
          "type": "uint256"
        }
      ],
      "name": "setDefaultQuorum",
      "outputs": [],
      "stateMutability": "nonpayable",
      "type": "function"
    },
    {
      "inputs": [
        {
          "internalType": "uint256",
          "name": "_lockDuration",
          "type": "uint256"
        }
      ],
      "name": "setLockDuration",
      "outputs": [],
      "stateMutability": "nonpayable",
      "type": "function"
    },
    {
      "inputs": [
        {
          "internalType": "uint256",
          "name": "_minProposalPower",
          "type": "uint256"
        }
      ],
      "name": "setMinProposalPower",
      "outputs": [],
      "stateMutability": "nonpayable",
      "type": "function"
    },
    {
      "inputs": [
        {
          "internalType": "address",
          "name": "who",
          "type": "address"
        }
      ],
      "name": "setOwner",
      "outputs": [],
      "stateMutability": "nonpayable",
      "type": "function"
    },
    {
      "inputs": [
        {
          "internalType": "address[]",
          "name": "votingVaults",
          "type": "address[]"
        },
        {
          "internalType": "bytes[]",
          "name": "extraVaultData",
          "type": "bytes[]"
        },
        {
          "internalType": "uint256",
          "name": "proposalId",
          "type": "uint256"
        },
        {
          "internalType": "enum CoreVoting.Ballot",
          "name": "ballot",
          "type": "uint8"
        }
      ],
      "name": "vote",
      "outputs": [
        {
          "internalType": "uint256",
          "name": "",
          "type": "uint256"
        }
      ],
      "stateMutability": "nonpayable",
      "type": "function"
    },
    {
      "inputs": [
        {
          "internalType": "address",
          "name": "",
          "type": "address"
        },
        {
          "internalType": "uint256",
          "name": "",
          "type": "uint256"
        }
      ],
      "name": "votes",
      "outputs": [
        {
          "internalType": "uint128",
          "name": "votingPower",
          "type": "uint128"
        },
        {
          "internalType": "enum CoreVoting.Ballot",
          "name": "castBallot",
          "type": "uint8"
        }
      ],
      "stateMutability": "view",
      "type": "function"
    }
  ],
  "bytecode": "0x6080604052620000136119606003620001ae565b600455620000256119606005620001ae565b6005553480156200003557600080fd5b5060405162002fb738038062002fb7833981016040819052620000589162000201565b600080546001600160a01b03191633178155600385905560068490555b8151811015620000e1576001600960008484815181106200009a576200009a6200030f565b6020908102919091018101516001600160a01b03168252810191909152604001600020805460ff191691151591909117905580620000d88162000325565b91505062000075565b50620000ed8562000124565b62000119826001600160a01b03166000908152600160208190526040909120805460ff19169091179055565b505050505062000341565b6000546001600160a01b03163314620001765760405162461bcd60e51b815260206004820152601060248201526f29b2b73232b9103737ba1037bbb732b960811b604482015260640160405180910390fd5b600080546001600160a01b0319166001600160a01b0392909216919091179055565b634e487b7160e01b600052601160045260246000fd5b8082028115828204841417620001c857620001c862000198565b92915050565b80516001600160a01b0381168114620001e657600080fd5b919050565b634e487b7160e01b600052604160045260246000fd5b600080600080600060a086880312156200021a57600080fd5b6200022586620001ce565b94506020808701519450604087015193506200024460608801620001ce565b60808801519093506001600160401b03808211156200026257600080fd5b818901915089601f8301126200027757600080fd5b8151818111156200028c576200028c620001eb565b8060051b604051601f19603f83011681018181108582111715620002b457620002b4620001eb565b60405291825284820192508381018501918c831115620002d357600080fd5b938501935b82851015620002fc57620002ec85620001ce565b84529385019392850192620002d8565b8096505050505050509295509295909350565b634e487b7160e01b600052603260045260246000fd5b6000600182016200033a576200033a62000198565b5060010190565b612c6680620003516000396000f3fe608060405234801561001057600080fd5b50600436106101ad5760003560e01c80639f2524ee116100ee578063bd9c75a511610097578063d4b8756711610071578063d4b87567146104a9578063da35c664146104b2578063f131e5eb146104bb578063fe9fbb80146104c457600080fd5b8063bd9c75a514610463578063c52ea3db14610476578063d1b676271461049657600080fd5b8063af7a060c116100c8578063af7a060c146103fa578063b6a5d7de1461042d578063b91816111461044057600080fd5b80639f2524ee1461037a578063a4c95077146103de578063aa35fb51146103e757600080fd5b806327c97fa51161015b5780634eb665af116101355780634eb665af146102fc578063771a53231461030f5780637d5709eb146103225780638da5cb5b1461033557600080fd5b806327c97fa5146102c3578063341a7b42146102d65780634392b99c146102e957600080fd5b806313af40351161018c57806313af40351461029457806315126a3d146102a75780631c39c96c146102ba57600080fd5b806214d11d146101b2578063013cf08b146101c7578063045544431461027d575b600080fd5b6101c56101c03660046120fa565b6104fd565b005b6102316101d53660046120fa565b600a60205260009081526040902080546001820154600283015460059093015491926fffffffffffffffffffffffffffffffff808316937001000000000000000000000000000000009384900482169383831693048216911686565b604080519687526fffffffffffffffffffffffffffffffff9586166020880152938516938601939093529083166060850152821660808401521660a082015260c0015b60405180910390f35b61028660045481565b604051908152602001610274565b6101c56102a236600461213c565b610588565b6101c56102b536600461237c565b610650565b61028660035481565b6101c56102d136600461213c565b610cd2565b6101c56102e43660046123e9565b610d9f565b6101c56102f7366004612455565b610e76565b6101c561030a3660046120fa565b610f4d565b61028661031d366004612491565b610fd3565b6101c56103303660046120fa565b611046565b6000546103559073ffffffffffffffffffffffffffffffffffffffff1681565b60405173ffffffffffffffffffffffffffffffffffffffff9091168152602001610274565b6103d06103883660046124c4565b600b6020908152600092835260408084209091529082529020546fffffffffffffffffffffffffffffffff811690700100000000000000000000000000000000900460ff1682565b604051610274929190612558565b61028660055481565b6102866103f536600461258d565b6110cc565b61041d61040836600461213c565b60096020526000908152604090205460ff1681565b6040519015158152602001610274565b6101c561043b36600461213c565b61179a565b61041d61044e36600461213c565b60016020526000908152604090205460ff1681565b6101c5610471366004612657565b611874565b6104896104843660046120fa565b611ecc565b6040516102749190612734565b6101c56104a43660046120fa565b611f58565b61028660065481565b61028660075481565b61028661196081565b61041d6104d236600461213c565b73ffffffffffffffffffffffffffffffffffffffff1660009081526001602052604090205460ff1690565b60005473ffffffffffffffffffffffffffffffffffffffff163314610583576040517f08c379a000000000000000000000000000000000000000000000000000000000815260206004820152601060248201527f53656e646572206e6f74206f776e65720000000000000000000000000000000060448201526064015b60405180910390fd5b600555565b60005473ffffffffffffffffffffffffffffffffffffffff163314610609576040517f08c379a000000000000000000000000000000000000000000000000000000000815260206004820152601060248201527f53656e646572206e6f74206f776e657200000000000000000000000000000000604482015260640161057a565b600080547fffffffffffffffffffffffff00000000000000000000000000000000000000001673ffffffffffffffffffffffffffffffffffffffff92909216919091179055565b60025460ff16156106bd576040517f08c379a000000000000000000000000000000000000000000000000000000000815260206004820152600a60248201527f5265656e7472616e637900000000000000000000000000000000000000000000604482015260640161057a565b600280547fffffffffffffffffffffffffffffffffffffffffffffffffffffffffffffff001660019081179091556000848152600a6020526040902001546fffffffffffffffffffffffffffffffff7001000000000000000000000000000000009091041643101561078b576040517f08c379a000000000000000000000000000000000000000000000000000000000815260206004820152600c60248201527f6e6f7420756e6c6f636b65640000000000000000000000000000000000000000604482015260640161057a565b6000838152600a602052604081206001015470010000000000000000000000000000000090046fffffffffffffffffffffffffffffffff16900361082b576040517f08c379a000000000000000000000000000000000000000000000000000000000815260206004820152601360248201527f50726576696f75736c7920657865637574656400000000000000000000000000604482015260640161057a565b6000838152600a60205260409020600501546fffffffffffffffffffffffffffffffff1643106108b7576040517f08c379a000000000000000000000000000000000000000000000000000000000815260206004820152601860248201527f70617374206c6173742063616c6c2074696d657374616d700000000000000000604482015260640161057a565b6000838152600a60209081526040918290205491516108da9185918591016127e5565b6040516020818303038152906040528051906020012014610957576040517f08c379a000000000000000000000000000000000000000000000000000000000815260206004820152600d60248201527f68617368206d69736d6174636800000000000000000000000000000000000000604482015260640161057a565b6000838152600a60205260408082208151606081019283905291600391820191908285855b82829054906101000a90046fffffffffffffffffffffffffffffffff166fffffffffffffffffffffffffffffffff1681526020019060100190602082600f0104928301926001038202915080841161097c575050506000888152600a60209081526040808320600201549087015191870151875197985092967001000000000000000000000000000000009091046fffffffffffffffffffffffffffffffff169550909350610a2b925061290f565b610a35919061290f565b6fffffffffffffffffffffffffffffffff1610159050600082600160200201516fffffffffffffffffffffffffffffffff1683600060200201516fffffffffffffffffffffffffffffffff16119050818015610a8e5750805b610af4576040517f08c379a000000000000000000000000000000000000000000000000000000000815260206004820152600e60248201527f43616e6e6f742065786563757465000000000000000000000000000000000000604482015260640161057a565b60005b8551811015610c19576000868281518110610b1457610b146128b1565b602002602001015173ffffffffffffffffffffffffffffffffffffffff16868381518110610b4457610b446128b1565b6020026020010151604051610b599190612938565b6000604051808303816000865af19150503d8060008114610b96576040519150601f19603f3d011682016040523d82523d6000602084013e610b9b565b606091505b5050905080610c06576040517f08c379a000000000000000000000000000000000000000000000000000000000815260206004820152600b60248201527f43616c6c206661696c6564000000000000000000000000000000000000000000604482015260640161057a565b5080610c1181612954565b915050610af7565b506040518681527f712ae1383f79ac853f8d882153778e0260ef8f03b504e2866e0593e04d2b291f9060200160405180910390a150505060009283525050600a6020526040812081815560018101829055600280820183905560038201839055600482019290925560050180547fffffffffffffffffffffffffffffffff0000000000000000000000000000000016905580547fffffffffffffffffffffffffffffffffffffffffffffffffffffffffffffff00169055565b60005473ffffffffffffffffffffffffffffffffffffffff163314610d53576040517f08c379a000000000000000000000000000000000000000000000000000000000815260206004820152601060248201527f53656e646572206e6f74206f776e657200000000000000000000000000000000604482015260640161057a565b73ffffffffffffffffffffffffffffffffffffffff16600090815260016020526040902080547fffffffffffffffffffffffffffffffffffffffffffffffffffffffffffffff00169055565b60005473ffffffffffffffffffffffffffffffffffffffff163314610e20576040517f08c379a000000000000000000000000000000000000000000000000000000000815260206004820152601060248201527f53656e646572206e6f74206f776e657200000000000000000000000000000000604482015260640161057a565b73ffffffffffffffffffffffffffffffffffffffff91909116600090815260096020526040902080547fffffffffffffffffffffffffffffffffffffffffffffffffffffffffffffff0016911515919091179055565b60005473ffffffffffffffffffffffffffffffffffffffff163314610ef7576040517f08c379a000000000000000000000000000000000000000000000000000000000815260206004820152601060248201527f53656e646572206e6f74206f776e657200000000000000000000000000000000604482015260640161057a565b73ffffffffffffffffffffffffffffffffffffffff90921660009081526008602090815260408083207fffffffff0000000000000000000000000000000000000000000000000000000090941683529290522055565b60005473ffffffffffffffffffffffffffffffffffffffff163314610fce576040517f08c379a000000000000000000000000000000000000000000000000000000000815260206004820152601060248201527f53656e646572206e6f74206f776e657200000000000000000000000000000000604482015260640161057a565b600455565b73ffffffffffffffffffffffffffffffffffffffff821660009081526008602090815260408083207fffffffff0000000000000000000000000000000000000000000000000000000085168452909152812054808203611037575050600354611040565b9050611040565b505b92915050565b60005473ffffffffffffffffffffffffffffffffffffffff1633146110c7576040517f08c379a000000000000000000000000000000000000000000000000000000000815260206004820152601060248201527f53656e646572206e6f74206f776e657200000000000000000000000000000000604482015260640161057a565b600355565b6000828152600a60205260408120600101546fffffffffffffffffffffffffffffffff168103611158576040517f08c379a000000000000000000000000000000000000000000000000000000000815260206004820152601760248201527f70726f706f73616c20646f6573206e6f74206578697374000000000000000000604482015260640161057a565b6000838152600a60205260409020600201546fffffffffffffffffffffffffffffffff164311156111e5576040517f08c379a000000000000000000000000000000000000000000000000000000000815260206004820152600760248201527f4578706972656400000000000000000000000000000000000000000000000000604482015260640161057a565b6000805b86518110156114975760006111ff82600161298c565b90505b87518110156112e45787818151811061121d5761121d6128b1565b602002602001015173ffffffffffffffffffffffffffffffffffffffff1688838151811061124d5761124d6128b1565b602002602001015173ffffffffffffffffffffffffffffffffffffffff16036112d2576040517f08c379a000000000000000000000000000000000000000000000000000000000815260206004820152600f60248201527f6475706c6963617465207661756c740000000000000000000000000000000000604482015260640161057a565b806112dc81612954565b915050611202565b50600960008883815181106112fb576112fb6128b1565b60209081029190910181015173ffffffffffffffffffffffffffffffffffffffff1682528101919091526040016000205460ff16611395576040517f08c379a000000000000000000000000000000000000000000000000000000000815260206004820152601060248201527f756e7665726966696564207661756c7400000000000000000000000000000000604482015260640161057a565b8681815181106113a7576113a76128b1565b602002602001015173ffffffffffffffffffffffffffffffffffffffff1663e91f323533600a600089815260200190815260200160002060010160009054906101000a90046fffffffffffffffffffffffffffffffff16898581518110611410576114106128b1565b60200260200101516040518463ffffffff1660e01b81526004016114369392919061299f565b6020604051808303816000875af1158015611455573d6000803e3d6000fd5b505050506040513d601f19601f8201168201806040525081019061147991906129ef565b611483908361290f565b91508061148f81612954565b9150506111e9565b50336000908152600b602090815260408083208784529091529020546fffffffffffffffffffffffffffffffff16156115ae57336000908152600b6020908152604080832087845280835281842054600a845291909320929091526fffffffffffffffffffffffffffffffff81169160030190700100000000000000000000000000000000900460ff166002811115611532576115326124ee565b60038110611542576115426128b1565b600291828204019190066010028282829054906101000a90046fffffffffffffffffffffffffffffffff166115779190612a08565b92506101000a8154816fffffffffffffffffffffffffffffffff02191690836fffffffffffffffffffffffffffffffff1602179055505b6040518060400160405280826fffffffffffffffffffffffffffffffff1681526020018460028111156115e3576115e36124ee565b9052336000908152600b602090815260408083208884528252909120825181546fffffffffffffffffffffffffffffffff9091167fffffffffffffffffffffffffffffffff0000000000000000000000000000000082168117835592840151919283917fffffffffffffffffffffffffffffff0000000000000000000000000000000000161770010000000000000000000000000000000083600281111561168d5761168d6124ee565b021790555050506000848152600a6020526040902081906003018460028111156116b9576116b96124ee565b600381106116c9576116c96128b1565b600291828204019190066010028282829054906101000a90046fffffffffffffffffffffffffffffffff166116fe919061290f565b82546fffffffffffffffffffffffffffffffff9182166101009390930a928302919092021990911617905550336000818152600b602090815260408083208884529091529081902090518692917f79597d31752b5a254be8f219c055ebfefe925e085d99c7b04b0883298b356951916117779190612a31565b60405180910390a36fffffffffffffffffffffffffffffffff1695945050505050565b60005473ffffffffffffffffffffffffffffffffffffffff16331461181b576040517f08c379a000000000000000000000000000000000000000000000000000000000815260206004820152601060248201527f53656e646572206e6f74206f776e657200000000000000000000000000000000604482015260640161057a565b6118718173ffffffffffffffffffffffffffffffffffffffff16600090815260016020819052604090912080547fffffffffffffffffffffffffffffffffffffffffffffffffffffffffffffff00169091179055565b50565b8483146118dd576040517f08c379a000000000000000000000000000000000000000000000000000000000815260206004820152601560248201527f6172726179206c656e677468206d69736d617463680000000000000000000000604482015260640161057a565b6000859003611948576040517f08c379a000000000000000000000000000000000000000000000000000000000815260206004820152600e60248201527f656d7074792070726f706f73616c000000000000000000000000000000000000604482015260640161057a565b6000868686866040516020016119619493929190612aaa565b604080517fffffffffffffffffffffffffffffffffffffffffffffffffffffffffffffffe0818403018152919052805160209091012090506000805b87811015611ac2576000611a088888848181106119bc576119bc6128b1565b90506020028101906119ce9190612bd4565b8080601f016020809104026020016040519081016040528093929190818152602001838380828437600092019190915250611fde92505050565b90506000600860008c8c86818110611a2257611a226128b1565b9050602002016020810190611a37919061213c565b73ffffffffffffffffffffffffffffffffffffffff168152602080820192909252604090810160009081207fffffffff000000000000000000000000000000000000000000000000000000008616825290925290205490508015611a9b5780611a9f565b6003545b905083811115611aad578093505b50508080611aba90612954565b91505061199d565b50600554600454611ad3904361298c565b611add919061298c565b8411611b45576040517f08c379a000000000000000000000000000000000000000000000000000000000815260206004820152601a60248201527f65787069726573206265666f726520766f74696e6720656e6473000000000000604482015260640161057a565b6040518060e00160405280838152602001600143611b639190612c39565b6fffffffffffffffffffffffffffffffff16815260200160045443611b88919061298c565b6fffffffffffffffffffffffffffffffff16815260200160055460045443611bb0919061298c565b611bba919061298c565b6fffffffffffffffffffffffffffffffff168152602001826fffffffffffffffffffffffffffffffff168152602001600a60006007548152602001908152602001600020600301600380602002604051908101604052809291908260038015611c7c576020028201916000905b82829054906101000a90046fffffffffffffffffffffffffffffffff166fffffffffffffffffffffffffffffffff1681526020019060100190602082600f01049283019260010382029150808411611c275790505b50505091835250506fffffffffffffffffffffffffffffffff8681166020928301526007546000908152600a835260409081902084518155928401519084015190821670010000000000000000000000000000000091831682021760018401556060840151608085015190831692160217600282015560a0820151611d079060038084019190612007565b5060c08201518160050160006101000a8154816fffffffffffffffffffffffffffffffff02191690836fffffffffffffffffffffffffffffffff1602179055509050506000611d988d8d80806020026020016040519081016040528093929190818152602001838360200280828437600092019190915250611d8f92508e91508f9050612c4c565b600754876110cc565b90506000600654831115611dae57600654611db0565b825b3360009081526001602052604090205490915060ff16611e345780821015611e34576040517f08c379a000000000000000000000000000000000000000000000000000000000815260206004820152601960248201527f696e73756666696369656e7420766f74696e6720706f77657200000000000000604482015260640161057a565b7fafbd5d299242bf861d198949ad835672e2e35b2e1838cee606a0b5aec2b4fa426007544360045443611e67919061298c565b600554600454611e77904361298c565b611e81919061298c565b60408051948552602085019390935291830152606082015260800160405180910390a1600160076000828254611eb7919061298c565b90915550505050505050505050505050505050565b611ed46120c7565b6000828152600a60205260408082208151606081019283905292600391820192908390855b82829054906101000a90046fffffffffffffffffffffffffffffffff166fffffffffffffffffffffffffffffffff1681526020019060100190602082600f01049283019260010382029150808411611ef9575094979650505050505050565b60005473ffffffffffffffffffffffffffffffffffffffff163314611fd9576040517f08c379a000000000000000000000000000000000000000000000000000000000815260206004820152601060248201527f53656e646572206e6f74206f776e657200000000000000000000000000000000604482015260640161057a565b600655565b602001517ffffffffff00000000000000000000000000000000000000000000000000000001690565b6002830191839082156120b75791602002820160005b8382111561207957835183826101000a8154816fffffffffffffffffffffffffffffffff02191690836fffffffffffffffffffffffffffffffff1602179055509260200192601001602081600f0104928301926001030261201d565b80156120b55782816101000a8154906fffffffffffffffffffffffffffffffff0219169055601001602081600f01049283019260010302612079565b505b506120c39291506120e5565b5090565b60405180606001604052806003906020820280368337509192915050565b5b808211156120c357600081556001016120e6565b60006020828403121561210c57600080fd5b5035919050565b803573ffffffffffffffffffffffffffffffffffffffff8116811461213757600080fd5b919050565b60006020828403121561214e57600080fd5b61215782612113565b9392505050565b7f4e487b7100000000000000000000000000000000000000000000000000000000600052604160045260246000fd5b604051601f82017fffffffffffffffffffffffffffffffffffffffffffffffffffffffffffffffe016810167ffffffffffffffff811182821017156121d4576121d461215e565b604052919050565b600067ffffffffffffffff8211156121f6576121f661215e565b5060051b60200190565b600082601f83011261221157600080fd5b81356020612226612221836121dc565b61218d565b82815260059290921b8401810191818101908684111561224557600080fd5b8286015b848110156122675761225a81612113565b8352918301918301612249565b509695505050505050565b6000612280612221846121dc565b8381529050602080820190600585901b84018681111561229f57600080fd5b845b8181101561235157803567ffffffffffffffff808211156122c25760008081fd5b8188019150601f8a818401126122d85760008081fd5b8235828111156122ea576122ea61215e565b612319877fffffffffffffffffffffffffffffffffffffffffffffffffffffffffffffffe0848401160161218d565b92508083528b8782860101111561233257600091508182fd5b80878501888501376000908301870152508552509282019282016122a1565b505050509392505050565b600082601f83011261236d57600080fd5b61215783833560208501612272565b60008060006060848603121561239157600080fd5b83359250602084013567ffffffffffffffff808211156123b057600080fd5b6123bc87838801612200565b935060408601359150808211156123d257600080fd5b506123df8682870161235c565b9150509250925092565b600080604083850312156123fc57600080fd5b61240583612113565b91506020830135801515811461241a57600080fd5b809150509250929050565b80357fffffffff000000000000000000000000000000000000000000000000000000008116811461213757600080fd5b60008060006060848603121561246a57600080fd5b61247384612113565b925061248160208501612425565b9150604084013590509250925092565b600080604083850312156124a457600080fd5b6124ad83612113565b91506124bb60208401612425565b90509250929050565b600080604083850312156124d757600080fd5b6124e083612113565b946020939093013593505050565b7f4e487b7100000000000000000000000000000000000000000000000000000000600052602160045260246000fd5b60038110612554577f4e487b7100000000000000000000000000000000000000000000000000000000600052602160045260246000fd5b9052565b6fffffffffffffffffffffffffffffffff8316815260408101612157602083018461251d565b80356003811061213757600080fd5b600080600080608085870312156125a357600080fd5b843567ffffffffffffffff808211156125bb57600080fd5b6125c788838901612200565b955060208701359150808211156125dd57600080fd5b506125ea8782880161235c565b935050604085013591506126006060860161257e565b905092959194509250565b60008083601f84011261261d57600080fd5b50813567ffffffffffffffff81111561263557600080fd5b6020830191508360208260051b850101111561265057600080fd5b9250929050565b60008060008060008060008060008060c08b8d03121561267657600080fd5b8a3567ffffffffffffffff8082111561268e57600080fd5b61269a8e838f0161260b565b909c509a5060208d01359150808211156126b357600080fd5b6126bf8e838f0161260b565b909a50985060408d01359150808211156126d857600080fd5b6126e48e838f0161260b565b909850965060608d01359150808211156126fd57600080fd5b5061270a8d828e0161260b565b90955093505060808b0135915061272360a08c0161257e565b90509295989b9194979a5092959850565b60608101818360005b600381101561276e5781516fffffffffffffffffffffffffffffffff1683526020928301929091019060010161273d565b50505092915050565b60005b8381101561279257818101518382015260200161277a565b50506000910152565b600081518084526127b3816020860160208601612777565b601f017fffffffffffffffffffffffffffffffffffffffffffffffffffffffffffffffe0169290920160200192915050565b604080825283519082018190526000906020906060840190828701845b8281101561283457815173ffffffffffffffffffffffffffffffffffffffff1684529284019290840190600101612802565b50505083810382850152845180825282820190600581901b8301840187850160005b838110156128a2577fffffffffffffffffffffffffffffffffffffffffffffffffffffffffffffffe086840301855261289083835161279b565b94870194925090860190600101612856565b50909998505050505050505050565b7f4e487b7100000000000000000000000000000000000000000000000000000000600052603260045260246000fd5b7f4e487b7100000000000000000000000000000000000000000000000000000000600052601160045260246000fd5b6fffffffffffffffffffffffffffffffff81811683821601908082111561103e5761103e6128e0565b6000825161294a818460208701612777565b9190910192915050565b60007fffffffffffffffffffffffffffffffffffffffffffffffffffffffffffffffff8203612985576129856128e0565b5060010190565b80820180821115611040576110406128e0565b73ffffffffffffffffffffffffffffffffffffffff841681526fffffffffffffffffffffffffffffffff831660208201526060604082015260006129e6606083018461279b565b95945050505050565b600060208284031215612a0157600080fd5b5051919050565b6fffffffffffffffffffffffffffffffff82811682821603908082111561103e5761103e6128e0565b81546fffffffffffffffffffffffffffffffff81168252604082019061103e60208401608083901c60ff1661251d565b8183528181602085013750600060208284010152600060207fffffffffffffffffffffffffffffffffffffffffffffffffffffffffffffffe0601f840116840101905092915050565b6040808252810184905260008560608301825b87811015612af85773ffffffffffffffffffffffffffffffffffffffff612ae384612113565b16825260209283019290910190600101612abd565b506020915083810382850152808582528282019050828660051b8301018760005b88811015612bc4577fffffffffffffffffffffffffffffffffffffffffffffffffffffffffffffffe085840301845281357fffffffffffffffffffffffffffffffffffffffffffffffffffffffffffffffe18b3603018112612b7a57600080fd5b8a01868101903567ffffffffffffffff811115612b9657600080fd5b803603821315612ba557600080fd5b612bb0858284612a61565b958801959450505090850190600101612b19565b50909a9950505050505050505050565b60008083357fffffffffffffffffffffffffffffffffffffffffffffffffffffffffffffffe1843603018112612c0957600080fd5b83018035915067ffffffffffffffff821115612c2457600080fd5b60200191503681900382131561265057600080fd5b81810381811115611040576110406128e0565b600061215736848461227256fea164736f6c6343000812000a",
  "linkReferences": {},
  "deployedLinkReferences": {}
}