{
  "_format": "hh-sol-artifact-1",
  "contractName": "Storage",
  "sourceName": "contracts/external/council/libraries/Storage.sol",
  "abi": [
    {
      "inputs": [
        {
          "internalType": "string",
          "name": "typeString",
          "type": "string"
        },
        {
          "internalType": "string",
          "name": "name",
          "type": "string"
        }
      ],
      "name": "getPtr",
      "outputs": [
        {
          "internalType": "uint256",
          "name": "",
          "type": "uint256"
        }
      ],
      "stateMutability": "pure",
      "type": "function"
    }
  ],
  "bytecode": "0x61028761003a600b82828239805160001a60731461002d57634e487b7160e01b600052600060045260246000fd5b30600052607381538281f3fe73000000000000000000000000000000000000000030146080604052600436106100355760003560e01c806387ec29271461003a575b600080fd5b61004d6100483660046101b9565b61005f565b60405190815260200160405180910390f35b60008083604051602001610073919061024d565b604051602081830303815290604052805190602001209050600081846040516020016100a0929190610260565b604080518083037fffffffffffffffffffffffffffffffffffffffffffffffffffffffffffffffe0018152919052805160209091012095945050505050565b7f4e487b7100000000000000000000000000000000000000000000000000000000600052604160045260246000fd5b600082601f83011261011f57600080fd5b813567ffffffffffffffff8082111561013a5761013a6100df565b604051601f83017fffffffffffffffffffffffffffffffffffffffffffffffffffffffffffffffe0908116603f01168101908282118183101715610180576101806100df565b8160405283815286602085880101111561019957600080fd5b836020870160208301376000602085830101528094505050505092915050565b600080604083850312156101cc57600080fd5b823567ffffffffffffffff808211156101e457600080fd5b6101f08683870161010e565b9350602085013591508082111561020657600080fd5b506102138582860161010e565b9150509250929050565b6000815160005b8181101561023e5760208185018101518683015201610224565b50600093019283525090919050565b6000610259828461021d565b9392505050565b8281526000610272602083018461021d565b94935050505056fea164736f6c6343000812000a",
  "linkReferences": {},
  "deployedLinkReferences": {}
}