{
  "_format": "hh-sol-artifact-1",
  "contractName": "ArcadeTokenDistributor",
  "sourceName": "contracts/token/ArcadeTokenDistributor.sol",
  "abi": [
    {
      "inputs": [],
      "name": "AT_AlreadySent",
      "type": "error"
    },
    {
      "inputs": [],
      "name": "AT_TokenAlreadySet",
      "type": "error"
    },
    {
      "inputs": [
        {
          "internalType": "string",
          "name": "addressType",
          "type": "string"
        }
      ],
      "name": "AT_ZeroAddress",
      "type": "error"
    },
    {
      "anonymous": false,
      "inputs": [
        {
          "indexed": false,
          "internalType": "address",
          "name": "token",
          "type": "address"
        },
        {
          "indexed": false,
          "internalType": "address",
          "name": "recipient",
          "type": "address"
        },
        {
          "indexed": false,
          "internalType": "uint256",
          "name": "amount",
          "type": "uint256"
        }
      ],
      "name": "Distribute",
      "type": "event"
    },
    {
      "anonymous": false,
      "inputs": [
        {
          "indexed": true,
          "internalType": "address",
          "name": "previousOwner",
          "type": "address"
        },
        {
          "indexed": true,
          "internalType": "address",
          "name": "newOwner",
          "type": "address"
        }
      ],
      "name": "OwnershipTransferred",
      "type": "event"
    },
    {
      "inputs": [],
      "name": "arcadeToken",
      "outputs": [
        {
          "internalType": "contract IArcadeToken",
          "name": "",
          "type": "address"
        }
      ],
      "stateMutability": "view",
      "type": "function"
    },
    {
      "inputs": [],
      "name": "communityAirdropAmount",
      "outputs": [
        {
          "internalType": "uint256",
          "name": "",
          "type": "uint256"
        }
      ],
      "stateMutability": "view",
      "type": "function"
    },
    {
      "inputs": [],
      "name": "communityAirdropSent",
      "outputs": [
        {
          "internalType": "bool",
          "name": "",
          "type": "bool"
        }
      ],
      "stateMutability": "view",
      "type": "function"
    },
    {
      "inputs": [],
      "name": "communityRewardsAmount",
      "outputs": [
        {
          "internalType": "uint256",
          "name": "",
          "type": "uint256"
        }
      ],
      "stateMutability": "view",
      "type": "function"
    },
    {
      "inputs": [],
      "name": "communityRewardsSent",
      "outputs": [
        {
          "internalType": "bool",
          "name": "",
          "type": "bool"
        }
      ],
      "stateMutability": "view",
      "type": "function"
    },
    {
      "inputs": [],
      "name": "devPartnerAmount",
      "outputs": [
        {
          "internalType": "uint256",
          "name": "",
          "type": "uint256"
        }
      ],
      "stateMutability": "view",
      "type": "function"
    },
    {
      "inputs": [],
      "name": "devPartnerSent",
      "outputs": [
        {
          "internalType": "bool",
          "name": "",
          "type": "bool"
        }
      ],
      "stateMutability": "view",
      "type": "function"
    },
    {
      "inputs": [],
      "name": "owner",
      "outputs": [
        {
          "internalType": "address",
          "name": "",
          "type": "address"
        }
      ],
      "stateMutability": "view",
      "type": "function"
    },
    {
      "inputs": [],
      "name": "renounceOwnership",
      "outputs": [],
      "stateMutability": "nonpayable",
      "type": "function"
    },
    {
      "inputs": [
        {
          "internalType": "contract IArcadeToken",
          "name": "_arcadeToken",
          "type": "address"
        }
      ],
      "name": "setToken",
      "outputs": [],
      "stateMutability": "nonpayable",
      "type": "function"
    },
    {
      "inputs": [
        {
          "internalType": "address",
          "name": "_communityAirdrop",
          "type": "address"
        }
      ],
      "name": "toCommunityAirdrop",
      "outputs": [],
      "stateMutability": "nonpayable",
      "type": "function"
    },
    {
      "inputs": [
        {
          "internalType": "address",
          "name": "_communityRewards",
          "type": "address"
        }
      ],
      "name": "toCommunityRewards",
      "outputs": [],
      "stateMutability": "nonpayable",
      "type": "function"
    },
    {
      "inputs": [
        {
          "internalType": "address",
          "name": "_devPartner",
          "type": "address"
        }
      ],
      "name": "toDevPartner",
      "outputs": [],
      "stateMutability": "nonpayable",
      "type": "function"
    },
    {
      "inputs": [
        {
          "internalType": "address",
          "name": "_vestingPartner",
          "type": "address"
        }
      ],
      "name": "toPartnerVesting",
      "outputs": [],
      "stateMutability": "nonpayable",
      "type": "function"
    },
    {
      "inputs": [
        {
          "internalType": "address",
          "name": "_vestingTeam",
          "type": "address"
        }
      ],
      "name": "toTeamVesting",
      "outputs": [],
      "stateMutability": "nonpayable",
      "type": "function"
    },
    {
      "inputs": [
        {
          "internalType": "address",
          "name": "_treasury",
          "type": "address"
        }
      ],
      "name": "toTreasury",
      "outputs": [],
      "stateMutability": "nonpayable",
      "type": "function"
    },
    {
      "inputs": [
        {
          "internalType": "address",
          "name": "newOwner",
          "type": "address"
        }
      ],
      "name": "transferOwnership",
      "outputs": [],
      "stateMutability": "nonpayable",
      "type": "function"
    },
    {
      "inputs": [],
      "name": "treasuryAmount",
      "outputs": [
        {
          "internalType": "uint256",
          "name": "",
          "type": "uint256"
        }
      ],
      "stateMutability": "view",
      "type": "function"
    },
    {
      "inputs": [],
      "name": "treasurySent",
      "outputs": [
        {
          "internalType": "bool",
          "name": "",
          "type": "bool"
        }
      ],
      "stateMutability": "view",
      "type": "function"
    },
    {
      "inputs": [],
      "name": "vestingPartnerAmount",
      "outputs": [
        {
          "internalType": "uint256",
          "name": "",
          "type": "uint256"
        }
      ],
      "stateMutability": "view",
      "type": "function"
    },
    {
      "inputs": [],
      "name": "vestingPartnerSent",
      "outputs": [
        {
          "internalType": "bool",
          "name": "",
          "type": "bool"
        }
      ],
      "stateMutability": "view",
      "type": "function"
    },
    {
      "inputs": [],
      "name": "vestingTeamAmount",
      "outputs": [
        {
          "internalType": "uint256",
          "name": "",
          "type": "uint256"
        }
      ],
      "stateMutability": "view",
      "type": "function"
    },
    {
      "inputs": [],
      "name": "vestingTeamSent",
      "outputs": [
        {
          "internalType": "bool",
          "name": "",
          "type": "bool"
        }
      ],
      "stateMutability": "view",
      "type": "function"
    }
  ],
  "bytecode": "0x608060405234801561001057600080fd5b5061001a3361001f565b61006f565b600080546001600160a01b038381166001600160a01b0319831681178455604051919092169283917f8be0079c531659141344cd1fd0a4f28419497f9722a3daafe3b4186f6b6457e09190a35050565b6119588061007e6000396000f3fe608060405234801561001057600080fd5b506004361061018d5760003560e01c80637756442c116100e3578063b93eccc71161008c578063f1856ba811610066578063f1856ba8146103d7578063f2fde38b146103e9578063f8a2b1cb146103fc57600080fd5b8063b93eccc714610368578063d9f9407314610391578063e533da32146103b757600080fd5b80638da5cb5b116100bd5780638da5cb5b146102f05780639efab2051461032f578063a7db223d1461034157600080fd5b80637756442c146102b7578063838cfe62146102ca578063864eb0bd146102dd57600080fd5b8063368acb091161014557806349824dbb1161011f57806349824dbb1461028a57806349d19f2a1461029c578063715018a6146102af57600080fd5b8063368acb09146102315780633db6b13314610251578063420909fc1461027957600080fd5b8063144fa6d711610176578063144fa6d7146101e657806323ed476f146101f9578063306ae7351461021e57600080fd5b80630a53bfc2146101925780630cabd3fc146101d1575b600080fd5b6001546101bc90790100000000000000000000000000000000000000000000000000900460ff1681565b60405190151581526020015b60405180910390f35b6101e46101df36600461187b565b61040e565b005b6101e46101f436600461187b565b61063d565b6001546101bc9074010000000000000000000000000000000000000000900460ff1681565b6101e461022c36600461187b565b6107d2565b6102436a1517d5c51969ab8980000081565b6040519081526020016101c8565b6001546101bc9077010000000000000000000000000000000000000000000000900460ff1681565b610243697f0e10af47c1c700000081565b6102436a0d667bc27c916ffd00000081565b6101e46102aa36600461187b565b6109fd565b6101e4610c2a565b6101e46102c536600461187b565b610cb7565b6101e46102d836600461187b565b610eda565b6101e46102eb36600461187b565b611101565b60005473ffffffffffffffffffffffffffffffffffffffff165b60405173ffffffffffffffffffffffffffffffffffffffff90911681526020016101c8565b6102436a0c685fa11e01ec6f00000081565b6001546101bc90760100000000000000000000000000000000000000000000900460ff1681565b6001546101bc907801000000000000000000000000000000000000000000000000900460ff1681565b6001546101bc907501000000000000000000000000000000000000000000900460ff1681565b60015461030a9073ffffffffffffffffffffffffffffffffffffffff1681565b6102436a1b0c7e8d50c6c0dd80000081565b6101e46103f736600461187b565b61132a565b6102436a084595161401484a00000081565b60005473ffffffffffffffffffffffffffffffffffffffff163314610494576040517f08c379a000000000000000000000000000000000000000000000000000000000815260206004820181905260248201527f4f776e61626c653a2063616c6c6572206973206e6f7420746865206f776e657260448201526064015b60405180910390fd5b6001547501000000000000000000000000000000000000000000900460ff16156104ea576040517f039569e000000000000000000000000000000000000000000000000000000000815260040160405180910390fd5b73ffffffffffffffffffffffffffffffffffffffff8116610567576040517f8115530e00000000000000000000000000000000000000000000000000000000815260206004820152600a60248201527f646576506172746e657200000000000000000000000000000000000000000000604482015260640161048b565b600180547fffffffffffffffffffff00ffffffffffffffffffffffffffffffffffffffffff81167501000000000000000000000000000000000000000000179091556105d49073ffffffffffffffffffffffffffffffffffffffff1682697f0e10af47c1c700000061145a565b6001546040805173ffffffffffffffffffffffffffffffffffffffff92831681529183166020830152697f0e10af47c1c7000000908201527fafdc1eb311d58306e249917b5ca0044a827a66f0ec535c334d63372c4055d364906060015b60405180910390a150565b60005473ffffffffffffffffffffffffffffffffffffffff1633146106be576040517f08c379a000000000000000000000000000000000000000000000000000000000815260206004820181905260248201527f4f776e61626c653a2063616c6c6572206973206e6f7420746865206f776e6572604482015260640161048b565b73ffffffffffffffffffffffffffffffffffffffff811661073b576040517f8115530e00000000000000000000000000000000000000000000000000000000815260206004820152600b60248201527f617263616465546f6b656e000000000000000000000000000000000000000000604482015260640161048b565b60015473ffffffffffffffffffffffffffffffffffffffff161561078b576040517ff0bd1f4100000000000000000000000000000000000000000000000000000000815260040160405180910390fd5b600180547fffffffffffffffffffffffff00000000000000000000000000000000000000001673ffffffffffffffffffffffffffffffffffffffff92909216919091179055565b60005473ffffffffffffffffffffffffffffffffffffffff163314610853576040517f08c379a000000000000000000000000000000000000000000000000000000000815260206004820181905260248201527f4f776e61626c653a2063616c6c6572206973206e6f7420746865206f776e6572604482015260640161048b565b6001547801000000000000000000000000000000000000000000000000900460ff16156108ac576040517f039569e000000000000000000000000000000000000000000000000000000000815260040160405180910390fd5b73ffffffffffffffffffffffffffffffffffffffff8116610929576040517f8115530e00000000000000000000000000000000000000000000000000000000815260206004820152600b60248201527f76657374696e675465616d000000000000000000000000000000000000000000604482015260640161048b565b600180547fffffffffffffff00ffffffffffffffffffffffffffffffffffffffffffffffff811678010000000000000000000000000000000000000000000000001790915561099a9073ffffffffffffffffffffffffffffffffffffffff16826a0d667bc27c916ffd00000061145a565b6001546040805173ffffffffffffffffffffffffffffffffffffffff928316815291831660208301526a0d667bc27c916ffd000000908201527fafdc1eb311d58306e249917b5ca0044a827a66f0ec535c334d63372c4055d36490606001610632565b60005473ffffffffffffffffffffffffffffffffffffffff163314610a7e576040517f08c379a000000000000000000000000000000000000000000000000000000000815260206004820181905260248201527f4f776e61626c653a2063616c6c6572206973206e6f7420746865206f776e6572604482015260640161048b565b600154790100000000000000000000000000000000000000000000000000900460ff1615610ad8576040517f039569e000000000000000000000000000000000000000000000000000000000815260040160405180910390fd5b73ffffffffffffffffffffffffffffffffffffffff8116610b55576040517f8115530e00000000000000000000000000000000000000000000000000000000815260206004820152600e60248201527f76657374696e67506172746e6572000000000000000000000000000000000000604482015260640161048b565b600180547fffffffffffff00ffffffffffffffffffffffffffffffffffffffffffffffffff811679010000000000000000000000000000000000000000000000000017909155610bc79073ffffffffffffffffffffffffffffffffffffffff16826a1b0c7e8d50c6c0dd80000061145a565b6001546040805173ffffffffffffffffffffffffffffffffffffffff928316815291831660208301526a1b0c7e8d50c6c0dd800000908201527fafdc1eb311d58306e249917b5ca0044a827a66f0ec535c334d63372c4055d36490606001610632565b60005473ffffffffffffffffffffffffffffffffffffffff163314610cab576040517f08c379a000000000000000000000000000000000000000000000000000000000815260206004820181905260248201527f4f776e61626c653a2063616c6c6572206973206e6f7420746865206f776e6572604482015260640161048b565b610cb560006114ec565b565b60005473ffffffffffffffffffffffffffffffffffffffff163314610d38576040517f08c379a000000000000000000000000000000000000000000000000000000000815260206004820181905260248201527f4f776e61626c653a2063616c6c6572206973206e6f7420746865206f776e6572604482015260640161048b565b60015474010000000000000000000000000000000000000000900460ff1615610d8d576040517f039569e000000000000000000000000000000000000000000000000000000000815260040160405180910390fd5b73ffffffffffffffffffffffffffffffffffffffff8116610e0a576040517f8115530e00000000000000000000000000000000000000000000000000000000815260206004820152600860248201527f7472656173757279000000000000000000000000000000000000000000000000604482015260640161048b565b600180547fffffffffffffffffffffff00ffffffffffffffffffffffffffffffffffffffff81167401000000000000000000000000000000000000000017909155610e779073ffffffffffffffffffffffffffffffffffffffff16826a1517d5c51969ab8980000061145a565b6001546040805173ffffffffffffffffffffffffffffffffffffffff928316815291831660208301526a1517d5c51969ab89800000908201527fafdc1eb311d58306e249917b5ca0044a827a66f0ec535c334d63372c4055d36490606001610632565b60005473ffffffffffffffffffffffffffffffffffffffff163314610f5b576040517f08c379a000000000000000000000000000000000000000000000000000000000815260206004820181905260248201527f4f776e61626c653a2063616c6c6572206973206e6f7420746865206f776e6572604482015260640161048b565b600154760100000000000000000000000000000000000000000000900460ff1615610fb2576040517f039569e000000000000000000000000000000000000000000000000000000000815260040160405180910390fd5b73ffffffffffffffffffffffffffffffffffffffff811661102f576040517f8115530e00000000000000000000000000000000000000000000000000000000815260206004820152601060248201527f636f6d6d756e6974795265776172647300000000000000000000000000000000604482015260640161048b565b600180547fffffffffffffffffff00ffffffffffffffffffffffffffffffffffffffffffff81167601000000000000000000000000000000000000000000001790915561109e9073ffffffffffffffffffffffffffffffffffffffff16826a0c685fa11e01ec6f00000061145a565b6001546040805173ffffffffffffffffffffffffffffffffffffffff928316815291831660208301526a0c685fa11e01ec6f000000908201527fafdc1eb311d58306e249917b5ca0044a827a66f0ec535c334d63372c4055d36490606001610632565b60005473ffffffffffffffffffffffffffffffffffffffff163314611182576040517f08c379a000000000000000000000000000000000000000000000000000000000815260206004820181905260248201527f4f776e61626c653a2063616c6c6572206973206e6f7420746865206f776e6572604482015260640161048b565b60015477010000000000000000000000000000000000000000000000900460ff16156111da576040517f039569e000000000000000000000000000000000000000000000000000000000815260040160405180910390fd5b73ffffffffffffffffffffffffffffffffffffffff8116611257576040517f8115530e00000000000000000000000000000000000000000000000000000000815260206004820152601060248201527f636f6d6d756e69747941697264726f7000000000000000000000000000000000604482015260640161048b565b600180547fffffffffffffffff00ffffffffffffffffffffffffffffffffffffffffffffff811677010000000000000000000000000000000000000000000000179091556112c79073ffffffffffffffffffffffffffffffffffffffff16826a084595161401484a00000061145a565b6001546040805173ffffffffffffffffffffffffffffffffffffffff928316815291831660208301526a084595161401484a000000908201527fafdc1eb311d58306e249917b5ca0044a827a66f0ec535c334d63372c4055d36490606001610632565b60005473ffffffffffffffffffffffffffffffffffffffff1633146113ab576040517f08c379a000000000000000000000000000000000000000000000000000000000815260206004820181905260248201527f4f776e61626c653a2063616c6c6572206973206e6f7420746865206f776e6572604482015260640161048b565b73ffffffffffffffffffffffffffffffffffffffff811661144e576040517f08c379a000000000000000000000000000000000000000000000000000000000815260206004820152602660248201527f4f776e61626c653a206e6577206f776e657220697320746865207a65726f206160448201527f6464726573730000000000000000000000000000000000000000000000000000606482015260840161048b565b611457816114ec565b50565b6040805173ffffffffffffffffffffffffffffffffffffffff8416602482015260448082018490528251808303909101815260649091019091526020810180517bffffffffffffffffffffffffffffffffffffffffffffffffffffffff167fa9059cbb000000000000000000000000000000000000000000000000000000001790526114e7908490611561565b505050565b6000805473ffffffffffffffffffffffffffffffffffffffff8381167fffffffffffffffffffffffff0000000000000000000000000000000000000000831681178455604051919092169283917f8be0079c531659141344cd1fd0a4f28419497f9722a3daafe3b4186f6b6457e09190a35050565b60006115c3826040518060400160405280602081526020017f5361666545524332303a206c6f772d6c6576656c2063616c6c206661696c65648152508573ffffffffffffffffffffffffffffffffffffffff1661166d9092919063ffffffff16565b8051909150156114e757808060200190518101906115e19190611898565b6114e7576040517f08c379a000000000000000000000000000000000000000000000000000000000815260206004820152602a60248201527f5361666545524332303a204552433230206f7065726174696f6e20646964206e60448201527f6f74207375636365656400000000000000000000000000000000000000000000606482015260840161048b565b606061167c8484600085611686565b90505b9392505050565b606082471015611718576040517f08c379a000000000000000000000000000000000000000000000000000000000815260206004820152602660248201527f416464726573733a20696e73756666696369656e742062616c616e636520666f60448201527f722063616c6c0000000000000000000000000000000000000000000000000000606482015260840161048b565b843b611780576040517f08c379a000000000000000000000000000000000000000000000000000000000815260206004820152601d60248201527f416464726573733a2063616c6c20746f206e6f6e2d636f6e7472616374000000604482015260640161048b565b6000808673ffffffffffffffffffffffffffffffffffffffff1685876040516117a991906118de565b60006040518083038185875af1925050503d80600081146117e6576040519150601f19603f3d011682016040523d82523d6000602084013e6117eb565b606091505b50915091506117fb828286611806565b979650505050505050565b6060831561181557508161167f565b8251156118255782518084602001fd5b816040517f08c379a000000000000000000000000000000000000000000000000000000000815260040161048b91906118fa565b73ffffffffffffffffffffffffffffffffffffffff8116811461145757600080fd5b60006020828403121561188d57600080fd5b813561167f81611859565b6000602082840312156118aa57600080fd5b8151801515811461167f57600080fd5b60005b838110156118d55781810151838201526020016118bd565b50506000910152565b600082516118f08184602087016118ba565b9190910192915050565b60208152600082518060208401526119198160408501602087016118ba565b601f017fffffffffffffffffffffffffffffffffffffffffffffffffffffffffffffffe016919091016040019291505056fea164736f6c6343000812000a",
  "linkReferences": {},
  "deployedLinkReferences": {}
}