{
  "_format": "hh-sol-artifact-1",
  "contractName": "ArcadeTreasury",
  "sourceName": "contracts/ArcadeTreasury.sol",
  "abi": [
    {
      "inputs": [
        {
          "internalType": "address",
          "name": "_timelock",
          "type": "address"
        }
      ],
      "stateMutability": "nonpayable",
      "type": "constructor"
    },
    {
      "inputs": [],
      "name": "T_ArrayLengthMismatch",
      "type": "error"
    },
    {
      "inputs": [],
      "name": "T_BlockSpendLimit",
      "type": "error"
    },
    {
      "inputs": [],
      "name": "T_CallFailed",
      "type": "error"
    },
    {
      "inputs": [
        {
          "internalType": "uint256",
          "name": "currentTime",
          "type": "uint256"
        },
        {
          "internalType": "uint256",
          "name": "coolDownPeriodEnd",
          "type": "uint256"
        }
      ],
      "name": "T_CoolDownPeriod",
      "type": "error"
    },
    {
      "inputs": [
        {
          "internalType": "uint256",
          "name": "newAllowance",
          "type": "uint256"
        },
        {
          "internalType": "uint256",
          "name": "smallSpendThreshold",
          "type": "uint256"
        }
      ],
      "name": "T_InvalidAllowance",
      "type": "error"
    },
    {
      "inputs": [
        {
          "internalType": "address",
          "name": "target",
          "type": "address"
        }
      ],
      "name": "T_InvalidTarget",
      "type": "error"
    },
    {
      "inputs": [],
      "name": "T_ThresholdsNotAscending",
      "type": "error"
    },
    {
      "inputs": [
        {
          "internalType": "string",
          "name": "addressType",
          "type": "string"
        }
      ],
      "name": "T_ZeroAddress",
      "type": "error"
    },
    {
      "inputs": [],
      "name": "T_ZeroAmount",
      "type": "error"
    },
    {
      "anonymous": false,
      "inputs": [
        {
          "indexed": true,
          "internalType": "address",
          "name": "token",
          "type": "address"
        },
        {
          "indexed": false,
          "internalType": "uint256",
          "name": "amount",
          "type": "uint256"
        }
      ],
      "name": "GSCAllowanceUpdated",
      "type": "event"
    },
    {
      "anonymous": false,
      "inputs": [
        {
          "indexed": true,
          "internalType": "bytes32",
          "name": "role",
          "type": "bytes32"
        },
        {
          "indexed": true,
          "internalType": "bytes32",
          "name": "previousAdminRole",
          "type": "bytes32"
        },
        {
          "indexed": true,
          "internalType": "bytes32",
          "name": "newAdminRole",
          "type": "bytes32"
        }
      ],
      "name": "RoleAdminChanged",
      "type": "event"
    },
    {
      "anonymous": false,
      "inputs": [
        {
          "indexed": true,
          "internalType": "bytes32",
          "name": "role",
          "type": "bytes32"
        },
        {
          "indexed": true,
          "internalType": "address",
          "name": "account",
          "type": "address"
        },
        {
          "indexed": true,
          "internalType": "address",
          "name": "sender",
          "type": "address"
        }
      ],
      "name": "RoleGranted",
      "type": "event"
    },
    {
      "anonymous": false,
      "inputs": [
        {
          "indexed": true,
          "internalType": "bytes32",
          "name": "role",
          "type": "bytes32"
        },
        {
          "indexed": true,
          "internalType": "address",
          "name": "account",
          "type": "address"
        },
        {
          "indexed": true,
          "internalType": "address",
          "name": "sender",
          "type": "address"
        }
      ],
      "name": "RoleRevoked",
      "type": "event"
    },
    {
      "anonymous": false,
      "inputs": [
        {
          "indexed": true,
          "internalType": "address",
          "name": "token",
          "type": "address"
        },
        {
          "components": [
            {
              "internalType": "uint256",
              "name": "small",
              "type": "uint256"
            },
            {
              "internalType": "uint256",
              "name": "medium",
              "type": "uint256"
            },
            {
              "internalType": "uint256",
              "name": "large",
              "type": "uint256"
            }
          ],
          "indexed": false,
          "internalType": "struct IArcadeTreasury.SpendThreshold",
          "name": "thresholds",
          "type": "tuple"
        }
      ],
      "name": "SpendThresholdsUpdated",
      "type": "event"
    },
    {
      "anonymous": false,
      "inputs": [
        {
          "indexed": true,
          "internalType": "address",
          "name": "token",
          "type": "address"
        },
        {
          "indexed": true,
          "internalType": "address",
          "name": "spender",
          "type": "address"
        },
        {
          "indexed": false,
          "internalType": "uint256",
          "name": "amount",
          "type": "uint256"
        }
      ],
      "name": "TreasuryApproval",
      "type": "event"
    },
    {
      "anonymous": false,
      "inputs": [
        {
          "indexed": true,
          "internalType": "address",
          "name": "token",
          "type": "address"
        },
        {
          "indexed": true,
          "internalType": "address",
          "name": "destination",
          "type": "address"
        },
        {
          "indexed": false,
          "internalType": "uint256",
          "name": "amount",
          "type": "uint256"
        }
      ],
      "name": "TreasuryTransfer",
      "type": "event"
    },
    {
      "inputs": [],
      "name": "ADMIN_ROLE",
      "outputs": [
        {
          "internalType": "bytes32",
          "name": "",
          "type": "bytes32"
        }
      ],
      "stateMutability": "view",
      "type": "function"
    },
    {
      "inputs": [],
      "name": "CORE_VOTING_ROLE",
      "outputs": [
        {
          "internalType": "bytes32",
          "name": "",
          "type": "bytes32"
        }
      ],
      "stateMutability": "view",
      "type": "function"
    },
    {
      "inputs": [],
      "name": "DEFAULT_ADMIN_ROLE",
      "outputs": [
        {
          "internalType": "bytes32",
          "name": "",
          "type": "bytes32"
        }
      ],
      "stateMutability": "view",
      "type": "function"
    },
    {
      "inputs": [],
      "name": "GSC_CORE_VOTING_ROLE",
      "outputs": [
        {
          "internalType": "bytes32",
          "name": "",
          "type": "bytes32"
        }
      ],
      "stateMutability": "view",
      "type": "function"
    },
    {
      "inputs": [],
      "name": "SET_ALLOWANCE_COOL_DOWN",
      "outputs": [
        {
          "internalType": "uint48",
          "name": "",
          "type": "uint48"
        }
      ],
      "stateMutability": "view",
      "type": "function"
    },
    {
      "inputs": [
        {
          "internalType": "address",
          "name": "token",
          "type": "address"
        },
        {
          "internalType": "address",
          "name": "spender",
          "type": "address"
        },
        {
          "internalType": "uint256",
          "name": "amount",
          "type": "uint256"
        }
      ],
      "name": "approveLargeSpend",
      "outputs": [],
      "stateMutability": "nonpayable",
      "type": "function"
    },
    {
      "inputs": [
        {
          "internalType": "address",
          "name": "token",
          "type": "address"
        },
        {
          "internalType": "address",
          "name": "spender",
          "type": "address"
        },
        {
          "internalType": "uint256",
          "name": "amount",
          "type": "uint256"
        }
      ],
      "name": "approveMediumSpend",
      "outputs": [],
      "stateMutability": "nonpayable",
      "type": "function"
    },
    {
      "inputs": [
        {
          "internalType": "address",
          "name": "token",
          "type": "address"
        },
        {
          "internalType": "address",
          "name": "spender",
          "type": "address"
        },
        {
          "internalType": "uint256",
          "name": "amount",
          "type": "uint256"
        }
      ],
      "name": "approveSmallSpend",
      "outputs": [],
      "stateMutability": "nonpayable",
      "type": "function"
    },
    {
      "inputs": [
        {
          "internalType": "address[]",
          "name": "targets",
          "type": "address[]"
        },
        {
          "internalType": "bytes[]",
          "name": "calldatas",
          "type": "bytes[]"
        }
      ],
      "name": "batchCalls",
      "outputs": [],
      "stateMutability": "nonpayable",
      "type": "function"
    },
    {
      "inputs": [
        {
          "internalType": "uint256",
          "name": "",
          "type": "uint256"
        }
      ],
      "name": "blockExpenditure",
      "outputs": [
        {
          "internalType": "uint256",
          "name": "",
          "type": "uint256"
        }
      ],
      "stateMutability": "view",
      "type": "function"
    },
    {
      "inputs": [
        {
          "internalType": "bytes32",
          "name": "role",
          "type": "bytes32"
        }
      ],
      "name": "getRoleAdmin",
      "outputs": [
        {
          "internalType": "bytes32",
          "name": "",
          "type": "bytes32"
        }
      ],
      "stateMutability": "view",
      "type": "function"
    },
    {
      "inputs": [
        {
          "internalType": "bytes32",
          "name": "role",
          "type": "bytes32"
        },
        {
          "internalType": "address",
          "name": "account",
          "type": "address"
        }
      ],
      "name": "grantRole",
      "outputs": [],
      "stateMutability": "nonpayable",
      "type": "function"
    },
    {
      "inputs": [
        {
          "internalType": "address",
          "name": "",
          "type": "address"
        }
      ],
      "name": "gscAllowance",
      "outputs": [
        {
          "internalType": "uint256",
          "name": "",
          "type": "uint256"
        }
      ],
      "stateMutability": "view",
      "type": "function"
    },
    {
      "inputs": [
        {
          "internalType": "address",
          "name": "token",
          "type": "address"
        },
        {
          "internalType": "address",
          "name": "spender",
          "type": "address"
        },
        {
          "internalType": "uint256",
          "name": "amount",
          "type": "uint256"
        }
      ],
      "name": "gscApprove",
      "outputs": [],
      "stateMutability": "nonpayable",
      "type": "function"
    },
    {
      "inputs": [
        {
          "internalType": "address",
          "name": "token",
          "type": "address"
        },
        {
          "internalType": "uint256",
          "name": "amount",
          "type": "uint256"
        },
        {
          "internalType": "address",
          "name": "destination",
          "type": "address"
        }
      ],
      "name": "gscSpend",
      "outputs": [],
      "stateMutability": "nonpayable",
      "type": "function"
    },
    {
      "inputs": [
        {
          "internalType": "bytes32",
          "name": "role",
          "type": "bytes32"
        },
        {
          "internalType": "address",
          "name": "account",
          "type": "address"
        }
      ],
      "name": "hasRole",
      "outputs": [
        {
          "internalType": "bool",
          "name": "",
          "type": "bool"
        }
      ],
      "stateMutability": "view",
      "type": "function"
    },
    {
      "inputs": [
        {
          "internalType": "address",
          "name": "token",
          "type": "address"
        },
        {
          "internalType": "uint256",
          "name": "amount",
          "type": "uint256"
        },
        {
          "internalType": "address",
          "name": "destination",
          "type": "address"
        }
      ],
      "name": "largeSpend",
      "outputs": [],
      "stateMutability": "nonpayable",
      "type": "function"
    },
    {
      "inputs": [
        {
          "internalType": "address",
          "name": "",
          "type": "address"
        }
      ],
      "name": "lastAllowanceSet",
      "outputs": [
        {
          "internalType": "uint48",
          "name": "",
          "type": "uint48"
        }
      ],
      "stateMutability": "view",
      "type": "function"
    },
    {
      "inputs": [
        {
          "internalType": "address",
          "name": "token",
          "type": "address"
        },
        {
          "internalType": "uint256",
          "name": "amount",
          "type": "uint256"
        },
        {
          "internalType": "address",
          "name": "destination",
          "type": "address"
        }
      ],
      "name": "mediumSpend",
      "outputs": [],
      "stateMutability": "nonpayable",
      "type": "function"
    },
    {
      "inputs": [
        {
          "internalType": "bytes32",
          "name": "role",
          "type": "bytes32"
        },
        {
          "internalType": "address",
          "name": "account",
          "type": "address"
        }
      ],
      "name": "renounceRole",
      "outputs": [],
      "stateMutability": "nonpayable",
      "type": "function"
    },
    {
      "inputs": [
        {
          "internalType": "bytes32",
          "name": "role",
          "type": "bytes32"
        },
        {
          "internalType": "address",
          "name": "account",
          "type": "address"
        }
      ],
      "name": "revokeRole",
      "outputs": [],
      "stateMutability": "nonpayable",
      "type": "function"
    },
    {
      "inputs": [
        {
          "internalType": "address",
          "name": "token",
          "type": "address"
        },
        {
          "internalType": "uint256",
          "name": "newAllowance",
          "type": "uint256"
        }
      ],
      "name": "setGSCAllowance",
      "outputs": [],
      "stateMutability": "nonpayable",
      "type": "function"
    },
    {
      "inputs": [
        {
          "internalType": "address",
          "name": "token",
          "type": "address"
        },
        {
          "components": [
            {
              "internalType": "uint256",
              "name": "small",
              "type": "uint256"
            },
            {
              "internalType": "uint256",
              "name": "medium",
              "type": "uint256"
            },
            {
              "internalType": "uint256",
              "name": "large",
              "type": "uint256"
            }
          ],
          "internalType": "struct IArcadeTreasury.SpendThreshold",
          "name": "thresholds",
          "type": "tuple"
        }
      ],
      "name": "setThreshold",
      "outputs": [],
      "stateMutability": "nonpayable",
      "type": "function"
    },
    {
      "inputs": [
        {
          "internalType": "address",
          "name": "token",
          "type": "address"
        },
        {
          "internalType": "uint256",
          "name": "amount",
          "type": "uint256"
        },
        {
          "internalType": "address",
          "name": "destination",
          "type": "address"
        }
      ],
      "name": "smallSpend",
      "outputs": [],
      "stateMutability": "nonpayable",
      "type": "function"
    },
    {
      "inputs": [
        {
          "internalType": "address",
          "name": "",
          "type": "address"
        }
      ],
      "name": "spendThresholds",
      "outputs": [
        {
          "internalType": "uint256",
          "name": "small",
          "type": "uint256"
        },
        {
          "internalType": "uint256",
          "name": "medium",
          "type": "uint256"
        },
        {
          "internalType": "uint256",
          "name": "large",
          "type": "uint256"
        }
      ],
      "stateMutability": "view",
      "type": "function"
    },
    {
      "inputs": [
        {
          "internalType": "bytes4",
          "name": "interfaceId",
          "type": "bytes4"
        }
      ],
      "name": "supportsInterface",
      "outputs": [
        {
          "internalType": "bool",
          "name": "",
          "type": "bool"
        }
      ],
      "stateMutability": "view",
      "type": "function"
    },
    {
      "stateMutability": "payable",
      "type": "receive"
    }
  ],
  "bytecode": "0x60806040523480156200001157600080fd5b50604051620030483803806200304883398101604081905262000034916200022d565b600180556001600160a01b0381166200007f5760405163eecd1f0b60e01b815260206004820152600860248201526774696d656c6f636b60c01b604482015260640160405180910390fd5b6200009a600080516020620030288339815191528262000132565b620000b5600080516020620030288339815191528062000142565b620000f07f8aa473cfcbc2f47e563b0347f1895bc8c575e9a4a6ef2d6f6b36961335761c676000805160206200302883398151915262000142565b6200012b7fa03d5e35ed6e147ad31d18547402c0b7a7af8daf4981f49a281906cd22e30b746000805160206200302883398151915262000142565b506200025f565b6200013e82826200018d565b5050565b600082815260208190526040808220600101805490849055905190918391839186917fbd79b86ffe0ab8e8776151514217cd7cacd52c909f66475c3af44e129f0b00ff9190a4505050565b6000828152602081815260408083206001600160a01b038516845290915290205460ff166200013e576000828152602081815260408083206001600160a01b03851684529091529020805460ff19166001179055620001e93390565b6001600160a01b0316816001600160a01b0316837f2f8788117e7eff1d82e926ec794901d17c78024a50270940304540a733656f0d60405160405180910390a45050565b6000602082840312156200024057600080fd5b81516001600160a01b03811681146200025857600080fd5b9392505050565b612db9806200026f6000396000f3fe6080604052600436106101a55760003560e01c806375b238fc116100e1578063a217fddf1161008a578063d547741f11610064578063d547741f1461056f578063ec36ca8c1461058f578063fbada999146105bc578063fe3738c0146105dc57600080fd5b8063a217fddf14610505578063a2873bbb1461051a578063a590afda1461054f57600080fd5b8063915380bb116100bb578063915380bb1461047457806391d14854146104945780639e9d407e146104e557600080fd5b806375b238fc146103bb57806379fd6858146103ef5780637f26b4241461041d57600080fd5b80632f2ff15d1161014e57806346e4490a1161012857806346e4490a1461032757806363fc6a0a146103475780636dda68fa14610367578063725549bd1461038757600080fd5b80632f2ff15d146102c7578063321d7e02146102e757806336568abe1461030757600080fd5b8063202c77561161017f578063202c775614610243578063248a9ca314610277578063264337eb146102a757600080fd5b806301ffc9a7146101b157806317ad7362146101e65780631b3a9e6c1461020857600080fd5b366101ac57005b600080fd5b3480156101bd57600080fd5b506101d16101cc36600461272c565b6105fc565b60405190151581526020015b60405180910390f35b3480156101f257600080fd5b50610206610201366004612815565b610695565b005b34801561021457600080fd5b506102356102233660046128b3565b60046020526000908152604090205481565b6040519081526020016101dd565b34801561024f57600080fd5b506102357f8aa473cfcbc2f47e563b0347f1895bc8c575e9a4a6ef2d6f6b36961335761c6781565b34801561028357600080fd5b506102356102923660046128ce565b60009081526020819052604090206001015490565b3480156102b357600080fd5b506102066102c23660046128e7565b6108ef565b3480156102d357600080fd5b506102066102e2366004612923565b610a84565b3480156102f357600080fd5b506102066103023660046128e7565b610aaf565b34801561031357600080fd5b50610206610322366004612923565b610c3a565b34801561033357600080fd5b5061020661034236600461294f565b610ced565b34801561035357600080fd5b506102066103623660046129c5565b610fa6565b34801561037357600080fd5b50610206610382366004612a99565b611251565b34801561039357600080fd5b506102357fa03d5e35ed6e147ad31d18547402c0b7a7af8daf4981f49a281906cd22e30b7481565b3480156103c757600080fd5b506102357fdf8b4c520ffe197c5343c6f5aec59570151ef9a492f2c624fd45ddde6135ec4281565b3480156103fb57600080fd5b5061040662093a8081565b60405165ffffffffffff90911681526020016101dd565b34801561042957600080fd5b506104596104383660046128b3565b60036020526000908152604090208054600182015460029092015490919083565b604080519384526020840192909252908201526060016101dd565b34801561048057600080fd5b5061020661048f366004612a99565b611413565b3480156104a057600080fd5b506101d16104af366004612923565b60009182526020828152604080842073ffffffffffffffffffffffffffffffffffffffff93909316845291905290205460ff1690565b3480156104f157600080fd5b506102066105003660046128e7565b61159b565b34801561051157600080fd5b50610235600081565b34801561052657600080fd5b506104066105353660046128b3565b60026020526000908152604090205465ffffffffffff1681565b34801561055b57600080fd5b5061020661056a3660046128e7565b611723565b34801561057b57600080fd5b5061020661058a366004612923565b6118e5565b34801561059b57600080fd5b506102356105aa3660046128ce565b60056020526000908152604090205481565b3480156105c857600080fd5b506102066105d7366004612a99565b61190b565b3480156105e857600080fd5b506102066105f7366004612a99565b611a96565b60007fffffffff0000000000000000000000000000000000000000000000000000000082167f7965db0b00000000000000000000000000000000000000000000000000000000148061068f57507f01ffc9a7000000000000000000000000000000000000000000000000000000007fffffffff000000000000000000000000000000000000000000000000000000008316145b92915050565b7fdf8b4c520ffe197c5343c6f5aec59570151ef9a492f2c624fd45ddde6135ec426106c08133611c21565b73ffffffffffffffffffffffffffffffffffffffff8316610742576040517feecd1f0b00000000000000000000000000000000000000000000000000000000815260206004820152600560248201527f746f6b656e00000000000000000000000000000000000000000000000000000060448201526064015b60405180910390fd5b815160000361077d576040517f647f185400000000000000000000000000000000000000000000000000000000815260040160405180910390fd5b816020015182604001511080610797575081516020830151105b156107ce576040517f0a023e0700000000000000000000000000000000000000000000000000000000815260040160405180910390fd5b73ffffffffffffffffffffffffffffffffffffffff83166000908152600460205260409020548251101561086657815173ffffffffffffffffffffffffffffffffffffffff841660008181526004602052604090819020929092558351915190917fddcfd964bb201517ff9118e698f638eafecb628817182cecf7d235201e07f5249161085d91815260200190565b60405180910390a25b73ffffffffffffffffffffffffffffffffffffffff8316600081815260036020908152604091829020855180825586830180516001840155878501805160029094019390935584519182525192810192909252518183015290517ffc92941a57668f7df1b2f8ae945ea962a5979a00671ad55438351403edf396059181900360600190a2505050565b7fa03d5e35ed6e147ad31d18547402c0b7a7af8daf4981f49a281906cd22e30b7461091a8133611c21565b600260015403610986576040517f08c379a000000000000000000000000000000000000000000000000000000000815260206004820152601f60248201527f5265656e7472616e637947756172643a207265656e7472616e742063616c6c006044820152606401610739565b600260015573ffffffffffffffffffffffffffffffffffffffff8316610a08576040517feecd1f0b00000000000000000000000000000000000000000000000000000000815260206004820152600760248201527f7370656e646572000000000000000000000000000000000000000000000000006044820152606401610739565b81600003610a42576040517f647f185400000000000000000000000000000000000000000000000000000000815260040160405180910390fd5b73ffffffffffffffffffffffffffffffffffffffff8416600090815260036020526040902060010154610a7a90859085908590611cf1565b5050600180555050565b600082815260208190526040902060010154610aa08133611c21565b610aaa8383611e69565b505050565b7fa03d5e35ed6e147ad31d18547402c0b7a7af8daf4981f49a281906cd22e30b74610ada8133611c21565b600260015403610b46576040517f08c379a000000000000000000000000000000000000000000000000000000000815260206004820152601f60248201527f5265656e7472616e637947756172643a207265656e7472616e742063616c6c006044820152606401610739565b600260015573ffffffffffffffffffffffffffffffffffffffff8316610bc8576040517feecd1f0b00000000000000000000000000000000000000000000000000000000815260206004820152600760248201527f7370656e646572000000000000000000000000000000000000000000000000006044820152606401610739565b81600003610c02576040517f647f185400000000000000000000000000000000000000000000000000000000815260040160405180910390fd5b73ffffffffffffffffffffffffffffffffffffffff8416600090815260036020526040902060020154610a7a90859085908590611cf1565b73ffffffffffffffffffffffffffffffffffffffff81163314610cdf576040517f08c379a000000000000000000000000000000000000000000000000000000000815260206004820152602f60248201527f416363657373436f6e74726f6c3a2063616e206f6e6c792072656e6f756e636560448201527f20726f6c657320666f722073656c6600000000000000000000000000000000006064820152608401610739565b610ce98282611f59565b5050565b7fdf8b4c520ffe197c5343c6f5aec59570151ef9a492f2c624fd45ddde6135ec42610d188133611c21565b73ffffffffffffffffffffffffffffffffffffffff8316610d95576040517feecd1f0b00000000000000000000000000000000000000000000000000000000815260206004820152600560248201527f746f6b656e0000000000000000000000000000000000000000000000000000006044820152606401610739565b81600003610dcf576040517f647f185400000000000000000000000000000000000000000000000000000000815260040160405180910390fd5b73ffffffffffffffffffffffffffffffffffffffff8316600090815260026020526040902054610e0b9062093a809065ffffffffffff16612b04565b65ffffffffffff164265ffffffffffff161015610ea35773ffffffffffffffffffffffffffffffffffffffff83166000908152600260205260409020544290610e609062093a809065ffffffffffff16612b04565b6040517fd436999f000000000000000000000000000000000000000000000000000000008152600481019290925265ffffffffffff166024820152604401610739565b73ffffffffffffffffffffffffffffffffffffffff831660009081526003602052604090205480831115610f0d576040517f9eb898540000000000000000000000000000000000000000000000000000000081526004810184905260248101829052604401610739565b73ffffffffffffffffffffffffffffffffffffffff8416600081815260026020908152604080832080547fffffffffffffffffffffffffffffffffffffffffffffffffffff000000000000164265ffffffffffff16179055600482529182902086905590518581527fddcfd964bb201517ff9118e698f638eafecb628817182cecf7d235201e07f524910160405180910390a250505050565b7fdf8b4c520ffe197c5343c6f5aec59570151ef9a492f2c624fd45ddde6135ec42610fd18133611c21565b60026001540361103d576040517f08c379a000000000000000000000000000000000000000000000000000000000815260206004820152601f60248201527f5265656e7472616e637947756172643a207265656e7472616e742063616c6c006044820152606401610739565b60026001558351821461107c576040517feff92c9f00000000000000000000000000000000000000000000000000000000815260040160405180910390fd5b60005b8451811015611246576003600086838151811061109e5761109e612b2a565b602002602001015173ffffffffffffffffffffffffffffffffffffffff1673ffffffffffffffffffffffffffffffffffffffff16815260200190815260200160002060000154600014611154578481815181106110fd576110fd612b2a565b60200260200101516040517f4e177b66000000000000000000000000000000000000000000000000000000008152600401610739919073ffffffffffffffffffffffffffffffffffffffff91909116815260200190565b600085828151811061116857611168612b2a565b602002602001015173ffffffffffffffffffffffffffffffffffffffff1685858481811061119857611198612b2a565b90506020028101906111aa9190612b59565b6040516111b8929190612bbe565b6000604051808303816000865af19150503d80600081146111f5576040519150601f19603f3d011682016040523d82523d6000602084013e6111fa565b606091505b5050905080611235576040517fc284a48d00000000000000000000000000000000000000000000000000000000815260040160405180910390fd5b5061123f81612bce565b905061107f565b505060018055505050565b7f8aa473cfcbc2f47e563b0347f1895bc8c575e9a4a6ef2d6f6b36961335761c6761127c8133611c21565b6002600154036112e8576040517f08c379a000000000000000000000000000000000000000000000000000000000815260206004820152601f60248201527f5265656e7472616e637947756172643a207265656e7472616e742063616c6c006044820152606401610739565b600260015573ffffffffffffffffffffffffffffffffffffffff821661136a576040517feecd1f0b00000000000000000000000000000000000000000000000000000000815260206004820152600b60248201527f64657374696e6174696f6e0000000000000000000000000000000000000000006044820152606401610739565b826000036113a4576040517f647f185400000000000000000000000000000000000000000000000000000000815260040160405180910390fd5b73ffffffffffffffffffffffffffffffffffffffff8416600090815260046020526040812080548592906113d9908490612c06565b909155505073ffffffffffffffffffffffffffffffffffffffff8416600090815260036020526040902054610a7a90859085908590612010565b7fa03d5e35ed6e147ad31d18547402c0b7a7af8daf4981f49a281906cd22e30b7461143e8133611c21565b6002600154036114aa576040517f08c379a000000000000000000000000000000000000000000000000000000000815260206004820152601f60248201527f5265656e7472616e637947756172643a207265656e7472616e742063616c6c006044820152606401610739565b600260015573ffffffffffffffffffffffffffffffffffffffff821661152c576040517feecd1f0b00000000000000000000000000000000000000000000000000000000815260206004820152600b60248201527f64657374696e6174696f6e0000000000000000000000000000000000000000006044820152606401610739565b82600003611566576040517f647f185400000000000000000000000000000000000000000000000000000000815260040160405180910390fd5b73ffffffffffffffffffffffffffffffffffffffff8416600090815260036020526040902054610a7a90859085908590612010565b7fa03d5e35ed6e147ad31d18547402c0b7a7af8daf4981f49a281906cd22e30b746115c68133611c21565b600260015403611632576040517f08c379a000000000000000000000000000000000000000000000000000000000815260206004820152601f60248201527f5265656e7472616e637947756172643a207265656e7472616e742063616c6c006044820152606401610739565b600260015573ffffffffffffffffffffffffffffffffffffffff83166116b4576040517feecd1f0b00000000000000000000000000000000000000000000000000000000815260206004820152600760248201527f7370656e646572000000000000000000000000000000000000000000000000006044820152606401610739565b816000036116ee576040517f647f185400000000000000000000000000000000000000000000000000000000815260040160405180910390fd5b73ffffffffffffffffffffffffffffffffffffffff8416600090815260036020526040902054610a7a90859085908590611cf1565b7f8aa473cfcbc2f47e563b0347f1895bc8c575e9a4a6ef2d6f6b36961335761c6761174e8133611c21565b6002600154036117ba576040517f08c379a000000000000000000000000000000000000000000000000000000000815260206004820152601f60248201527f5265656e7472616e637947756172643a207265656e7472616e742063616c6c006044820152606401610739565b600260015573ffffffffffffffffffffffffffffffffffffffff831661183c576040517feecd1f0b00000000000000000000000000000000000000000000000000000000815260206004820152600760248201527f7370656e646572000000000000000000000000000000000000000000000000006044820152606401610739565b81600003611876576040517f647f185400000000000000000000000000000000000000000000000000000000815260040160405180910390fd5b73ffffffffffffffffffffffffffffffffffffffff8416600090815260046020526040812080548492906118ab908490612c06565b909155505073ffffffffffffffffffffffffffffffffffffffff8416600090815260036020526040902054610a7a90859085908590611cf1565b6000828152602081905260409020600101546119018133611c21565b610aaa8383611f59565b7fa03d5e35ed6e147ad31d18547402c0b7a7af8daf4981f49a281906cd22e30b746119368133611c21565b6002600154036119a2576040517f08c379a000000000000000000000000000000000000000000000000000000000815260206004820152601f60248201527f5265656e7472616e637947756172643a207265656e7472616e742063616c6c006044820152606401610739565b600260015573ffffffffffffffffffffffffffffffffffffffff8216611a24576040517feecd1f0b00000000000000000000000000000000000000000000000000000000815260206004820152600b60248201527f64657374696e6174696f6e0000000000000000000000000000000000000000006044820152606401610739565b82600003611a5e576040517f647f185400000000000000000000000000000000000000000000000000000000815260040160405180910390fd5b73ffffffffffffffffffffffffffffffffffffffff8416600090815260036020526040902060020154610a7a90859085908590612010565b7fa03d5e35ed6e147ad31d18547402c0b7a7af8daf4981f49a281906cd22e30b74611ac18133611c21565b600260015403611b2d576040517f08c379a000000000000000000000000000000000000000000000000000000000815260206004820152601f60248201527f5265656e7472616e637947756172643a207265656e7472616e742063616c6c006044820152606401610739565b600260015573ffffffffffffffffffffffffffffffffffffffff8216611baf576040517feecd1f0b00000000000000000000000000000000000000000000000000000000815260206004820152600b60248201527f64657374696e6174696f6e0000000000000000000000000000000000000000006044820152606401610739565b82600003611be9576040517f647f185400000000000000000000000000000000000000000000000000000000815260040160405180910390fd5b73ffffffffffffffffffffffffffffffffffffffff8416600090815260036020526040902060010154610a7a90859085908590612010565b60008281526020818152604080832073ffffffffffffffffffffffffffffffffffffffff8516845290915290205460ff16610ce957611c778173ffffffffffffffffffffffffffffffffffffffff166014612183565b611c82836020612183565b604051602001611c93929190612c3d565b604080517fffffffffffffffffffffffffffffffffffffffffffffffffffffffffffffffe0818403018152908290527f08c379a000000000000000000000000000000000000000000000000000000000825261073991600401612cbe565b4360009081526005602052604090205481611d0c8285612d0f565b1115611d44576040517fb13ecb7600000000000000000000000000000000000000000000000000000000815260040160405180910390fd5b611d4e8184612d0f565b436000908152600560205260409081902091909155517f095ea7b300000000000000000000000000000000000000000000000000000000815273ffffffffffffffffffffffffffffffffffffffff85811660048301526024820185905286169063095ea7b3906044016020604051808303816000875af1158015611dd6573d6000803e3d6000fd5b505050506040513d601f19601f82011682018060405250810190611dfa9190612d22565b508373ffffffffffffffffffffffffffffffffffffffff168573ffffffffffffffffffffffffffffffffffffffff167f9f765d37dbb696af622aa15a9653b034ee5344acf2d678fa5ece4341aad9a56185604051611e5a91815260200190565b60405180910390a35050505050565b60008281526020818152604080832073ffffffffffffffffffffffffffffffffffffffff8516845290915290205460ff16610ce95760008281526020818152604080832073ffffffffffffffffffffffffffffffffffffffff85168452909152902080547fffffffffffffffffffffffffffffffffffffffffffffffffffffffffffffff00166001179055611efb3390565b73ffffffffffffffffffffffffffffffffffffffff168173ffffffffffffffffffffffffffffffffffffffff16837f2f8788117e7eff1d82e926ec794901d17c78024a50270940304540a733656f0d60405160405180910390a45050565b60008281526020818152604080832073ffffffffffffffffffffffffffffffffffffffff8516845290915290205460ff1615610ce95760008281526020818152604080832073ffffffffffffffffffffffffffffffffffffffff8516808552925280832080547fffffffffffffffffffffffffffffffffffffffffffffffffffffffffffffff0016905551339285917ff6391f5c32d9c69d2a47ea670b442974b53935d1edc7fd64eb21e047a839171b9190a45050565b436000908152600560205260409020548161202b8286612d0f565b1115612063576040517fb13ecb7600000000000000000000000000000000000000000000000000000000815260040160405180910390fd5b61206d8185612d0f565b436000908152600560205260409020557fffffffffffffffffffffffff111111111111111111111111111111111111111273ffffffffffffffffffffffffffffffffffffffff8616016121035760405173ffffffffffffffffffffffffffffffffffffffff84169085156108fc029086906000818181858888f193505050501580156120fd573d6000803e3d6000fd5b50612124565b61212473ffffffffffffffffffffffffffffffffffffffff861684866123cd565b8273ffffffffffffffffffffffffffffffffffffffff168573ffffffffffffffffffffffffffffffffffffffff167f1d97b542f64a64787e03284ec8d388f486bee1ab706edeb0c909d925b77f0dea86604051611e5a91815260200190565b60606000612192836002612d44565b61219d906002612d0f565b67ffffffffffffffff8111156121b5576121b5612797565b6040519080825280601f01601f1916602001820160405280156121df576020820181803683370190505b5090507f30000000000000000000000000000000000000000000000000000000000000008160008151811061221657612216612b2a565b60200101907effffffffffffffffffffffffffffffffffffffffffffffffffffffffffffff1916908160001a9053507f78000000000000000000000000000000000000000000000000000000000000008160018151811061227957612279612b2a565b60200101907effffffffffffffffffffffffffffffffffffffffffffffffffffffffffffff1916908160001a90535060006122b5846002612d44565b6122c0906001612d0f565b90505b600181111561235d577f303132333435363738396162636465660000000000000000000000000000000085600f166010811061230157612301612b2a565b1a60f81b82828151811061231757612317612b2a565b60200101907effffffffffffffffffffffffffffffffffffffffffffffffffffffffffffff1916908160001a90535060049490941c9361235681612d5b565b90506122c3565b5083156123c6576040517f08c379a000000000000000000000000000000000000000000000000000000000815260206004820181905260248201527f537472696e67733a20686578206c656e67746820696e73756666696369656e746044820152606401610739565b9392505050565b6040805173ffffffffffffffffffffffffffffffffffffffff848116602483015260448083018590528351808403909101815260649092018352602080830180517bffffffffffffffffffffffffffffffffffffffffffffffffffffffff167fa9059cbb0000000000000000000000000000000000000000000000000000000017905283518085019094528084527f5361666545524332303a206c6f772d6c6576656c2063616c6c206661696c656490840152610aaa92869291600091612498918516908490612542565b805190915015610aaa57808060200190518101906124b69190612d22565b610aaa576040517f08c379a000000000000000000000000000000000000000000000000000000000815260206004820152602a60248201527f5361666545524332303a204552433230206f7065726174696f6e20646964206e60448201527f6f742073756363656564000000000000000000000000000000000000000000006064820152608401610739565b60606125518484600085612559565b949350505050565b6060824710156125eb576040517f08c379a000000000000000000000000000000000000000000000000000000000815260206004820152602660248201527f416464726573733a20696e73756666696369656e742062616c616e636520666f60448201527f722063616c6c00000000000000000000000000000000000000000000000000006064820152608401610739565b843b612653576040517f08c379a000000000000000000000000000000000000000000000000000000000815260206004820152601d60248201527f416464726573733a2063616c6c20746f206e6f6e2d636f6e74726163740000006044820152606401610739565b6000808673ffffffffffffffffffffffffffffffffffffffff16858760405161267c9190612d90565b60006040518083038185875af1925050503d80600081146126b9576040519150601f19603f3d011682016040523d82523d6000602084013e6126be565b606091505b50915091506126ce8282866126d9565b979650505050505050565b606083156126e85750816123c6565b8251156126f85782518084602001fd5b816040517f08c379a00000000000000000000000000000000000000000000000000000000081526004016107399190612cbe565b60006020828403121561273e57600080fd5b81357fffffffff00000000000000000000000000000000000000000000000000000000811681146123c657600080fd5b803573ffffffffffffffffffffffffffffffffffffffff8116811461279257600080fd5b919050565b7f4e487b7100000000000000000000000000000000000000000000000000000000600052604160045260246000fd5b604051601f82017fffffffffffffffffffffffffffffffffffffffffffffffffffffffffffffffe016810167ffffffffffffffff8111828210171561280d5761280d612797565b604052919050565b600080828403608081121561282957600080fd5b6128328461276e565b925060607fffffffffffffffffffffffffffffffffffffffffffffffffffffffffffffffe08201121561286457600080fd5b506040516060810181811067ffffffffffffffff8211171561288857612888612797565b8060405250602084013581526040840135602082015260608401356040820152809150509250929050565b6000602082840312156128c557600080fd5b6123c68261276e565b6000602082840312156128e057600080fd5b5035919050565b6000806000606084860312156128fc57600080fd5b6129058461276e565b92506129136020850161276e565b9150604084013590509250925092565b6000806040838503121561293657600080fd5b823591506129466020840161276e565b90509250929050565b6000806040838503121561296257600080fd5b61296b8361276e565b946020939093013593505050565b60008083601f84011261298b57600080fd5b50813567ffffffffffffffff8111156129a357600080fd5b6020830191508360208260051b85010111156129be57600080fd5b9250929050565b6000806000604084860312156129da57600080fd5b833567ffffffffffffffff808211156129f257600080fd5b818601915086601f830112612a0657600080fd5b8135602082821115612a1a57612a1a612797565b8160051b612a298282016127c6565b928352848101820192828101908b851115612a4357600080fd5b958301955b84871015612a6857612a598761276e565b82529583019590830190612a48565b9850505087013592505080821115612a7f57600080fd5b50612a8c86828701612979565b9497909650939450505050565b600080600060608486031215612aae57600080fd5b612ab78461276e565b925060208401359150612acc6040850161276e565b90509250925092565b7f4e487b7100000000000000000000000000000000000000000000000000000000600052601160045260246000fd5b65ffffffffffff818116838216019080821115612b2357612b23612ad5565b5092915050565b7f4e487b7100000000000000000000000000000000000000000000000000000000600052603260045260246000fd5b60008083357fffffffffffffffffffffffffffffffffffffffffffffffffffffffffffffffe1843603018112612b8e57600080fd5b83018035915067ffffffffffffffff821115612ba957600080fd5b6020019150368190038213156129be57600080fd5b8183823760009101908152919050565b60007fffffffffffffffffffffffffffffffffffffffffffffffffffffffffffffffff8203612bff57612bff612ad5565b5060010190565b8181038181111561068f5761068f612ad5565b60005b83811015612c34578181015183820152602001612c1c565b50506000910152565b7f416363657373436f6e74726f6c3a206163636f756e7420000000000000000000815260008351612c75816017850160208801612c19565b7f206973206d697373696e6720726f6c65200000000000000000000000000000006017918401918201528351612cb2816028840160208801612c19565b01602801949350505050565b6020815260008251806020840152612cdd816040850160208701612c19565b601f017fffffffffffffffffffffffffffffffffffffffffffffffffffffffffffffffe0169190910160400192915050565b8082018082111561068f5761068f612ad5565b600060208284031215612d3457600080fd5b815180151581146123c657600080fd5b808202811582820484141761068f5761068f612ad5565b600081612d6a57612d6a612ad5565b507fffffffffffffffffffffffffffffffffffffffffffffffffffffffffffffffff0190565b60008251612da2818460208701612c19565b919091019291505056fea164736f6c6343000812000adf8b4c520ffe197c5343c6f5aec59570151ef9a492f2c624fd45ddde6135ec42",
  "linkReferences": {},
  "deployedLinkReferences": {}
}