{
  "_format": "hh-sol-artifact-1",
  "contractName": "NFTBoostVault",
  "sourceName": "contracts/NFTBoostVault.sol",
  "abi": [
    {
      "inputs": [
        {
          "internalType": "contract IERC20",
          "name": "token",
          "type": "address"
        },
        {
          "internalType": "uint256",
          "name": "staleBlockLag",
          "type": "uint256"
        },
        {
          "internalType": "address",
          "name": "timelock",
          "type": "address"
        },
        {
          "internalType": "address",
          "name": "manager",
          "type": "address"
        }
      ],
      "stateMutability": "nonpayable",
      "type": "constructor"
    },
    {
      "inputs": [],
      "name": "BVV_NotManager",
      "type": "error"
    },
    {
      "inputs": [],
      "name": "BVV_NotTimelock",
      "type": "error"
    },
    {
      "inputs": [
        {
          "internalType": "uint256",
          "name": "staleBlock",
          "type": "uint256"
        }
      ],
      "name": "BVV_UpperLimitBlock",
      "type": "error"
    },
    {
      "inputs": [
        {
          "internalType": "string",
          "name": "addressType",
          "type": "string"
        }
      ],
      "name": "BVV_ZeroAddress",
      "type": "error"
    },
    {
      "inputs": [],
      "name": "NBV_AlreadyDelegated",
      "type": "error"
    },
    {
      "inputs": [],
      "name": "NBV_AlreadyUnlocked",
      "type": "error"
    },
    {
      "inputs": [],
      "name": "NBV_ArrayTooManyElements",
      "type": "error"
    },
    {
      "inputs": [],
      "name": "NBV_DoesNotOwn",
      "type": "error"
    },
    {
      "inputs": [],
      "name": "NBV_HasRegistration",
      "type": "error"
    },
    {
      "inputs": [],
      "name": "NBV_InsufficientBalance",
      "type": "error"
    },
    {
      "inputs": [
        {
          "internalType": "uint256",
          "name": "withdrawable",
          "type": "uint256"
        }
      ],
      "name": "NBV_InsufficientWithdrawableBalance",
      "type": "error"
    },
    {
      "inputs": [
        {
          "internalType": "address",
          "name": "tokenAddress",
          "type": "address"
        },
        {
          "internalType": "uint256",
          "name": "tokenId",
          "type": "uint256"
        }
      ],
      "name": "NBV_InvalidNft",
      "type": "error"
    },
    {
      "inputs": [],
      "name": "NBV_Locked",
      "type": "error"
    },
    {
      "inputs": [],
      "name": "NBV_MultiplierLimit",
      "type": "error"
    },
    {
      "inputs": [],
      "name": "NBV_NoMultiplierSet",
      "type": "error"
    },
    {
      "inputs": [],
      "name": "NBV_NoRegistration",
      "type": "error"
    },
    {
      "inputs": [],
      "name": "NBV_NotAirdrop",
      "type": "error"
    },
    {
      "inputs": [
        {
          "internalType": "address",
          "name": "newDelegate",
          "type": "address"
        },
        {
          "internalType": "address",
          "name": "currentDelegate",
          "type": "address"
        }
      ],
      "name": "NBV_WrongDelegatee",
      "type": "error"
    },
    {
      "inputs": [
        {
          "internalType": "string",
          "name": "addressType",
          "type": "string"
        }
      ],
      "name": "NBV_ZeroAddress",
      "type": "error"
    },
    {
      "inputs": [],
      "name": "NBV_ZeroAmount",
      "type": "error"
    },
    {
      "anonymous": false,
      "inputs": [
        {
          "indexed": false,
          "internalType": "address",
          "name": "newAirdropContract",
          "type": "address"
        }
      ],
      "name": "AirdropContractUpdated",
      "type": "event"
    },
    {
      "anonymous": false,
      "inputs": [
        {
          "indexed": false,
          "internalType": "address",
          "name": "tokenAddress",
          "type": "address"
        },
        {
          "indexed": false,
          "internalType": "uint128",
          "name": "tokenId",
          "type": "uint128"
        },
        {
          "indexed": false,
          "internalType": "uint128",
          "name": "multiplier",
          "type": "uint128"
        }
      ],
      "name": "MultiplierSet",
      "type": "event"
    },
    {
      "anonymous": false,
      "inputs": [
        {
          "indexed": true,
          "internalType": "address",
          "name": "from",
          "type": "address"
        },
        {
          "indexed": true,
          "internalType": "address",
          "name": "to",
          "type": "address"
        },
        {
          "indexed": false,
          "internalType": "int256",
          "name": "amount",
          "type": "int256"
        }
      ],
      "name": "VoteChange",
      "type": "event"
    },
    {
      "anonymous": false,
      "inputs": [],
      "name": "WithdrawalsUnlocked",
      "type": "event"
    },
    {
      "inputs": [],
      "name": "MAX_MULTIPLIER",
      "outputs": [
        {
          "internalType": "uint128",
          "name": "",
          "type": "uint128"
        }
      ],
      "stateMutability": "view",
      "type": "function"
    },
    {
      "inputs": [],
      "name": "MULTIPLIER_DENOMINATOR",
      "outputs": [
        {
          "internalType": "uint128",
          "name": "",
          "type": "uint128"
        }
      ],
      "stateMutability": "view",
      "type": "function"
    },
    {
      "inputs": [
        {
          "internalType": "uint128",
          "name": "amount",
          "type": "uint128"
        },
        {
          "internalType": "uint128",
          "name": "tokenId",
          "type": "uint128"
        },
        {
          "internalType": "address",
          "name": "tokenAddress",
          "type": "address"
        },
        {
          "internalType": "address",
          "name": "delegatee",
          "type": "address"
        }
      ],
      "name": "addNftAndDelegate",
      "outputs": [],
      "stateMutability": "nonpayable",
      "type": "function"
    },
    {
      "inputs": [
        {
          "internalType": "uint128",
          "name": "amount",
          "type": "uint128"
        }
      ],
      "name": "addTokens",
      "outputs": [],
      "stateMutability": "nonpayable",
      "type": "function"
    },
    {
      "inputs": [
        {
          "internalType": "address",
          "name": "user",
          "type": "address"
        },
        {
          "internalType": "uint128",
          "name": "amount",
          "type": "uint128"
        },
        {
          "internalType": "address",
          "name": "delegatee",
          "type": "address"
        }
      ],
      "name": "airdropReceive",
      "outputs": [],
      "stateMutability": "nonpayable",
      "type": "function"
    },
    {
      "inputs": [
        {
          "internalType": "address",
          "name": "to",
          "type": "address"
        }
      ],
      "name": "delegate",
      "outputs": [],
      "stateMutability": "nonpayable",
      "type": "function"
    },
    {
      "inputs": [],
      "name": "getAirdropContract",
      "outputs": [
        {
          "internalType": "address",
          "name": "",
          "type": "address"
        }
      ],
      "stateMutability": "view",
      "type": "function"
    },
    {
      "inputs": [],
      "name": "getIsLocked",
      "outputs": [
        {
          "internalType": "uint256",
          "name": "",
          "type": "uint256"
        }
      ],
      "stateMutability": "view",
      "type": "function"
    },
    {
      "inputs": [
        {
          "internalType": "address",
          "name": "tokenAddress",
          "type": "address"
        },
        {
          "internalType": "uint128",
          "name": "tokenId",
          "type": "uint128"
        }
      ],
      "name": "getMultiplier",
      "outputs": [
        {
          "internalType": "uint128",
          "name": "",
          "type": "uint128"
        }
      ],
      "stateMutability": "view",
      "type": "function"
    },
    {
      "inputs": [
        {
          "internalType": "address",
          "name": "who",
          "type": "address"
        }
      ],
      "name": "getRegistration",
      "outputs": [
        {
          "components": [
            {
              "internalType": "uint128",
              "name": "amount",
              "type": "uint128"
            },
            {
              "internalType": "uint128",
              "name": "latestVotingPower",
              "type": "uint128"
            },
            {
              "internalType": "uint128",
              "name": "withdrawn",
              "type": "uint128"
            },
            {
              "internalType": "uint128",
              "name": "tokenId",
              "type": "uint128"
            },
            {
              "internalType": "address",
              "name": "tokenAddress",
              "type": "address"
            },
            {
              "internalType": "address",
              "name": "delegatee",
              "type": "address"
            }
          ],
          "internalType": "struct NFTBoostVaultStorage.Registration",
          "name": "",
          "type": "tuple"
        }
      ],
      "stateMutability": "view",
      "type": "function"
    },
    {
      "inputs": [],
      "name": "manager",
      "outputs": [
        {
          "internalType": "address",
          "name": "",
          "type": "address"
        }
      ],
      "stateMutability": "view",
      "type": "function"
    },
    {
      "inputs": [
        {
          "internalType": "address",
          "name": "",
          "type": "address"
        },
        {
          "internalType": "address",
          "name": "",
          "type": "address"
        },
        {
          "internalType": "uint256",
          "name": "",
          "type": "uint256"
        },
        {
          "internalType": "uint256",
          "name": "",
          "type": "uint256"
        },
        {
          "internalType": "bytes",
          "name": "",
          "type": "bytes"
        }
      ],
      "name": "onERC1155Received",
      "outputs": [
        {
          "internalType": "bytes4",
          "name": "",
          "type": "bytes4"
        }
      ],
      "stateMutability": "nonpayable",
      "type": "function"
    },
    {
      "inputs": [
        {
          "internalType": "address",
          "name": "user",
          "type": "address"
        },
        {
          "internalType": "uint256",
          "name": "blockNumber",
          "type": "uint256"
        },
        {
          "internalType": "bytes",
          "name": "",
          "type": "bytes"
        }
      ],
      "name": "queryVotePower",
      "outputs": [
        {
          "internalType": "uint256",
          "name": "",
          "type": "uint256"
        }
      ],
      "stateMutability": "nonpayable",
      "type": "function"
    },
    {
      "inputs": [
        {
          "internalType": "address",
          "name": "user",
          "type": "address"
        },
        {
          "internalType": "uint256",
          "name": "blockNumber",
          "type": "uint256"
        }
      ],
      "name": "queryVotePowerView",
      "outputs": [
        {
          "internalType": "uint256",
          "name": "",
          "type": "uint256"
        }
      ],
      "stateMutability": "view",
      "type": "function"
    },
    {
      "inputs": [
        {
          "internalType": "address",
          "name": "newAirdropContract",
          "type": "address"
        }
      ],
      "name": "setAirdropContract",
      "outputs": [],
      "stateMutability": "nonpayable",
      "type": "function"
    },
    {
      "inputs": [
        {
          "internalType": "address",
          "name": "manager_",
          "type": "address"
        }
      ],
      "name": "setManager",
      "outputs": [],
      "stateMutability": "nonpayable",
      "type": "function"
    },
    {
      "inputs": [
        {
          "internalType": "address",
          "name": "tokenAddress",
          "type": "address"
        },
        {
          "internalType": "uint128",
          "name": "tokenId",
          "type": "uint128"
        },
        {
          "internalType": "uint128",
          "name": "multiplierValue",
          "type": "uint128"
        }
      ],
      "name": "setMultiplier",
      "outputs": [],
      "stateMutability": "nonpayable",
      "type": "function"
    },
    {
      "inputs": [
        {
          "internalType": "address",
          "name": "timelock_",
          "type": "address"
        }
      ],
      "name": "setTimelock",
      "outputs": [],
      "stateMutability": "nonpayable",
      "type": "function"
    },
    {
      "inputs": [],
      "name": "staleBlockLag",
      "outputs": [
        {
          "internalType": "uint256",
          "name": "",
          "type": "uint256"
        }
      ],
      "stateMutability": "view",
      "type": "function"
    },
    {
      "inputs": [],
      "name": "timelock",
      "outputs": [
        {
          "internalType": "address",
          "name": "",
          "type": "address"
        }
      ],
      "stateMutability": "view",
      "type": "function"
    },
    {
      "inputs": [],
      "name": "token",
      "outputs": [
        {
          "internalType": "contract IERC20",
          "name": "",
          "type": "address"
        }
      ],
      "stateMutability": "view",
      "type": "function"
    },
    {
      "inputs": [],
      "name": "unlock",
      "outputs": [],
      "stateMutability": "nonpayable",
      "type": "function"
    },
    {
      "inputs": [
        {
          "internalType": "uint128",
          "name": "newTokenId",
          "type": "uint128"
        },
        {
          "internalType": "address",
          "name": "newTokenAddress",
          "type": "address"
        }
      ],
      "name": "updateNft",
      "outputs": [],
      "stateMutability": "nonpayable",
      "type": "function"
    },
    {
      "inputs": [
        {
          "internalType": "address[]",
          "name": "userAddresses",
          "type": "address[]"
        }
      ],
      "name": "updateVotingPower",
      "outputs": [],
      "stateMutability": "nonpayable",
      "type": "function"
    },
    {
      "inputs": [
        {
          "internalType": "uint128",
          "name": "amount",
          "type": "uint128"
        }
      ],
      "name": "withdraw",
      "outputs": [],
      "stateMutability": "nonpayable",
      "type": "function"
    },
    {
      "inputs": [],
      "name": "withdrawNft",
      "outputs": [],
      "stateMutability": "nonpayable",
      "type": "function"
    }
  ],
  "bytecode": "0x60c06040523480156200001157600080fd5b506040516200438238038062004382833981016040819052620000349162000366565b83836001600160a01b0382166200007b5760405163026cd36960e11b81526020600482015260056024820152643a37b5b2b760d91b60448201526064015b60405180910390fd5b438110620000a0576040516310fad7af60e01b81526004810182905260240162000072565b6001600160a01b0391821660805260a0528216620000ed57604051632c537de760e21b815260206004820152600860248201526774696d656c6f636b60c01b604482015260640162000072565b6001600160a01b0381166200013057604051632c537de760e21b815260206004820152600760248201526636b0b730b3b2b960c91b604482015260640162000072565b620001806200016d6040518060400160405280600b81526020016a1a5b9a5d1a585b1a5e995960aa1b8152506200029260201b6200207e1760201c565b6001620002ef60201b620020f71760201c565b620001cc620001ba6040518060400160405280600881526020016774696d656c6f636b60c01b815250620002f360201b620020fb1760201c565b836200033060201b620021361760201c565b62000217620002056040518060400160405280600781526020016636b0b730b3b2b960c91b815250620002f360201b620020fb1760201c565b826200033060201b620021361760201c565b620002506200016d60405180604001604052806007815260200166195b9d195c995960ca1b8152506200029260201b6200207e1760201c565b620002886200016d604051806040016040528060068152602001651b1bd8dad95960d21b8152506200029260201b6200207e1760201c565b50505050620003fc565b6000807fec13d6d12b88433319b64e1065a96ea19cd330ef6603f5f6fb685dde3959a320905060008184604051602001620002cf929190620003c2565b60408051601f198184030181529190528051602090910120949350505050565b9055565b6000807f421683f821a0574472445355be6d2b769119e8515f8376a1d7878523dfdecf7b905060008184604051602001620002cf929190620003c2565b81546001600160a01b0319166001600160a01b0391909116179055565b6001600160a01b03811681146200036357600080fd5b50565b600080600080608085870312156200037d57600080fd5b84516200038a816200034d565b602086015160408701519195509350620003a4816200034d565b6060860151909250620003b7816200034d565b939692955090935050565b8281526000825160005b81811015620003ea57602081860181015185830182015201620003cc565b50600092016020019182525092915050565b60805160a051613f4b62000437600039600081816103970152611f5001526000818161047b0152818161089401526128280152613f4b6000f3fe608060405234801561001057600080fd5b50600436106101ae5760003560e01c80638ed013a6116100ee578063d33219b411610097578063f23a6e6111610071578063f23a6e61146103fa578063fa2435fd14610463578063fc0c546a14610476578063fe6ca7821461049d57600080fd5b8063d33219b4146103cc578063e7d20283146103d4578063e91f3235146103e757600080fd5b8063bdacb303116100c8578063bdacb3031461037f578063c2c94b8814610392578063d0ebdbe7146103b957600080fd5b80638ed013a61461035c578063a69df4b514610364578063b8a807c11461036c57600080fd5b80635c19a95c1161015b5780635f041903116101355780635f0419031461028e5780636f011538146102a157806372731062146102b45780638c55ea581461034957600080fd5b80635c19a95c1461025f5780635d6a618d146102725780635ddfd4a61461027b57600080fd5b8063561c9f4e1161018c578063561c9f4e1461022e57806357b9ca3614610241578063583b18961461024957600080fd5b806302387a7b146101b35780632dec063f146101c8578063481c6a7514610201575b600080fd5b6101c66101c1366004613788565b6104a6565b005b6101db6101d63660046137c7565b6108d8565b6040516fffffffffffffffffffffffffffffffff90911681526020015b60405180910390f35b610209610983565b60405173ffffffffffffffffffffffffffffffffffffffff90911681526020016101f8565b6101c661023c366004613788565b6109a9565b610209610ba6565b610251610be6565b6040519081526020016101f8565b6101c661026d3660046137fa565b610c2c565b6101db6105dc81565b6101c6610289366004613815565b610fc7565b6101c661029c366004613858565b611130565b6101c66102af3660046137fa565b61148e565b6102c76102c23660046137fa565b6115c7565b6040516101f89190600060c0820190506fffffffffffffffffffffffffffffffff80845116835280602085015116602084015280604085015116604084015280606085015116606084015250608083015173ffffffffffffffffffffffffffffffffffffffff80821660808501528060a08601511660a0850152505092915050565b6101c6610357366004613882565b6116a0565b6101c6611a0e565b6101c6611a9b565b6101c661037a3660046138bc565b611bba565b6101c661038d3660046137fa565b611cbb565b6102517f000000000000000000000000000000000000000000000000000000000000000081565b6101c66103c73660046137fa565b611de5565b610209611f0f565b6102516103e2366004613910565b611f19565b6102516103f536600461393a565b611f39565b6104326104083660046139f0565b7ff23a6e610000000000000000000000000000000000000000000000000000000095945050505050565b6040517fffffffff0000000000000000000000000000000000000000000000000000000090911681526020016101f8565b6101c6610471366004613af4565b611f88565b6102097f000000000000000000000000000000000000000000000000000000000000000081565b6101db6103e881565b60006104b0612178565b8054909150600114610523576040517f08c379a000000000000000000000000000000000000000000000000000000000815260206004820152600a60248201527f5245454e5452414e43590000000000000000000000000000000000000000000060448201526064015b60405180910390fd5b6002815561052f610be6565b600103610568576040517f94ceaa1f00000000000000000000000000000000000000000000000000000000815260040160405180910390fd5b816fffffffffffffffffffffffffffffffff166000036105b4576040517fe11543e100000000000000000000000000000000000000000000000000000000815260040160405180910390fd5b60006105be6121bd565b3360009081526020919091526040812091506105d86121fd565b9050836fffffffffffffffffffffffffffffffff168160000154101561062a576040517f59cb57c000000000000000000000000000000000000000000000000000000000815260040160405180910390fd5b6040805160c08101825283546fffffffffffffffffffffffffffffffff8082168352700100000000000000000000000000000000918290048116602084015260018601548082169484019490945292049091166060820152600283015473ffffffffffffffffffffffffffffffffffffffff908116608083015260038401541660a08201526000906106bb9061223d565b9050846fffffffffffffffffffffffffffffffff1681101561070c576040517f5d9272870000000000000000000000000000000000000000000000000000000081526004810182905260240161051a565b846fffffffffffffffffffffffffffffffff168260000160008282546107329190613b98565b90915550506001830180548691906000906107609084906fffffffffffffffffffffffffffffffff16613bab565b92506101000a8154816fffffffffffffffffffffffffffffffff02191690836fffffffffffffffffffffffffffffffff1602179055506107a033846122a3565b825460018401546fffffffffffffffffffffffffffffffff91821691160361087a57600283015473ffffffffffffffffffffffffffffffffffffffff16158015906108145750600183015470010000000000000000000000000000000090046fffffffffffffffffffffffffffffffff1615155b15610821576108216124c2565b600083556001830180547fffffffffffffffffffffffffffffffff000000000000000000000000000000001690556003830180547fffffffffffffffffffffffff00000000000000000000000000000000000000001690555b6108cd73ffffffffffffffffffffffffffffffffffffffff7f000000000000000000000000000000000000000000000000000000000000000016336fffffffffffffffffffffffffffffffff88166126c9565b505060018255505050565b6000806108e3612756565b73ffffffffffffffffffffffffffffffffffffffff85166000818152602092835260408082206fffffffffffffffffffffffffffffffff88168352909352919091209150158061094357506fffffffffffffffffffffffffffffffff8316155b15610953576103e891505061097d565b5470010000000000000000000000000000000090046fffffffffffffffffffffffffffffffff1690505b92915050565b600061098d612796565b5473ffffffffffffffffffffffffffffffffffffffff16919050565b60006109b3612178565b8054909150600114610a21576040517f08c379a000000000000000000000000000000000000000000000000000000000815260206004820152600a60248201527f5245454e5452414e435900000000000000000000000000000000000000000000604482015260640161051a565b60028155816fffffffffffffffffffffffffffffffff16600003610a71576040517fe11543e100000000000000000000000000000000000000000000000000000000815260040160405180910390fd5b6000610a7b6121bd565b33600090815260209190915260409020600381015490915073ffffffffffffffffffffffffffffffffffffffff16610adf576040517ffa267cd100000000000000000000000000000000000000000000000000000000815260040160405180910390fd5b6000610ae96121fd565b9050836fffffffffffffffffffffffffffffffff16816000016000828254610b119190613bdb565b9091555050815484908390600090610b3c9084906fffffffffffffffffffffffffffffffff16613bab565b92506101000a8154816fffffffffffffffffffffffffffffffff02191690836fffffffffffffffffffffffffffffffff160217905550610b7c33836122a3565b610b9d33856fffffffffffffffffffffffffffffffff1660008060006127d6565b50506001905550565b600061098d6040518060400160405280600781526020017f61697264726f70000000000000000000000000000000000000000000000000008152506120fb565b6000610c266040518060400160405280600681526020017f6c6f636b6564000000000000000000000000000000000000000000000000000081525061207e565b54919050565b73ffffffffffffffffffffffffffffffffffffffff8116610ca9576040517fb14df79c00000000000000000000000000000000000000000000000000000000815260206004820152600260248201527f746f000000000000000000000000000000000000000000000000000000000000604482015260640161051a565b6000610cb36121bd565b33600090815260209190915260409020600381015490915073ffffffffffffffffffffffffffffffffffffffff90811690831603610d1d576040517fa7b752f200000000000000000000000000000000000000000000000000000000815260040160405180910390fd5b6000610d276128dd565b6003830154909150600090610d5390839073ffffffffffffffffffffffffffffffffffffffff16612930565b60038401548454919250610db29173ffffffffffffffffffffffffffffffffffffffff90911690610daa9070010000000000000000000000000000000090046fffffffffffffffffffffffffffffffff1684613b98565b8491906129d4565b6003830154835473ffffffffffffffffffffffffffffffffffffffff9091169033907f33161cf2da28d747be9df136b6f3729390298494947268743193c53d73d3c2e090610e469070010000000000000000000000000000000090046fffffffffffffffffffffffffffffffff167fffffffffffffffffffffffffffffffffffffffffffffffffffffffffffffffff613bee565b60405190815260200160405180910390a36000610e638386612930565b6040805160c08101825286546fffffffffffffffffffffffffffffffff8082168352700100000000000000000000000000000000918290048116602084015260018901548082169484019490945292049091166060820152600286015473ffffffffffffffffffffffffffffffffffffffff908116608083015260038701541660a0820152909150600090610ef790612b12565b9050610f0f86610f078385613bdb565b8691906129d4565b84546fffffffffffffffffffffffffffffffff80831670010000000000000000000000000000000002911617855560038501805473ffffffffffffffffffffffffffffffffffffffff88167fffffffffffffffffffffffff0000000000000000000000000000000000000000909116811790915560405133907f33161cf2da28d747be9df136b6f3729390298494947268743193c53d73d3c2e090610fb79085815260200190565b60405180910390a3505050505050565b610fcf610983565b73ffffffffffffffffffffffffffffffffffffffff163373ffffffffffffffffffffffffffffffffffffffff1614611033576040517fe927ce0900000000000000000000000000000000000000000000000000000000815260040160405180910390fd5b6105dc6fffffffffffffffffffffffffffffffff82161115611081576040517fc1768e5b00000000000000000000000000000000000000000000000000000000815260040160405180910390fd5b600061108b612756565b73ffffffffffffffffffffffffffffffffffffffff85166000818152602092835260408082206fffffffffffffffffffffffffffffffff88811680855291865292829020805484167001000000000000000000000000000000009489169485021781558251948552948401528201529091507f6910f40c5681ec09ea3b428adc934c4f6851da8506adabd04c2cef42ff78a21c9060600160405180910390a150505050565b600061113a612178565b80549091506001146111a8576040517f08c379a000000000000000000000000000000000000000000000000000000000815260206004820152600a60248201527f5245454e5452414e435900000000000000000000000000000000000000000000604482015260640161051a565b6002815573ffffffffffffffffffffffffffffffffffffffff821615806111df57506fffffffffffffffffffffffffffffffff8316155b15611246576040517f3205f1c600000000000000000000000000000000000000000000000000000000815273ffffffffffffffffffffffffffffffffffffffff831660048201526fffffffffffffffffffffffffffffffff8416602482015260440161051a565b6040517efdd58e0000000000000000000000000000000000000000000000000000000081523360048201526fffffffffffffffffffffffffffffffff8416602482015273ffffffffffffffffffffffffffffffffffffffff83169062fdd58e90604401602060405180830381865afa1580156112c6573d6000803e3d6000fd5b505050506040513d601f19601f820116820180604052508101906112ea9190613c3a565b600003611323576040517fe1362f3600000000000000000000000000000000000000000000000000000000815260040160405180910390fd5b600061132d6121bd565b33600090815260209190915260409020600381015490915073ffffffffffffffffffffffffffffffffffffffff16611391576040517ffa267cd100000000000000000000000000000000000000000000000000000000815260040160405180910390fd5b600281015473ffffffffffffffffffffffffffffffffffffffff16158015906113e35750600181015470010000000000000000000000000000000090046fffffffffffffffffffffffffffffffff1615155b156113f0576113f06124c2565b60028101805473ffffffffffffffffffffffffffffffffffffffff85167fffffffffffffffffffffffff0000000000000000000000000000000000000000909116179055600180820180546fffffffffffffffffffffffffffffffff80881670010000000000000000000000000000000002911617905561147690339085908790612bb1565b61148033826122a3565b50600190555050565b505050565b611496610983565b73ffffffffffffffffffffffffffffffffffffffff163373ffffffffffffffffffffffffffffffffffffffff16146114fa576040517fe927ce0900000000000000000000000000000000000000000000000000000000815260040160405180910390fd5b61157b61153b6040518060400160405280600781526020017f61697264726f70000000000000000000000000000000000000000000000000008152506120fb565b80547fffffffffffffffffffffffff00000000000000000000000000000000000000001673ffffffffffffffffffffffffffffffffffffffff8416179055565b60405173ffffffffffffffffffffffffffffffffffffffff821681527fabe40da5dd07060349f485f71bd70d796ba49859153e786fe58a1d11f86c4ac99060200160405180910390a150565b6040805160c081018252600080825260208201819052918101829052606081018290526080810182905260a08101919091526116016121bd565b73ffffffffffffffffffffffffffffffffffffffff92831660009081526020918252604090819020815160c08101835281546fffffffffffffffffffffffffffffffff808216835270010000000000000000000000000000000091829004811695830195909552600183015480861694830194909452909204909216606082015260028201548416608082015260039091015490921660a08301525090565b6116de6040518060400160405280600781526020017f61697264726f70000000000000000000000000000000000000000000000000008152506120fb565b5473ffffffffffffffffffffffffffffffffffffffff16331461172d576040517fab04925b00000000000000000000000000000000000000000000000000000000815260040160405180910390fd5b6000611737612178565b80549091506001146117a5576040517f08c379a000000000000000000000000000000000000000000000000000000000815260206004820152600a60248201527f5245454e5452414e435900000000000000000000000000000000000000000000604482015260640161051a565b60028155826fffffffffffffffffffffffffffffffff166000036117f5576040517fe11543e100000000000000000000000000000000000000000000000000000000815260040160405180910390fd5b73ffffffffffffffffffffffffffffffffffffffff8416611874576040517fb14df79c00000000000000000000000000000000000000000000000000000000815260040161051a9060208082526004908201527f7573657200000000000000000000000000000000000000000000000000000000604082015260600190565b600061187e6121bd565b73ffffffffffffffffffffffffffffffffffffffff808716600090815260209290925260409091206003810154909250166118c6576118c1858560008087612c4f565b6119e1565b600381015473ffffffffffffffffffffffffffffffffffffffff8481169116146119425760038101546040517fa044d4d100000000000000000000000000000000000000000000000000000000815273ffffffffffffffffffffffffffffffffffffffff8086166004830152909116602482015260440161051a565b600061194c6121fd565b9050846fffffffffffffffffffffffffffffffff168160000160008282546119749190613bdb565b909155505081548590839060009061199f9084906fffffffffffffffffffffffffffffffff16613bab565b92506101000a8154816fffffffffffffffffffffffffffffffff02191690836fffffffffffffffffffffffffffffffff1602179055506119df86836122a3565b505b611a0233856fffffffffffffffffffffffffffffffff1660008060006127d6565b50600181555b50505050565b6000611a18612178565b8054909150600114611a86576040517f08c379a000000000000000000000000000000000000000000000000000000000815260206004820152600a60248201527f5245454e5452414e435900000000000000000000000000000000000000000000604482015260640161051a565b60028155611a926124c2565b60019055565b50565b611aa3611f0f565b73ffffffffffffffffffffffffffffffffffffffff163373ffffffffffffffffffffffffffffffffffffffff1614611b07576040517f88fe7b4200000000000000000000000000000000000000000000000000000000815260040160405180910390fd5b611b0f610be6565b600114611b48576040517fedc4227400000000000000000000000000000000000000000000000000000000815260040160405180910390fd5b611b8f611b896040518060400160405280600681526020017f6c6f636b6564000000000000000000000000000000000000000000000000000081525061207e565b60029055565b6040517f15fa93f6df3cbaf0b9ddb555fa798ba412e2bbc86e60aa62d8aade4c3052cd6290600090a1565b6000611bc4612178565b8054909150600114611c32576040517f08c379a000000000000000000000000000000000000000000000000000000000815260206004820152600a60248201527f5245454e5452414e435900000000000000000000000000000000000000000000604482015260640161051a565b60028155846fffffffffffffffffffffffffffffffff16600003611c82576040517fe11543e100000000000000000000000000000000000000000000000000000000815260040160405180910390fd5b611c8f3386868686612c4f565b611caf33866fffffffffffffffffffffffffffffffff16858760016127d6565b600181555b5050505050565b611cc3611f0f565b73ffffffffffffffffffffffffffffffffffffffff163373ffffffffffffffffffffffffffffffffffffffff1614611d27576040517f88fe7b4200000000000000000000000000000000000000000000000000000000815260040160405180910390fd5b73ffffffffffffffffffffffffffffffffffffffff8116611da4576040517f04d9a6d200000000000000000000000000000000000000000000000000000000815260206004820152600860248201527f74696d656c6f636b000000000000000000000000000000000000000000000000604482015260640161051a565b611a9861153b6040518060400160405280600881526020017f74696d656c6f636b0000000000000000000000000000000000000000000000008152506120fb565b611ded611f0f565b73ffffffffffffffffffffffffffffffffffffffff163373ffffffffffffffffffffffffffffffffffffffff1614611e51576040517f88fe7b4200000000000000000000000000000000000000000000000000000000815260040160405180910390fd5b73ffffffffffffffffffffffffffffffffffffffff8116611ece576040517f04d9a6d200000000000000000000000000000000000000000000000000000000815260206004820152600760248201527f6d616e6167657200000000000000000000000000000000000000000000000000604482015260640161051a565b611a9861153b6040518060400160405280600781526020017f6d616e61676572000000000000000000000000000000000000000000000000008152506120fb565b600061098d612fbe565b600080611f246128dd565b9050611f31818585612ffe565b949350505050565b600080611f446128dd565b9050611f7e8686611f757f000000000000000000000000000000000000000000000000000000000000000043613b98565b8492919061306f565b9695505050505050565b6032811115611fc3576040517f48a3bbbc00000000000000000000000000000000000000000000000000000000815260040160405180910390fd5b60005b81811015611489576000611fd86121bd565b6000858585818110611fec57611fec613c53565b905060200201602081019061200191906137fa565b73ffffffffffffffffffffffffffffffffffffffff1673ffffffffffffffffffffffffffffffffffffffff168152602001908152602001600020905061206d84848481811061205257612052613c53565b905060200201602081019061206791906137fa565b826122a3565b5061207781613c82565b9050611fc6565b6000807fec13d6d12b88433319b64e1065a96ea19cd330ef6603f5f6fb685dde3959a3209050600081846040516020016120b9929190613cde565b604080517fffffffffffffffffffffffffffffffffffffffffffffffffffffffffffffffe08184030181529190528051602090910120949350505050565b9055565b6000807f421683f821a0574472445355be6d2b769119e8515f8376a1d7878523dfdecf7b9050600081846040516020016120b9929190613cde565b81547fffffffffffffffffffffffff00000000000000000000000000000000000000001673ffffffffffffffffffffffffffffffffffffffff91909116179055565b60006121b86040518060400160405280600781526020017f656e74657265640000000000000000000000000000000000000000000000000081525061207e565b905090565b60006121b86040518060400160405280600d81526020017f726567697374726174696f6e7300000000000000000000000000000000000000815250613101565b60006121b86040518060400160405280600781526020017f62616c616e63650000000000000000000000000000000000000000000000000081525061207e565b600081600001516fffffffffffffffffffffffffffffffff1682604001516fffffffffffffffffffffffffffffffff160361227a57506000919050565b6040820151825161228b9190613d04565b6fffffffffffffffffffffffffffffffff1692915050565b60006122ad6128dd565b60038301549091506000906122d990839073ffffffffffffffffffffffffffffffffffffffff16612930565b6040805160c08101825285546fffffffffffffffffffffffffffffffff8082168352700100000000000000000000000000000000918290048116602084015260018801548082169484019490945292049091166060820152600285015473ffffffffffffffffffffffffffffffffffffffff908116608083015260038601541660a082015290915060009061236d90612b12565b84549091506000906123a59070010000000000000000000000000000000090046fffffffffffffffffffffffffffffffff1683613d2d565b9050806000036123b757505050505050565b60008113156123ee5760038501546123e99073ffffffffffffffffffffffffffffffffffffffff16610f078386613bdb565b612441565b60038501546124419073ffffffffffffffffffffffffffffffffffffffff16612437837fffffffffffffffffffffffffffffffffffffffffffffffffffffffffffffffff613bee565b610f079086613b98565b84546fffffffffffffffffffffffffffffffff808416700100000000000000000000000000000000029116178555600385015460405173ffffffffffffffffffffffffffffffffffffffff918216918816907f33161cf2da28d747be9df136b6f3729390298494947268743193c53d73d3c2e090610fb79085815260200190565b60006124cc6121bd565b33600090815260209190915260409020600281015490915073ffffffffffffffffffffffffffffffffffffffff16158061252e5750600181015470010000000000000000000000000000000090046fffffffffffffffffffffffffffffffff16155b156125b357600281015460018201546040517f3205f1c600000000000000000000000000000000000000000000000000000000815273ffffffffffffffffffffffffffffffffffffffff909216600483015270010000000000000000000000000000000090046fffffffffffffffffffffffffffffffff16602482015260440161051a565b6002810154600180830154604080516020810182526000815290517ff242432a00000000000000000000000000000000000000000000000000000000815273ffffffffffffffffffffffffffffffffffffffff9094169363f242432a9361264993309333937001000000000000000000000000000000009092046fffffffffffffffffffffffffffffffff169291600401613d97565b600060405180830381600087803b15801561266357600080fd5b505af1158015612677573d6000803e3d6000fd5b5050506002820180547fffffffffffffffffffffffff0000000000000000000000000000000000000000169055506001810180546fffffffffffffffffffffffffffffffff169055611a9833826122a3565b6040805173ffffffffffffffffffffffffffffffffffffffff8416602482015260448082018490528251808303909101815260649091019091526020810180517bffffffffffffffffffffffffffffffffffffffffffffffffffffffff167fa9059cbb00000000000000000000000000000000000000000000000000000000179052611489908490613174565b60006121b86040518060400160405280600b81526020017f6d756c7469706c69657273000000000000000000000000000000000000000000815250613280565b60006121b86040518060400160405280600781526020017f6d616e61676572000000000000000000000000000000000000000000000000008152506120fb565b6040517f23b872dd00000000000000000000000000000000000000000000000000000000815273ffffffffffffffffffffffffffffffffffffffff8681166004830152306024830152604482018690527f000000000000000000000000000000000000000000000000000000000000000016906323b872dd906064016020604051808303816000875af1158015612871573d6000803e3d6000fd5b505050506040513d601f19601f820116820180604052508101906128959190613dee565b5073ffffffffffffffffffffffffffffffffffffffff8316158015906128cc57506fffffffffffffffffffffffffffffffff821615155b15611cb457611cb485848484612bb1565b6040805180820190915260608152600060208201526121b86040518060400160405280600b81526020017f766f74696e67506f7765720000000000000000000000000000000000000000008152506132b6565b60008061293e846020015190565b73ffffffffffffffffffffffffffffffffffffffff841660009081526020919091526040812080549092506fffffffffffffffffffffffffffffffff169081900361298e5760009250505061097d565b60006129c98361299f600185613b98565b016001015460c081901c9177ffffffffffffffffffffffffffffffffffffffffffffffff90911690565b979650505050505050565b77ffffffffffffffffffffffffffffffffffffffffffffffff811115612a56576040517f08c379a000000000000000000000000000000000000000000000000000000000815260206004820152600360248201527f4f6f420000000000000000000000000000000000000000000000000000000000604482015260640161051a565b6000612a63846020015190565b73ffffffffffffffffffffffffffffffffffffffff841660009081526020829052604081208054929350914360c01b9185831791608081901c916fffffffffffffffffffffffffffffffff909116908115612acb57612ac78661299f600185613b98565b5090505b81438203612ae157612ade600184613b98565b90505b8481600189010155438214612b0557612b058785612b00866001613bdb565b6132ef565b5050505050505050505050565b60008082604001518360000151612b299190613d04565b608084015190915073ffffffffffffffffffffffffffffffffffffffff1615801590612b6a575060608301516fffffffffffffffffffffffffffffffff1615155b1561228b576103e8612b84846080015185606001516108d8565b612b8e9083613e10565b612b989190613e73565b6fffffffffffffffffffffffffffffffff169392505050565b604080516020810182526000815290517ff242432a00000000000000000000000000000000000000000000000000000000815273ffffffffffffffffffffffffffffffffffffffff85169163f242432a91612c1791889130918891889190600401613ea2565b600060405180830381600087803b158015612c3157600080fd5b505af1158015612c45573d6000803e3d6000fd5b5050505050505050565b6103e873ffffffffffffffffffffffffffffffffffffffff831615801590612c8857506fffffffffffffffffffffffffffffffff841615155b15612dc4576040517efdd58e00000000000000000000000000000000000000000000000000000000815273ffffffffffffffffffffffffffffffffffffffff87811660048301526fffffffffffffffffffffffffffffffff8616602483015284169062fdd58e90604401602060405180830381865afa158015612d0f573d6000803e3d6000fd5b505050506040513d601f19601f82011682018060405250810190612d339190613c3a565b600003612d6c576040517fe1362f3600000000000000000000000000000000000000000000000000000000815260040160405180910390fd5b612d7683856108d8565b9050806fffffffffffffffffffffffffffffffff16600003612dc4576040517fc985ca0800000000000000000000000000000000000000000000000000000000815260040160405180910390fd5b6000612dce6121fd565b90506000612dda6121bd565b73ffffffffffffffffffffffffffffffffffffffff808a166000908152602092909252604090912060038101549092501615612e42576040517f9e2b1ab100000000000000000000000000000000000000000000000000000000815260040160405180910390fd5b73ffffffffffffffffffffffffffffffffffffffff841615612e645783612e66565b875b935060006103e8612e77858a613e10565b612e819190613e73565b6fffffffffffffffffffffffffffffffff808216700100000000000000000000000000000000908102828c169081178655918a1602600185015560028401805473ffffffffffffffffffffffffffffffffffffffff808b167fffffffffffffffffffffffff000000000000000000000000000000000000000092831617909255600386018054928a16929091169190911790558454919250908490600090612f2a908490613bdb565b90915550612f3a90508582613318565b8473ffffffffffffffffffffffffffffffffffffffff168973ffffffffffffffffffffffffffffffffffffffff167f33161cf2da28d747be9df136b6f3729390298494947268743193c53d73d3c2e0836fffffffffffffffffffffffffffffffff16604051612fab91815260200190565b60405180910390a3505050505050505050565b60006121b86040518060400160405280600881526020017f74696d656c6f636b0000000000000000000000000000000000000000000000008152506120fb565b60008061300c856020015190565b73ffffffffffffffffffffffffffffffffffffffff85166000908152602082905260408120805492935091608081901c916fffffffffffffffffffffffffffffffff9091169061305f8488838686613352565b96505050505050505b9392505050565b60008061307d866020015190565b73ffffffffffffffffffffffffffffffffffffffff86166000908152602082905260408120805492935091608081901c916fffffffffffffffffffffffffffffffff90911690806130d1858a8a8787613352565b91509150838211156130f3576130e884838761352d565b6130f38583856132ef565b9a9950505050505050505050565b6000807ff162ab2a93c7e839fe65139803001cff34be31efd14d829854af05b9911b6e8483604051602001613137929190613cde565b604080517fffffffffffffffffffffffffffffffffffffffffffffffffffffffffffffffe081840301815291905280516020909101209392505050565b60006131d6826040518060400160405280602081526020017f5361666545524332303a206c6f772d6c6576656c2063616c6c206661696c65648152508573ffffffffffffffffffffffffffffffffffffffff166135569092919063ffffffff16565b80519091501561148957808060200190518101906131f49190613dee565b611489576040517f08c379a000000000000000000000000000000000000000000000000000000000815260206004820152602a60248201527f5361666545524332303a204552433230206f7065726174696f6e20646964206e60448201527f6f74207375636365656400000000000000000000000000000000000000000000606482015260840161051a565b6000807f07c1b518f6d86c40c54c8bf33e580b563b3d5c3074a090416d401cb257be2df783604051602001613137929190613cde565b60408051808201909152606081526000602082015260006132d683613565565b6040805180820190915293845260208401525090919050565b8082106132fb57600080fd5b6fffffffffffffffffffffffffffffffff1660809190911b179055565b60006133226128dd565b905060006133308285612930565b9050611a0884610daa6fffffffffffffffffffffffffffffffff861684613bdb565b600080826000036133bf576040517f08c379a000000000000000000000000000000000000000000000000000000000815260206004820152600d60248201527f756e696e697469616c697a656400000000000000000000000000000000000000604482015260640161051a565b858511156133cc57600080fd5b8284106133d857600080fd5b60006133e5600185613b98565b90508460005b82821461348857600060026134008585613bdb565b61340b906001613bdb565b6134159190613efb565b6001818d01015490915060c081901c9077ffffffffffffffffffffffffffffffffffffffffffffffff168b8203613456579296509194506135239350505050565b8b821015613472578a82101561346a578293505b829450613480565b61347d600184613b98565b95505b5050506133eb565b60018a8301015460c081901c9077ffffffffffffffffffffffffffffffffffffffffffffffff168a821115613519576040517f08c379a000000000000000000000000000000000000000000000000000000000815260206004820152600e60248201527f536561726368204661696c757265000000000000000000000000000000000000604482015260640161051a565b9195509093505050505b9550959350505050565b8183111561353a57600080fd5b60018101835b83811015611cb457600082820155600101613540565b6060611f3184846000856135a0565b6000807f7b1a68ec3e3284b167e69db1c622dcfa612281976b71d7e2d239dbe16a75891a9050600081846040516020016120b9929190613cde565b606082471015613632576040517f08c379a000000000000000000000000000000000000000000000000000000000815260206004820152602660248201527f416464726573733a20696e73756666696369656e742062616c616e636520666f60448201527f722063616c6c0000000000000000000000000000000000000000000000000000606482015260840161051a565b843b61369a576040517f08c379a000000000000000000000000000000000000000000000000000000000815260206004820152601d60248201527f416464726573733a2063616c6c20746f206e6f6e2d636f6e7472616374000000604482015260640161051a565b6000808673ffffffffffffffffffffffffffffffffffffffff1685876040516136c39190613f0f565b60006040518083038185875af1925050503d8060008114613700576040519150601f19603f3d011682016040523d82523d6000602084013e613705565b606091505b50915091506129c98282866060831561371f575081613068565b82511561372f5782518084602001fd5b816040517f08c379a000000000000000000000000000000000000000000000000000000000815260040161051a9190613f2b565b80356fffffffffffffffffffffffffffffffff8116811461378357600080fd5b919050565b60006020828403121561379a57600080fd5b61306882613763565b803573ffffffffffffffffffffffffffffffffffffffff8116811461378357600080fd5b600080604083850312156137da57600080fd5b6137e3836137a3565b91506137f160208401613763565b90509250929050565b60006020828403121561380c57600080fd5b613068826137a3565b60008060006060848603121561382a57600080fd5b613833846137a3565b925061384160208501613763565b915061384f60408501613763565b90509250925092565b6000806040838503121561386b57600080fd5b61387483613763565b91506137f1602084016137a3565b60008060006060848603121561389757600080fd5b6138a0846137a3565b92506138ae60208501613763565b915061384f604085016137a3565b600080600080608085870312156138d257600080fd5b6138db85613763565b93506138e960208601613763565b92506138f7604086016137a3565b9150613905606086016137a3565b905092959194509250565b6000806040838503121561392357600080fd5b61392c836137a3565b946020939093013593505050565b6000806000806060858703121561395057600080fd5b613959856137a3565b935060208501359250604085013567ffffffffffffffff8082111561397d57600080fd5b818701915087601f83011261399157600080fd5b8135818111156139a057600080fd5b8860208285010111156139b257600080fd5b95989497505060200194505050565b7f4e487b7100000000000000000000000000000000000000000000000000000000600052604160045260246000fd5b600080600080600060a08688031215613a0857600080fd5b613a11866137a3565b9450613a1f602087016137a3565b93506040860135925060608601359150608086013567ffffffffffffffff80821115613a4a57600080fd5b818801915088601f830112613a5e57600080fd5b813581811115613a7057613a706139c1565b604051601f82017fffffffffffffffffffffffffffffffffffffffffffffffffffffffffffffffe0908116603f01168101908382118183101715613ab657613ab66139c1565b816040528281528b6020848701011115613acf57600080fd5b8260208601602083013760006020848301015280955050505050509295509295909350565b60008060208385031215613b0757600080fd5b823567ffffffffffffffff80821115613b1f57600080fd5b818501915085601f830112613b3357600080fd5b813581811115613b4257600080fd5b8660208260051b8501011115613b5757600080fd5b60209290920196919550909350505050565b7f4e487b7100000000000000000000000000000000000000000000000000000000600052601160045260246000fd5b8181038181111561097d5761097d613b69565b6fffffffffffffffffffffffffffffffff818116838216019080821115613bd457613bd4613b69565b5092915050565b8082018082111561097d5761097d613b69565b808202600082127f800000000000000000000000000000000000000000000000000000000000000084141615613c2657613c26613b69565b818105831482151761097d5761097d613b69565b600060208284031215613c4c57600080fd5b5051919050565b7f4e487b7100000000000000000000000000000000000000000000000000000000600052603260045260246000fd5b60007fffffffffffffffffffffffffffffffffffffffffffffffffffffffffffffffff8203613cb357613cb3613b69565b5060010190565b60005b83811015613cd5578181015183820152602001613cbd565b50506000910152565b82815260008251613cf6816020850160208701613cba565b919091016020019392505050565b6fffffffffffffffffffffffffffffffff828116828216039080821115613bd457613bd4613b69565b8181036000831280158383131683831282161715613bd457613bd4613b69565b60008151808452613d65816020860160208601613cba565b601f017fffffffffffffffffffffffffffffffffffffffffffffffffffffffffffffffe0169290920160200192915050565b600073ffffffffffffffffffffffffffffffffffffffff80881683528087166020840152506fffffffffffffffffffffffffffffffff8516604083015283606083015260a060808301526129c960a0830184613d4d565b600060208284031215613e0057600080fd5b8151801515811461306857600080fd5b6fffffffffffffffffffffffffffffffff818116838216028082169190828114613e3c57613e3c613b69565b505092915050565b7f4e487b7100000000000000000000000000000000000000000000000000000000600052601260045260246000fd5b60006fffffffffffffffffffffffffffffffff80841680613e9657613e96613e44565b92169190910492915050565b73ffffffffffffffffffffffffffffffffffffffff8681168252851660208201526fffffffffffffffffffffffffffffffff84811660408301528316606082015260a0608082018190526000906129c990830184613d4d565b600082613f0a57613f0a613e44565b500490565b60008251613f21818460208701613cba565b9190910192915050565b6020815260006130686020830184613d4d56fea164736f6c6343000812000a",
  "linkReferences": {},
  "deployedLinkReferences": {}
}