{
  "_format": "hh-sol-artifact-1",
  "contractName": "ARCDVestingVault",
  "sourceName": "contracts/ARCDVestingVault.sol",
  "abi": [
    {
      "inputs": [
        {
          "internalType": "contract IERC20",
          "name": "_token",
          "type": "address"
        },
        {
          "internalType": "uint256",
          "name": "_stale",
          "type": "uint256"
        },
        {
          "internalType": "address",
          "name": "manager_",
          "type": "address"
        },
        {
          "internalType": "address",
          "name": "timelock_",
          "type": "address"
        }
      ],
      "stateMutability": "nonpayable",
      "type": "constructor"
    },
    {
      "inputs": [],
      "name": "AVV_AlreadyDelegated",
      "type": "error"
    },
    {
      "inputs": [
        {
          "internalType": "uint256",
          "name": "cliffBlock",
          "type": "uint256"
        }
      ],
      "name": "AVV_CliffNotReached",
      "type": "error"
    },
    {
      "inputs": [],
      "name": "AVV_HasGrant",
      "type": "error"
    },
    {
      "inputs": [
        {
          "internalType": "uint256",
          "name": "amountAvailable",
          "type": "uint256"
        }
      ],
      "name": "AVV_InsufficientBalance",
      "type": "error"
    },
    {
      "inputs": [],
      "name": "AVV_InvalidAmount",
      "type": "error"
    },
    {
      "inputs": [],
      "name": "AVV_InvalidCliffAmount",
      "type": "error"
    },
    {
      "inputs": [],
      "name": "AVV_InvalidSchedule",
      "type": "error"
    },
    {
      "inputs": [],
      "name": "AVV_NoGrantSet",
      "type": "error"
    },
    {
      "inputs": [
        {
          "internalType": "string",
          "name": "addressType",
          "type": "string"
        }
      ],
      "name": "AVV_ZeroAddress",
      "type": "error"
    },
    {
      "inputs": [],
      "name": "BVV_NotManager",
      "type": "error"
    },
    {
      "inputs": [],
      "name": "BVV_NotTimelock",
      "type": "error"
    },
    {
      "inputs": [
        {
          "internalType": "uint256",
          "name": "staleBlock",
          "type": "uint256"
        }
      ],
      "name": "BVV_UpperLimitBlock",
      "type": "error"
    },
    {
      "inputs": [
        {
          "internalType": "string",
          "name": "addressType",
          "type": "string"
        }
      ],
      "name": "BVV_ZeroAddress",
      "type": "error"
    },
    {
      "anonymous": false,
      "inputs": [
        {
          "indexed": true,
          "internalType": "address",
          "name": "from",
          "type": "address"
        },
        {
          "indexed": true,
          "internalType": "address",
          "name": "to",
          "type": "address"
        },
        {
          "indexed": false,
          "internalType": "int256",
          "name": "amount",
          "type": "int256"
        }
      ],
      "name": "VoteChange",
      "type": "event"
    },
    {
      "inputs": [
        {
          "internalType": "address",
          "name": "who",
          "type": "address"
        },
        {
          "internalType": "uint128",
          "name": "amount",
          "type": "uint128"
        },
        {
          "internalType": "uint128",
          "name": "cliffAmount",
          "type": "uint128"
        },
        {
          "internalType": "uint128",
          "name": "startTime",
          "type": "uint128"
        },
        {
          "internalType": "uint128",
          "name": "expiration",
          "type": "uint128"
        },
        {
          "internalType": "uint128",
          "name": "cliff",
          "type": "uint128"
        },
        {
          "internalType": "address",
          "name": "delegatee",
          "type": "address"
        }
      ],
      "name": "addGrantAndDelegate",
      "outputs": [],
      "stateMutability": "nonpayable",
      "type": "function"
    },
    {
      "inputs": [
        {
          "internalType": "uint256",
          "name": "amount",
          "type": "uint256"
        }
      ],
      "name": "claim",
      "outputs": [],
      "stateMutability": "nonpayable",
      "type": "function"
    },
    {
      "inputs": [
        {
          "internalType": "address",
          "name": "who",
          "type": "address"
        }
      ],
      "name": "claimable",
      "outputs": [
        {
          "internalType": "uint256",
          "name": "",
          "type": "uint256"
        }
      ],
      "stateMutability": "view",
      "type": "function"
    },
    {
      "inputs": [
        {
          "internalType": "address",
          "name": "to",
          "type": "address"
        }
      ],
      "name": "delegate",
      "outputs": [],
      "stateMutability": "nonpayable",
      "type": "function"
    },
    {
      "inputs": [
        {
          "internalType": "uint256",
          "name": "amount",
          "type": "uint256"
        }
      ],
      "name": "deposit",
      "outputs": [],
      "stateMutability": "nonpayable",
      "type": "function"
    },
    {
      "inputs": [
        {
          "internalType": "address",
          "name": "who",
          "type": "address"
        }
      ],
      "name": "getGrant",
      "outputs": [
        {
          "components": [
            {
              "internalType": "uint128",
              "name": "allocation",
              "type": "uint128"
            },
            {
              "internalType": "uint128",
              "name": "cliffAmount",
              "type": "uint128"
            },
            {
              "internalType": "uint128",
              "name": "withdrawn",
              "type": "uint128"
            },
            {
              "internalType": "uint128",
              "name": "created",
              "type": "uint128"
            },
            {
              "internalType": "uint128",
              "name": "expiration",
              "type": "uint128"
            },
            {
              "internalType": "uint128",
              "name": "cliff",
              "type": "uint128"
            },
            {
              "internalType": "uint256",
              "name": "latestVotingPower",
              "type": "uint256"
            },
            {
              "internalType": "address",
              "name": "delegatee",
              "type": "address"
            }
          ],
          "internalType": "struct ARCDVestingVaultStorage.Grant",
          "name": "",
          "type": "tuple"
        }
      ],
      "stateMutability": "view",
      "type": "function"
    },
    {
      "inputs": [],
      "name": "manager",
      "outputs": [
        {
          "internalType": "address",
          "name": "",
          "type": "address"
        }
      ],
      "stateMutability": "view",
      "type": "function"
    },
    {
      "inputs": [
        {
          "internalType": "address",
          "name": "user",
          "type": "address"
        },
        {
          "internalType": "uint256",
          "name": "blockNumber",
          "type": "uint256"
        },
        {
          "internalType": "bytes",
          "name": "",
          "type": "bytes"
        }
      ],
      "name": "queryVotePower",
      "outputs": [
        {
          "internalType": "uint256",
          "name": "",
          "type": "uint256"
        }
      ],
      "stateMutability": "nonpayable",
      "type": "function"
    },
    {
      "inputs": [
        {
          "internalType": "address",
          "name": "user",
          "type": "address"
        },
        {
          "internalType": "uint256",
          "name": "blockNumber",
          "type": "uint256"
        }
      ],
      "name": "queryVotePowerView",
      "outputs": [
        {
          "internalType": "uint256",
          "name": "",
          "type": "uint256"
        }
      ],
      "stateMutability": "view",
      "type": "function"
    },
    {
      "inputs": [
        {
          "internalType": "address",
          "name": "who",
          "type": "address"
        }
      ],
      "name": "revokeGrant",
      "outputs": [],
      "stateMutability": "nonpayable",
      "type": "function"
    },
    {
      "inputs": [
        {
          "internalType": "address",
          "name": "manager_",
          "type": "address"
        }
      ],
      "name": "setManager",
      "outputs": [],
      "stateMutability": "nonpayable",
      "type": "function"
    },
    {
      "inputs": [
        {
          "internalType": "address",
          "name": "timelock_",
          "type": "address"
        }
      ],
      "name": "setTimelock",
      "outputs": [],
      "stateMutability": "nonpayable",
      "type": "function"
    },
    {
      "inputs": [],
      "name": "staleBlockLag",
      "outputs": [
        {
          "internalType": "uint256",
          "name": "",
          "type": "uint256"
        }
      ],
      "stateMutability": "view",
      "type": "function"
    },
    {
      "inputs": [],
      "name": "timelock",
      "outputs": [
        {
          "internalType": "address",
          "name": "",
          "type": "address"
        }
      ],
      "stateMutability": "view",
      "type": "function"
    },
    {
      "inputs": [],
      "name": "token",
      "outputs": [
        {
          "internalType": "contract IERC20",
          "name": "",
          "type": "address"
        }
      ],
      "stateMutability": "view",
      "type": "function"
    },
    {
      "inputs": [
        {
          "internalType": "uint256",
          "name": "amount",
          "type": "uint256"
        },
        {
          "internalType": "address",
          "name": "recipient",
          "type": "address"
        }
      ],
      "name": "withdraw",
      "outputs": [],
      "stateMutability": "nonpayable",
      "type": "function"
    }
  ],
  "bytecode": "0x60c06040523480156200001157600080fd5b5060405162002eea38038062002eea8339810160408190526200003491620002f1565b83836001600160a01b0382166200007b5760405163026cd36960e11b81526020600482015260056024820152643a37b5b2b760d91b60448201526064015b60405180910390fd5b438110620000a0576040516310fad7af60e01b81526004810182905260240162000072565b6001600160a01b0391821660805260a0528216620000ec576040516362974bb960e01b815260206004820152600760248201526636b0b730b3b2b960c91b604482015260640162000072565b6001600160a01b03811662000130576040516362974bb960e01b815260206004820152600860248201526774696d656c6f636b60c01b604482015260640162000072565b6200017b620001696040518060400160405280600781526020016636b0b730b3b2b960c91b8152506200021d60201b620018051760201c565b836200027a60201b6200187e1760201c565b620001c7620001b56040518060400160405280600881526020016774696d656c6f636b60c01b8152506200021d60201b620018051760201c565b826200027a60201b6200187e1760201c565b620002136200020060405180604001604052806007815260200166195b9d195c995960ca1b8152506200029760201b620018c01760201c565b6001620002d460201b620018fb1760201c565b5050505062000387565b6000807f421683f821a0574472445355be6d2b769119e8515f8376a1d7878523dfdecf7b9050600081846040516020016200025a9291906200034d565b60408051601f198184030181529190528051602090910120949350505050565b81546001600160a01b0319166001600160a01b0391909116179055565b6000807fec13d6d12b88433319b64e1065a96ea19cd330ef6603f5f6fb685dde3959a3209050600081846040516020016200025a9291906200034d565b9055565b6001600160a01b0381168114620002ee57600080fd5b50565b600080600080608085870312156200030857600080fd5b84516200031581620002d8565b6020860151604087015191955093506200032f81620002d8565b60608601519092506200034281620002d8565b939692955090935050565b8281526000825160005b81811015620003755760208186018101518583018201520162000357565b50600092016020019182525092915050565b60805160a051612b13620003d76000396000818161020301526117cd01526000818161026b01528181610382015281816105a70152818161067e01528181610a9a01526113730152612b136000f3fe608060405234801561001057600080fd5b50600436106100ff5760003560e01c8063bdacb30311610097578063d33219b411610066578063d33219b414610238578063e7d2028314610240578063e91f323514610253578063fc0c546a1461026657600080fd5b8063bdacb303146101cb578063bf31dbf4146101de578063c2c94b88146101fe578063d0ebdbe71461022557600080fd5b8063447b2b9a116100d3578063447b2b9a14610165578063481c6a75146101785780635c19a95c146101a5578063b6b55f25146101b857600080fd5b8062f714ce146101045780631817c5a714610119578063379607f51461012c578063402914f51461013f575b600080fd5b61011761011236600461267c565b61028d565b005b6101176101273660046126a8565b6103ae565b61011761013a3660046126c3565b610712565b61015261014d3660046126a8565b610aca565b6040519081526020015b60405180910390f35b6101176101733660046126fc565b610b93565b610180611072565b60405173ffffffffffffffffffffffffffffffffffffffff909116815260200161015c565b6101176101b33660046126a8565b611098565b6101176101c63660046126c3565b6112a7565b6101176101d93660046126a8565b6113f5565b6101f16101ec3660046126a8565b611562565b60405161015c9190612782565b6101527f000000000000000000000000000000000000000000000000000000000000000081565b6101176102333660046126a8565b611662565b61018061178c565b61015261024e366004612817565b611796565b610152610261366004612841565b6117b6565b6101807f000000000000000000000000000000000000000000000000000000000000000081565b610295611072565b73ffffffffffffffffffffffffffffffffffffffff163373ffffffffffffffffffffffffffffffffffffffff16146102f9576040517fe927ce0900000000000000000000000000000000000000000000000000000000815260040160405180910390fd5b60006103036118ff565b9050828160000154101561034e5780546040517f79392d8b00000000000000000000000000000000000000000000000000000000815260048101919091526024015b60405180910390fd5b8281600001600082825461036291906128f7565b909155506103a9905073ffffffffffffffffffffffffffffffffffffffff7f0000000000000000000000000000000000000000000000000000000000000000168385611944565b505050565b6103b6611072565b73ffffffffffffffffffffffffffffffffffffffff163373ffffffffffffffffffffffffffffffffffffffff161461041a576040517fe927ce0900000000000000000000000000000000000000000000000000000000815260040160405180910390fd5b60006104246119d1565b73ffffffffffffffffffffffffffffffffffffffff831660009081526020919091526040812080549092506fffffffffffffffffffffffffffffffff169003610499576040517f6f670ccf00000000000000000000000000000000000000000000000000000000815260040160405180910390fd5b604080516101008101825282546fffffffffffffffffffffffffffffffff808216835270010000000000000000000000000000000091829004811660208401526001850154808216948401949094529281900483166060830152600284015480841660808401520490911660a0820152600382015460c0820152600482015473ffffffffffffffffffffffffffffffffffffffff1660e082015260009061053f90611a11565b600183018054919250829160009061056a9084906fffffffffffffffffffffffffffffffff1661290a565b92506101000a8154816fffffffffffffffffffffffffffffffff02191690836fffffffffffffffffffffffffffffffff1602179055506105eb83827f000000000000000000000000000000000000000000000000000000000000000073ffffffffffffffffffffffffffffffffffffffff166119449092919063ffffffff16565b60018201548254600091610614916fffffffffffffffffffffffffffffffff9182169116612933565b6001840180546fffffffffffffffffffffffffffffffff928316935083926000916106419185911661290a565b92506101000a8154816fffffffffffffffffffffffffffffffff02191690836fffffffffffffffffffffffffffffffff1602179055506106c233827f000000000000000000000000000000000000000000000000000000000000000073ffffffffffffffffffffffffffffffffffffffff166119449092919063ffffffff16565b6106cc8484611b52565b505060008082556001820181905560028201819055600382015560040180547fffffffffffffffffffffffff000000000000000000000000000000000000000016905550565b600061071c611c9a565b805490915060011461078a576040517f08c379a000000000000000000000000000000000000000000000000000000000815260206004820152600a60248201527f5245454e5452414e4359000000000000000000000000000000000000000000006044820152606401610345565b60028155816000036107c8576040517f4c2bea4500000000000000000000000000000000000000000000000000000000815260040160405180910390fd5b60006107d26119d1565b3360009081526020919091526040812080549092506fffffffffffffffffffffffffffffffff169003610831576040517f6f670ccf00000000000000000000000000000000000000000000000000000000815260040160405180910390fd5b6002810154437001000000000000000000000000000000009091046fffffffffffffffffffffffffffffffff1611156108c35760028101546040517f6fc0c9750000000000000000000000000000000000000000000000000000000081527001000000000000000000000000000000009091046fffffffffffffffffffffffffffffffff166004820152602401610345565b604080516101008101825282546fffffffffffffffffffffffffffffffff808216835270010000000000000000000000000000000091829004811660208401526001850154808216948401949094529281900483166060830152600284015480841660808401520490911660a0820152600382015460c0820152600482015473ffffffffffffffffffffffffffffffffffffffff1660e082015260009061096990611a11565b9050808411156109a8576040517f79392d8b00000000000000000000000000000000000000000000000000000000815260048101829052602401610345565b808403610a13576001820180548291906000906109d89084906fffffffffffffffffffffffffffffffff1661290a565b92506101000a8154816fffffffffffffffffffffffffffffffff02191690836fffffffffffffffffffffffffffffffff160217905550610a76565b600182018054859190600090610a3c9084906fffffffffffffffffffffffffffffffff1661290a565b92506101000a8154816fffffffffffffffffffffffffffffffff02191690836fffffffffffffffffffffffffffffffff1602179055508390505b610a803383611b52565b610ac173ffffffffffffffffffffffffffffffffffffffff7f0000000000000000000000000000000000000000000000000000000000000000163383611944565b50506001905550565b6000610b8d610ad76119d1565b73ffffffffffffffffffffffffffffffffffffffff8085166000908152602092835260409081902081516101008101835281546fffffffffffffffffffffffffffffffff8082168352700100000000000000000000000000000000918290048116968301969096526001830154808716948301949094529283900485166060820152600282015480861660808301529290920490931660a0820152600383015460c08201526004909201541660e0820152611a11565b92915050565b610b9b611072565b73ffffffffffffffffffffffffffffffffffffffff163373ffffffffffffffffffffffffffffffffffffffff1614610bff576040517fe927ce0900000000000000000000000000000000000000000000000000000000815260040160405180910390fd5b73ffffffffffffffffffffffffffffffffffffffff8716610c7c576040517f62974bb900000000000000000000000000000000000000000000000000000000815260206004820152600360248201527f77686f00000000000000000000000000000000000000000000000000000000006044820152606401610345565b856fffffffffffffffffffffffffffffffff16600003610cc8576040517f4c2bea4500000000000000000000000000000000000000000000000000000000815260040160405180910390fd5b836fffffffffffffffffffffffffffffffff16600003610ce6574393505b826fffffffffffffffffffffffffffffffff16826fffffffffffffffffffffffffffffffff16101580610d3c5750836fffffffffffffffffffffffffffffffff16826fffffffffffffffffffffffffffffffff16105b15610d73576040517fddef48b000000000000000000000000000000000000000000000000000000000815260040160405180910390fd5b856fffffffffffffffffffffffffffffffff16856fffffffffffffffffffffffffffffffff1610610dd0576040517fbd92c2c300000000000000000000000000000000000000000000000000000000815260040160405180910390fd5b6000610dda6118ff565b9050866fffffffffffffffffffffffffffffffff1681600001541015610e325780546040517f79392d8b0000000000000000000000000000000000000000000000000000000081526004810191909152602401610345565b6000610e3c6119d1565b73ffffffffffffffffffffffffffffffffffffffff8a1660009081526020919091526040902080549091506fffffffffffffffffffffffffffffffff1615610eb0576040517f68a2044800000000000000000000000000000000000000000000000000000000815260040160405180910390fd5b73ffffffffffffffffffffffffffffffffffffffff831615610ed25782610ed4565b885b6fffffffffffffffffffffffffffffffff8981167001000000000000000000000000000000008a83168102821785558983168102600186015588831692881602919091176002840155600383018190556004830180547fffffffffffffffffffffffff00000000000000000000000000000000000000001673ffffffffffffffffffffffffffffffffffffffff8416179055835491945089918490600090610f7d9084906128f7565b9091555060009050610f8d611cda565b6004840154909150600090610fb990839073ffffffffffffffffffffffffffffffffffffffff16611d2d565b6004850154909150610fff9073ffffffffffffffffffffffffffffffffffffffff16610ff76fffffffffffffffffffffffffffffffff86168461295c565b849190611dd1565b60048401546040516fffffffffffffffffffffffffffffffff8516815273ffffffffffffffffffffffffffffffffffffffff8e81169216907f33161cf2da28d747be9df136b6f3729390298494947268743193c53d73d3c2e09060200160405180910390a3505050505050505050505050565b600061107c611f0f565b5473ffffffffffffffffffffffffffffffffffffffff16919050565b60006110a26119d1565b33600090815260209190915260409020600481015490915073ffffffffffffffffffffffffffffffffffffffff9081169083160361110c576040517fe8af488600000000000000000000000000000000000000000000000000000000815260040160405180910390fd5b6000611116611cda565b600483015490915060009061114290839073ffffffffffffffffffffffffffffffffffffffff16611d2d565b600484015460038501549192506111769173ffffffffffffffffffffffffffffffffffffffff90911690610ff790846128f7565b60048301546003840154339173ffffffffffffffffffffffffffffffffffffffff16907f33161cf2da28d747be9df136b6f3729390298494947268743193c53d73d3c2e0906111e5907fffffffffffffffffffffffffffffffffffffffffffffffffffffffffffffffff61296f565b60405190815260200160405180910390a360006112028386611d2d565b905061122085856003015483611218919061295c565b859190611dd1565b6004840180547fffffffffffffffffffffffff00000000000000000000000000000000000000001673ffffffffffffffffffffffffffffffffffffffff871690811790915560038501546040519081523391907f33161cf2da28d747be9df136b6f3729390298494947268743193c53d73d3c2e09060200160405180910390a35050505050565b6112af611072565b73ffffffffffffffffffffffffffffffffffffffff163373ffffffffffffffffffffffffffffffffffffffff1614611313576040517fe927ce0900000000000000000000000000000000000000000000000000000000815260040160405180910390fd5b600061131d6118ff565b905081816000016000828254611333919061295c565b90915550506040517f23b872dd000000000000000000000000000000000000000000000000000000008152336004820152306024820152604481018390527f000000000000000000000000000000000000000000000000000000000000000073ffffffffffffffffffffffffffffffffffffffff16906323b872dd906064016020604051808303816000875af11580156113d1573d6000803e3d6000fd5b505050506040513d601f19601f820116820180604052508101906103a991906129bb565b6113fd61178c565b73ffffffffffffffffffffffffffffffffffffffff163373ffffffffffffffffffffffffffffffffffffffff1614611461576040517f88fe7b4200000000000000000000000000000000000000000000000000000000815260040160405180910390fd5b73ffffffffffffffffffffffffffffffffffffffff81166114de576040517f04d9a6d200000000000000000000000000000000000000000000000000000000815260206004820152600860248201527f74696d656c6f636b0000000000000000000000000000000000000000000000006044820152606401610345565b61155f61151f6040518060400160405280600881526020017f74696d656c6f636b000000000000000000000000000000000000000000000000815250611805565b80547fffffffffffffffffffffffff00000000000000000000000000000000000000001673ffffffffffffffffffffffffffffffffffffffff8416179055565b50565b6040805161010081018252600080825260208201819052918101829052606081018290526080810182905260a0810182905260c0810182905260e08101919091526115ab6119d1565b73ffffffffffffffffffffffffffffffffffffffff9283166000908152602091825260409081902081516101008101835281546fffffffffffffffffffffffffffffffff8082168352700100000000000000000000000000000000918290048116958301959095526001830154808616948301949094529283900484166060820152600282015480851660808301529290920490921660a0820152600382015460c082015260049091015490921660e08301525090565b61166a61178c565b73ffffffffffffffffffffffffffffffffffffffff163373ffffffffffffffffffffffffffffffffffffffff16146116ce576040517f88fe7b4200000000000000000000000000000000000000000000000000000000815260040160405180910390fd5b73ffffffffffffffffffffffffffffffffffffffff811661174b576040517f04d9a6d200000000000000000000000000000000000000000000000000000000815260206004820152600760248201527f6d616e61676572000000000000000000000000000000000000000000000000006044820152606401610345565b61155f61151f6040518060400160405280600781526020017f6d616e6167657200000000000000000000000000000000000000000000000000815250611805565b600061107c611f4f565b6000806117a1611cda565b90506117ae818585611f8f565b949350505050565b6000806117c1611cda565b90506117fb86866117f27f0000000000000000000000000000000000000000000000000000000000000000436128f7565b84929190612000565b9695505050505050565b6000807f421683f821a0574472445355be6d2b769119e8515f8376a1d7878523dfdecf7b905060008184604051602001611840929190612a01565b604080517fffffffffffffffffffffffffffffffffffffffffffffffffffffffffffffffe08184030181529190528051602090910120949350505050565b81547fffffffffffffffffffffffff00000000000000000000000000000000000000001673ffffffffffffffffffffffffffffffffffffffff91909116179055565b6000807fec13d6d12b88433319b64e1065a96ea19cd330ef6603f5f6fb685dde3959a320905060008184604051602001611840929190612a01565b9055565b600061193f6040518060400160405280600a81526020017f756e61737369676e6564000000000000000000000000000000000000000000008152506118c0565b905090565b6040805173ffffffffffffffffffffffffffffffffffffffff8416602482015260448082018490528251808303909101815260649091019091526020810180517bffffffffffffffffffffffffffffffffffffffffffffffffffffffff167fa9059cbb000000000000000000000000000000000000000000000000000000001790526103a9908490612092565b600061193f6040518060400160405280600681526020017f6772616e7473000000000000000000000000000000000000000000000000000081525061219e565b60008160a001516fffffffffffffffffffffffffffffffff16431015611a3957506000919050565b81608001516fffffffffffffffffffffffffffffffff164310611a7f5760408201518251611a679190612933565b6fffffffffffffffffffffffffffffffff1692915050565b60208201518251600091611a9291612933565b6fffffffffffffffffffffffffffffffff16905060008360a001516fffffffffffffffffffffffffffffffff1643611aca91906128f7565b905060008460a001518560800151611ae29190612933565b6fffffffffffffffffffffffffffffffff169050600081611b038486612a27565b611b0d9190612a3e565b86602001516fffffffffffffffffffffffffffffffff16611b2e919061295c565b905085604001516fffffffffffffffffffffffffffffffff16816117fb91906128f7565b6000611b5c611cda565b6004830154909150600090611b8890839073ffffffffffffffffffffffffffffffffffffffff16611d2d565b60018401548454919250600091611bb4916fffffffffffffffffffffffffffffffff9081169116612933565b6fffffffffffffffffffffffffffffffff1690506000846003015482611bda9190612a79565b6004860154909150611c389073ffffffffffffffffffffffffffffffffffffffff16611c26837fffffffffffffffffffffffffffffffffffffffffffffffffffffffffffffffff61296f565b611c3090866128f7565b869190611dd1565b60038501829055600485015460405182815273ffffffffffffffffffffffffffffffffffffffff8881169216907f33161cf2da28d747be9df136b6f3729390298494947268743193c53d73d3c2e09060200160405180910390a3505050505050565b600061193f6040518060400160405280600781526020017f656e7465726564000000000000000000000000000000000000000000000000008152506118c0565b60408051808201909152606081526000602082015261193f6040518060400160405280600b81526020017f766f74696e67506f7765720000000000000000000000000000000000000000008152506121d9565b600080611d3b846020015190565b73ffffffffffffffffffffffffffffffffffffffff841660009081526020919091526040812080549092506fffffffffffffffffffffffffffffffff1690819003611d8b57600092505050610b8d565b6000611dc683611d9c6001856128f7565b016001015460c081901c9177ffffffffffffffffffffffffffffffffffffffffffffffff90911690565b979650505050505050565b77ffffffffffffffffffffffffffffffffffffffffffffffff811115611e53576040517f08c379a000000000000000000000000000000000000000000000000000000000815260206004820152600360248201527f4f6f4200000000000000000000000000000000000000000000000000000000006044820152606401610345565b6000611e60846020015190565b73ffffffffffffffffffffffffffffffffffffffff841660009081526020829052604081208054929350914360c01b9185831791608081901c916fffffffffffffffffffffffffffffffff909116908115611ec857611ec486611d9c6001856128f7565b5090505b81438203611ede57611edb6001846128f7565b90505b8481600189010155438214611f0257611f028785611efd86600161295c565b612212565b5050505050505050505050565b600061193f6040518060400160405280600781526020017f6d616e6167657200000000000000000000000000000000000000000000000000815250611805565b600061193f6040518060400160405280600881526020017f74696d656c6f636b000000000000000000000000000000000000000000000000815250611805565b600080611f9d856020015190565b73ffffffffffffffffffffffffffffffffffffffff85166000908152602082905260408120805492935091608081901c916fffffffffffffffffffffffffffffffff90911690611ff0848883868661223b565b96505050505050505b9392505050565b60008061200e866020015190565b73ffffffffffffffffffffffffffffffffffffffff86166000908152602082905260408120805492935091608081901c916fffffffffffffffffffffffffffffffff9091169080612062858a8a878761223b565b915091508382111561208457612079848387612416565b612084858385612212565b9a9950505050505050505050565b60006120f4826040518060400160405280602081526020017f5361666545524332303a206c6f772d6c6576656c2063616c6c206661696c65648152508573ffffffffffffffffffffffffffffffffffffffff166124469092919063ffffffff16565b8051909150156103a9578080602001905181019061211291906129bb565b6103a9576040517f08c379a000000000000000000000000000000000000000000000000000000000815260206004820152602a60248201527f5361666545524332303a204552433230206f7065726174696f6e20646964206e60448201527f6f742073756363656564000000000000000000000000000000000000000000006064820152608401610345565b6000807fe09ca27c98c7039e0ebb504afcf592a1c02936970c7b5952890c3a3eea53d63c905060008184604051602001611840929190612a01565b60408051808201909152606081526000602082015260006121f983612455565b6040805180820190915293845260208401525090919050565b80821061221e57600080fd5b6fffffffffffffffffffffffffffffffff1660809190911b179055565b600080826000036122a8576040517f08c379a000000000000000000000000000000000000000000000000000000000815260206004820152600d60248201527f756e696e697469616c697a6564000000000000000000000000000000000000006044820152606401610345565b858511156122b557600080fd5b8284106122c157600080fd5b60006122ce6001856128f7565b90508460005b82821461237157600060026122e9858561295c565b6122f490600161295c565b6122fe9190612a3e565b6001818d01015490915060c081901c9077ffffffffffffffffffffffffffffffffffffffffffffffff168b820361233f5792965091945061240c9350505050565b8b82101561235b578a821015612353578293505b829450612369565b6123666001846128f7565b95505b5050506122d4565b60018a8301015460c081901c9077ffffffffffffffffffffffffffffffffffffffffffffffff168a821115612402576040517f08c379a000000000000000000000000000000000000000000000000000000000815260206004820152600e60248201527f536561726368204661696c7572650000000000000000000000000000000000006044820152606401610345565b9195509093505050505b9550959350505050565b8183111561242357600080fd5b60018101835b8381101561243f57600082820155600101612429565b5050505050565b60606117ae8484600085612490565b6000807f7b1a68ec3e3284b167e69db1c622dcfa612281976b71d7e2d239dbe16a75891a905060008184604051602001611840929190612a01565b606082471015612522576040517f08c379a000000000000000000000000000000000000000000000000000000000815260206004820152602660248201527f416464726573733a20696e73756666696369656e742062616c616e636520666f60448201527f722063616c6c00000000000000000000000000000000000000000000000000006064820152608401610345565b843b61258a576040517f08c379a000000000000000000000000000000000000000000000000000000000815260206004820152601d60248201527f416464726573733a2063616c6c20746f206e6f6e2d636f6e74726163740000006044820152606401610345565b6000808673ffffffffffffffffffffffffffffffffffffffff1685876040516125b39190612a99565b60006040518083038185875af1925050503d80600081146125f0576040519150601f19603f3d011682016040523d82523d6000602084013e6125f5565b606091505b5091509150611dc68282866060831561260f575081611ff9565b82511561261f5782518084602001fd5b816040517f08c379a00000000000000000000000000000000000000000000000000000000081526004016103459190612ab5565b803573ffffffffffffffffffffffffffffffffffffffff8116811461267757600080fd5b919050565b6000806040838503121561268f57600080fd5b8235915061269f60208401612653565b90509250929050565b6000602082840312156126ba57600080fd5b611ff982612653565b6000602082840312156126d557600080fd5b5035919050565b80356fffffffffffffffffffffffffffffffff8116811461267757600080fd5b600080600080600080600060e0888a03121561271757600080fd5b61272088612653565b965061272e602089016126dc565b955061273c604089016126dc565b945061274a606089016126dc565b9350612758608089016126dc565b925061276660a089016126dc565b915061277460c08901612653565b905092959891949750929550565b6000610100820190506fffffffffffffffffffffffffffffffff8084511683528060208501511660208401528060408501511660408401528060608501511660608401528060808501511660808401528060a08501511660a08401525060c083015160c083015260e083015161281060e084018273ffffffffffffffffffffffffffffffffffffffff169052565b5092915050565b6000806040838503121561282a57600080fd5b61283383612653565b946020939093013593505050565b6000806000806060858703121561285757600080fd5b61286085612653565b935060208501359250604085013567ffffffffffffffff8082111561288457600080fd5b818701915087601f83011261289857600080fd5b8135818111156128a757600080fd5b8860208285010111156128b957600080fd5b95989497505060200194505050565b7f4e487b7100000000000000000000000000000000000000000000000000000000600052601160045260246000fd5b81810381811115610b8d57610b8d6128c8565b6fffffffffffffffffffffffffffffffff818116838216019080821115612810576128106128c8565b6fffffffffffffffffffffffffffffffff828116828216039080821115612810576128106128c8565b80820180821115610b8d57610b8d6128c8565b808202600082127f8000000000000000000000000000000000000000000000000000000000000000841416156129a7576129a76128c8565b8181058314821517610b8d57610b8d6128c8565b6000602082840312156129cd57600080fd5b81518015158114611ff957600080fd5b60005b838110156129f85781810151838201526020016129e0565b50506000910152565b82815260008251612a198160208501602087016129dd565b919091016020019392505050565b8082028115828204841417610b8d57610b8d6128c8565b600082612a74577f4e487b7100000000000000000000000000000000000000000000000000000000600052601260045260246000fd5b500490565b8181036000831280158383131683831282161715612810576128106128c8565b60008251612aab8184602087016129dd565b9190910192915050565b6020815260008251806020840152612ad48160408501602087016129dd565b601f017fffffffffffffffffffffffffffffffffffffffffffffffffffffffffffffffe016919091016040019291505056fea164736f6c6343000812000a",
  "linkReferences": {},
  "deployedLinkReferences": {}
}